{
  "_format": "hh-sol-artifact-1",
  "contractName": "CredentialRegistry",
  "sourceName": "contracts/CredentialRegistry.sol",
  "abi": [
    {
      "inputs": [
        {
          "internalType": "address",
          "name": "_userRegistry",
          "type": "address"
        }
      ],
      "stateMutability": "nonpayable",
      "type": "constructor"
    },
    {
      "anonymous": false,
      "inputs": [
        {
          "indexed": true,
          "internalType": "bytes32",
          "name": "credentialId",
          "type": "bytes32"
        },
        {
          "indexed": true,
          "internalType": "address",
          "name": "issuer",
          "type": "address"
        },
        {
          "indexed": true,
          "internalType": "address",
          "name": "holder",
          "type": "address"
        },
        {
          "indexed": false,
          "internalType": "bytes32",
          "name": "docHash",
          "type": "bytes32"
        },
        {
          "indexed": false,
          "internalType": "string",
          "name": "ipfsCID",
          "type": "string"
        },
        {
          "indexed": false,
          "internalType": "uint256",
          "name": "issuedAt",
          "type": "uint256"
        },
        {
          "indexed": false,
          "internalType": "uint256",
          "name": "expiresAt",
          "type": "uint256"
        }
      ],
      "name": "CredentialIssued",
      "type": "event"
    },
    {
      "anonymous": false,
      "inputs": [
        {
          "indexed": true,
          "internalType": "bytes32",
          "name": "credentialId",
          "type": "bytes32"
        },
        {
          "indexed": true,
          "internalType": "address",
          "name": "issuer",
          "type": "address"
        },
        {
          "indexed": false,
          "internalType": "uint256",
          "name": "revokedAt",
          "type": "uint256"
        }
      ],
      "name": "CredentialRevoked",
      "type": "event"
    },
    {
      "anonymous": false,
      "inputs": [
        {
          "indexed": true,
          "internalType": "bytes32",
          "name": "credentialId",
          "type": "bytes32"
        },
        {
          "indexed": false,
          "internalType": "enum CredentialRegistry.Status",
          "name": "newStatus",
          "type": "uint8"
        },
        {
          "indexed": false,
          "internalType": "uint256",
          "name": "updatedAt",
          "type": "uint256"
        }
      ],
      "name": "CredentialStatusUpdated",
      "type": "event"
    },
    {
      "inputs": [
        {
          "internalType": "bytes32",
          "name": "",
          "type": "bytes32"
        }
      ],
      "name": "credentials",
      "outputs": [
        {
          "internalType": "bytes32",
          "name": "docHash",
          "type": "bytes32"
        },
        {
          "internalType": "string",
          "name": "ipfsCID",
          "type": "string"
        },
        {
          "internalType": "address",
          "name": "issuer",
          "type": "address"
        },
        {
          "internalType": "address",
          "name": "holder",
          "type": "address"
        },
        {
          "internalType": "enum CredentialRegistry.Status",
          "name": "status",
          "type": "uint8"
        },
        {
          "internalType": "uint256",
          "name": "issuedAt",
          "type": "uint256"
        },
        {
          "internalType": "uint256",
          "name": "expiresAt",
          "type": "uint256"
        },
        {
          "internalType": "string",
          "name": "metadataCID",
          "type": "string"
        }
      ],
      "stateMutability": "view",
      "type": "function"
    },
    {
      "inputs": [
        {
          "internalType": "bytes32",
          "name": "_credentialId",
          "type": "bytes32"
        }
      ],
      "name": "getCredential",
      "outputs": [
        {
          "components": [
            {
              "internalType": "bytes32",
              "name": "docHash",
              "type": "bytes32"
            },
            {
              "internalType": "string",
              "name": "ipfsCID",
              "type": "string"
            },
            {
              "internalType": "address",
              "name": "issuer",
              "type": "address"
            },
            {
              "internalType": "address",
              "name": "holder",
              "type": "address"
            },
            {
              "internalType": "enum CredentialRegistry.Status",
              "name": "status",
              "type": "uint8"
            },
            {
              "internalType": "uint256",
              "name": "issuedAt",
              "type": "uint256"
            },
            {
              "internalType": "uint256",
              "name": "expiresAt",
              "type": "uint256"
            },
            {
              "internalType": "string",
              "name": "metadataCID",
              "type": "string"
            }
          ],
          "internalType": "struct CredentialRegistry.Credential",
          "name": "",
          "type": "tuple"
        }
      ],
      "stateMutability": "view",
      "type": "function"
    },
    {
      "inputs": [
        {
          "internalType": "address",
          "name": "_holder",
          "type": "address"
        }
      ],
      "name": "getHolderCredentials",
      "outputs": [
        {
          "internalType": "bytes32[]",
          "name": "",
          "type": "bytes32[]"
        }
      ],
      "stateMutability": "view",
      "type": "function"
    },
    {
      "inputs": [
        {
          "internalType": "address",
          "name": "_issuer",
          "type": "address"
        }
      ],
      "name": "getIssuerCredentials",
      "outputs": [
        {
          "internalType": "bytes32[]",
          "name": "",
          "type": "bytes32[]"
        }
      ],
      "stateMutability": "view",
      "type": "function"
    },
    {
      "inputs": [
        {
          "internalType": "address",
          "name": "",
          "type": "address"
        },
        {
          "internalType": "uint256",
          "name": "",
          "type": "uint256"
        }
      ],
      "name": "holderCredentials",
      "outputs": [
        {
          "internalType": "bytes32",
          "name": "",
          "type": "bytes32"
        }
      ],
      "stateMutability": "view",
      "type": "function"
    },
    {
      "inputs": [
        {
          "internalType": "bytes32",
          "name": "_credentialId",
          "type": "bytes32"
        }
      ],
      "name": "isCredentialValid",
      "outputs": [
        {
          "internalType": "bool",
          "name": "",
          "type": "bool"
        }
      ],
      "stateMutability": "view",
      "type": "function"
    },
    {
      "inputs": [
        {
          "internalType": "bytes32",
          "name": "_docHash",
          "type": "bytes32"
        },
        {
          "internalType": "string",
          "name": "_ipfsCID",
          "type": "string"
        },
        {
          "internalType": "address",
          "name": "_holder",
          "type": "address"
        },
        {
          "internalType": "uint256",
          "name": "_expiresAt",
          "type": "uint256"
        },
        {
          "internalType": "string",
          "name": "_metadataCID",
          "type": "string"
        }
      ],
      "name": "issueCredential",
      "outputs": [
        {
          "internalType": "bytes32",
          "name": "",
          "type": "bytes32"
        }
      ],
      "stateMutability": "nonpayable",
      "type": "function"
    },
    {
      "inputs": [
        {
          "internalType": "address",
          "name": "",
          "type": "address"
        },
        {
          "internalType": "uint256",
          "name": "",
          "type": "uint256"
        }
      ],
      "name": "issuerCredentials",
      "outputs": [
        {
          "internalType": "bytes32",
          "name": "",
          "type": "bytes32"
        }
      ],
      "stateMutability": "view",
      "type": "function"
    },
    {
      "inputs": [
        {
          "internalType": "bytes32",
          "name": "_credentialId",
          "type": "bytes32"
        }
      ],
      "name": "revokeCredential",
      "outputs": [],
      "stateMutability": "nonpayable",
      "type": "function"
    },
    {
      "inputs": [],
      "name": "totalCredentials",
      "outputs": [
        {
          "internalType": "uint256",
          "name": "",
          "type": "uint256"
        }
      ],
      "stateMutability": "view",
      "type": "function"
    },
    {
      "inputs": [
        {
          "internalType": "bytes32",
          "name": "_credentialId",
          "type": "bytes32"
        }
      ],
      "name": "updateExpired",
      "outputs": [],
      "stateMutability": "nonpayable",
      "type": "function"
    },
    {
      "inputs": [],
      "name": "userRegistry",
      "outputs": [
        {
          "internalType": "contract UserRegistry",
          "name": "",
          "type": "address"
        }
      ],
      "stateMutability": "view",
      "type": "function"
    }
  ],
  "bytecode": "0x608060405234801561001057600080fd5b506040516113f43803806113f483398101604081905261002f91610054565b600380546001600160a01b0319166001600160a01b0392909216919091179055610084565b60006020828403121561006657600080fd5b81516001600160a01b038116811461007d57600080fd5b9392505050565b611361806100936000396000f3fe608060405234801561001057600080fd5b50600436106100b45760003560e01c8063797c35c811610071578063797c35c81461017057806389be4336146101855780638d18443214610198578063ca6eec78146101b8578063d1be4883146101cb578063d8202ffb146101eb57600080fd5b80631513d62b146100b95780631abac44b146100d55780631e48169d146100e8578063299d0348146100fb5780635c7460d6146101225780636dc158eb1461014d575b600080fd5b6100c260045481565b6040519081526020015b60405180910390f35b6100c26100e3366004610e08565b6101fe565b6100c26100f6366004610e08565b61022f565b61010e610109366004610e32565b61024b565b6040516100cc989796959493929190610ec9565b600354610135906001600160a01b031681565b6040516001600160a01b0390911681526020016100cc565b61016061015b366004610e32565b6103b3565b60405190151581526020016100cc565b61018361017e366004610e32565b61041f565b005b6100c2610193366004610f7f565b6104cb565b6101ab6101a6366004611016565b6109a7565b6040516100cc9190611038565b6101836101c6366004610e32565b610a13565b6101de6101d9366004610e32565b610b8a565b6040516100cc919061107c565b6101ab6101f9366004611016565b610d82565b6001602052816000526040600020818154811061021a57600080fd5b90600052602060002001600091509150505481565b6002602052816000526040600020818154811061021a57600080fd5b6000602081905290815260409020805460018201805491929161026d9061111f565b80601f01602080910402602001604051908101604052809291908181526020018280546102999061111f565b80156102e65780601f106102bb576101008083540402835291602001916102e6565b820191906000526020600020905b8154815290600101906020018083116102c957829003601f168201915b50505050600283015460038401546004850154600586015460068701805496976001600160a01b03958616979585169650600160a01b90940460ff1694929391926103309061111f565b80601f016020809104026020016040519081016040528092919081815260200182805461035c9061111f565b80156103a95780601f1061037e576101008083540402835291602001916103a9565b820191906000526020600020905b81548152906001019060200180831161038c57829003601f168201915b5050505050905088565b6000818152602081905260408120816003820154600160a01b900460ff1660028111156103e2576103e2610e91565b146103f05750600092915050565b60008160050154118015610408575042816005015411155b156104165750600092915050565b50600192915050565b6000818152602081905260408120906003820154600160a01b900460ff16600281111561044e5761044e610e91565b14801561045f575060008160050154115b801561046f575042816005015411155b156104c75760038101805460ff60a01b1916600160a11b17905560405182907f1989483702270fd50e2145a654f53a70bed9c1988b0e4d4441794e61eb152fba906104be906002904290611159565b60405180910390a25b5050565b60035460405163877b9a6760e01b81523360048201526000916001600160a01b03169063877b9a6790602401602060405180830381865afa158015610514573d6000803e3d6000fd5b505050506040513d601f19601f820116820180604052508101906105389190611174565b6105895760405162461bcd60e51b815260206004820152601e60248201527f43616c6c6572206973206e6f7420616e2061637469766520697373756572000060448201526064015b60405180910390fd5b600354604051636a6bd8cd60e11b81526001600160a01b0387811660048301529091169063d4d7b19a90602401602060405180830381865afa1580156105d3573d6000803e3d6000fd5b505050506040513d601f19601f820116820180604052508101906105f79190611174565b6106435760405162461bcd60e51b815260206004820152601860248201527f486f6c646572206973206e6f74207265676973746572656400000000000000006044820152606401610580565b876106845760405162461bcd60e51b8152602060048201526011602482015270111bd8c81a185cda081c995c5d5a5c9959607a1b6044820152606401610580565b856106c55760405162461bcd60e51b815260206004820152601160248201527012541194c810d251081c995c5d5a5c9959607a1b6044820152606401610580565b6040516bffffffffffffffffffffffff1933606090811b8216602084015287901b1660348201526048810189905242606882015260009060880160408051601f1981840301815291815281516020928301206000818152928390529120600201549091506001600160a01b03161561077f5760405162461bcd60e51b815260206004820152601960248201527f43726564656e7469616c20616c726561647920657869737473000000000000006044820152606401610580565b6040518061010001604052808a815260200189898080601f01602080910402602001604051908101604052809392919081815260200183838082843760009201829052509385525050336020840152506001600160a01b0389166040830152606090910190815260200142815260200186815260200185858080601f0160208091040260200160405190810160405280939291908181526020018383808284376000920182905250939094525050838152602081815260409091208351815590830151909150600182019061085490826111fd565b506040820151600282810180546001600160a01b03199081166001600160a01b03948516179091556060850151600385018054928316919094169081178455608086015193926001600160a81b03199092161790600160a01b9084908111156108bf576108bf610e91565b021790555060a0820151600482015560c0820151600582015560e082015160068201906108ec90826111fd565b505033600090815260016020818152604080842080548085018255908552828520018690556001600160a01b038b16845260028252832080549283018155835282200183905560048054925090610942836112bd565b9190505550856001600160a01b0316336001600160a01b0316827f7e579d2ebb9d8e0f50c6b42937c8bdb09f57621fa9b18ce41bccc14655ccc7dc8c8c8c428c6040516109939594939291906112e4565b60405180910390a498975050505050505050565b6001600160a01b038116600090815260026020908152604091829020805483518184028101840190945280845260609392830182828015610a0757602002820191906000526020600020905b8154815260200190600101908083116109f3575b50505050509050919050565b60008181526020819052604090206002015481906001600160a01b03163314610a7e5760405162461bcd60e51b815260206004820152601760248201527f4f6e6c79206973737565722063616e20706572666f726d0000000000000000006044820152606401610580565b8160008082815260208190526040902060030154600160a01b900460ff166002811115610aad57610aad610e91565b14610af25760405162461bcd60e51b815260206004820152601560248201527443726564656e7469616c206e6f742061637469766560581b6044820152606401610580565b60008381526020818152604091829020600301805460ff60a01b1916600160a01b17905581514281529151339286927f80d4746828447d65eceb938c7f9d85fbeb232fe7819d5209ed452b3940f8904b92918290030190a3827f1989483702270fd50e2145a654f53a70bed9c1988b0e4d4441794e61eb152fba600142604051610b7d929190611159565b60405180910390a2505050565b604080516101008101825260008082526060602083018190529282018190528282018190526080820181905260a0820181905260c082015260e08101919091526000828152602081815260409182902082516101008101909352805483526001810180549192840191610bfc9061111f565b80601f0160208091040260200160405190810160405280929190818152602001828054610c289061111f565b8015610c755780601f10610c4a57610100808354040283529160200191610c75565b820191906000526020600020905b815481529060010190602001808311610c5857829003601f168201915b50505091835250506002828101546001600160a01b03908116602084015260038401549081166040840152606090920191600160a01b900460ff1690811115610cc057610cc0610e91565b6002811115610cd157610cd1610e91565b81526020016004820154815260200160058201548152602001600682018054610cf99061111f565b80601f0160208091040260200160405190810160405280929190818152602001828054610d259061111f565b8015610d725780601f10610d4757610100808354040283529160200191610d72565b820191906000526020600020905b815481529060010190602001808311610d5557829003601f168201915b5050505050815250509050919050565b6001600160a01b038116600090815260016020908152604091829020805483518184028101840190945280845260609392830182828015610a0757602002820191906000526020600020908154815260200190600101908083116109f35750505050509050919050565b80356001600160a01b0381168114610e0357600080fd5b919050565b60008060408385031215610e1b57600080fd5b610e2483610dec565b946020939093013593505050565b600060208284031215610e4457600080fd5b5035919050565b6000815180845260005b81811015610e7157602081850181015186830182015201610e55565b506000602082860101526020601f19601f83011685010191505092915050565b634e487b7160e01b600052602160045260246000fd5b60038110610ec557634e487b7160e01b600052602160045260246000fd5b9052565b60006101008a8352806020840152610ee38184018b610e4b565b6001600160a01b038a81166040860152891660608501529050610f096080840188610ea7565b8560a08401528460c084015282810360e0840152610f278185610e4b565b9b9a5050505050505050505050565b60008083601f840112610f4857600080fd5b50813567ffffffffffffffff811115610f6057600080fd5b602083019150836020828501011115610f7857600080fd5b9250929050565b600080600080600080600060a0888a031215610f9a57600080fd5b87359650602088013567ffffffffffffffff80821115610fb957600080fd5b610fc58b838c01610f36565b9098509650869150610fd960408b01610dec565b955060608a0135945060808a0135915080821115610ff657600080fd5b506110038a828b01610f36565b989b979a50959850939692959293505050565b60006020828403121561102857600080fd5b61103182610dec565b9392505050565b6020808252825182820181905260009190848201906040850190845b8181101561107057835183529284019291840191600101611054565b50909695505050505050565b6020815281516020820152600060208301516101008060408501526110a5610120850183610e4b565b915060018060a01b03604086015116606085015260608501516110d360808601826001600160a01b03169052565b5060808501516110e660a0860182610ea7565b5060a085015160c085015260c085015160e085015260e0850151601f1985840301828601526111158382610e4b565b9695505050505050565b600181811c9082168061113357607f821691505b60208210810361115357634e487b7160e01b600052602260045260246000fd5b50919050565b604081016111678285610ea7565b8260208301529392505050565b60006020828403121561118657600080fd5b8151801515811461103157600080fd5b634e487b7160e01b600052604160045260246000fd5b601f8211156111f8576000816000526020600020601f850160051c810160208610156111d55750805b601f850160051c820191505b818110156111f4578281556001016111e1565b5050505b505050565b815167ffffffffffffffff81111561121757611217611196565b61122b81611225845461111f565b846111ac565b602080601f83116001811461126057600084156112485750858301515b600019600386901b1c1916600185901b1785556111f4565b600085815260208120601f198616915b8281101561128f57888601518255948401946001909101908401611270565b50858210156112ad5787850151600019600388901b60f8161c191681555b5050505050600190811b01905550565b6000600182016112dd57634e487b7160e01b600052601160045260246000fd5b5060010190565b85815260806020820152836080820152838560a0830137600060a08583010152600060a0601f19601f8701168301019050836040830152826060830152969550505050505056fea26469706673582212201925e14bb2b9c265550e254acbf3b9d79d0f332acdeac8fec8ec107d958e4ce964736f6c63430008180033",
  "linkReferences": {},
  "deployedLinkReferences": {}
}