{
  "_format": "hh-sol-artifact-1",
  "contractName": "VerificationOracle",
  "sourceName": "contracts/VerificationOracle.sol",
  "abi": [
    {
      "inputs": [],
      "stateMutability": "nonpayable",
      "type": "constructor"
    },
    {
      "inputs": [],
      "name": "AccessControlBadConfirmation",
      "type": "error"
    },
    {
      "inputs": [
        {
          "internalType": "address",
          "name": "account",
          "type": "address"
        },
        {
          "internalType": "bytes32",
          "name": "neededRole",
          "type": "bytes32"
        }
      ],
      "name": "AccessControlUnauthorizedAccount",
      "type": "error"
    },
    {
      "inputs": [],
      "name": "InvalidInitialization",
      "type": "error"
    },
    {
      "inputs": [],
      "name": "NotInitializing",
      "type": "error"
    },
    {
      "anonymous": false,
      "inputs": [
        {
          "indexed": false,
          "internalType": "uint64",
          "name": "version",
          "type": "uint64"
        }
      ],
      "name": "Initialized",
      "type": "event"
    },
    {
      "anonymous": false,
      "inputs": [
        {
          "indexed": true,
          "internalType": "address",
          "name": "oldOracle",
          "type": "address"
        },
        {
          "indexed": true,
          "internalType": "address",
          "name": "newOracle",
          "type": "address"
        }
      ],
      "name": "OracleUpdated",
      "type": "event"
    },
    {
      "anonymous": false,
      "inputs": [
        {
          "indexed": true,
          "internalType": "bytes32",
          "name": "role",
          "type": "bytes32"
        },
        {
          "indexed": true,
          "internalType": "bytes32",
          "name": "previousAdminRole",
          "type": "bytes32"
        },
        {
          "indexed": true,
          "internalType": "bytes32",
          "name": "newAdminRole",
          "type": "bytes32"
        }
      ],
      "name": "RoleAdminChanged",
      "type": "event"
    },
    {
      "anonymous": false,
      "inputs": [
        {
          "indexed": true,
          "internalType": "bytes32",
          "name": "role",
          "type": "bytes32"
        },
        {
          "indexed": true,
          "internalType": "address",
          "name": "account",
          "type": "address"
        },
        {
          "indexed": true,
          "internalType": "address",
          "name": "sender",
          "type": "address"
        }
      ],
      "name": "RoleGranted",
      "type": "event"
    },
    {
      "anonymous": false,
      "inputs": [
        {
          "indexed": true,
          "internalType": "bytes32",
          "name": "role",
          "type": "bytes32"
        },
        {
          "indexed": true,
          "internalType": "address",
          "name": "account",
          "type": "address"
        },
        {
          "indexed": true,
          "internalType": "address",
          "name": "sender",
          "type": "address"
        }
      ],
      "name": "RoleRevoked",
      "type": "event"
    },
    {
      "anonymous": false,
      "inputs": [
        {
          "indexed": true,
          "internalType": "uint256",
          "name": "requestId",
          "type": "uint256"
        },
        {
          "indexed": true,
          "internalType": "bytes32",
          "name": "docHash",
          "type": "bytes32"
        },
        {
          "indexed": true,
          "internalType": "address",
          "name": "requester",
          "type": "address"
        },
        {
          "indexed": false,
          "internalType": "uint256",
          "name": "timestamp",
          "type": "uint256"
        }
      ],
      "name": "VerificationRequested",
      "type": "event"
    },
    {
      "anonymous": false,
      "inputs": [
        {
          "indexed": true,
          "internalType": "uint256",
          "name": "requestId",
          "type": "uint256"
        },
        {
          "indexed": true,
          "internalType": "bytes32",
          "name": "docHash",
          "type": "bytes32"
        },
        {
          "indexed": false,
          "internalType": "bool",
          "name": "isValid",
          "type": "bool"
        },
        {
          "indexed": false,
          "internalType": "string",
          "name": "proofCID",
          "type": "string"
        },
        {
          "indexed": false,
          "internalType": "address",
          "name": "resolver",
          "type": "address"
        },
        {
          "indexed": false,
          "internalType": "uint256",
          "name": "timestamp",
          "type": "uint256"
        }
      ],
      "name": "VerificationResolved",
      "type": "event"
    },
    {
      "inputs": [],
      "name": "DEFAULT_ADMIN_ROLE",
      "outputs": [
        {
          "internalType": "bytes32",
          "name": "",
          "type": "bytes32"
        }
      ],
      "stateMutability": "view",
      "type": "function"
    },
    {
      "inputs": [],
      "name": "acceptOracle",
      "outputs": [],
      "stateMutability": "nonpayable",
      "type": "function"
    },
    {
      "inputs": [
        {
          "internalType": "bytes32",
          "name": "",
          "type": "bytes32"
        },
        {
          "internalType": "uint256",
          "name": "",
          "type": "uint256"
        }
      ],
      "name": "credentialRequests",
      "outputs": [
        {
          "internalType": "uint256",
          "name": "",
          "type": "uint256"
        }
      ],
      "stateMutability": "view",
      "type": "function"
    },
    {
      "inputs": [],
      "name": "credentialStore",
      "outputs": [
        {
          "internalType": "contract CredentialStore",
          "name": "",
          "type": "address"
        }
      ],
      "stateMutability": "view",
      "type": "function"
    },
    {
      "inputs": [
        {
          "internalType": "bytes32",
          "name": "_docHash",
          "type": "bytes32"
        }
      ],
      "name": "getCredentialVerifications",
      "outputs": [
        {
          "internalType": "uint256[]",
          "name": "",
          "type": "uint256[]"
        }
      ],
      "stateMutability": "view",
      "type": "function"
    },
    {
      "inputs": [
        {
          "internalType": "bytes32",
          "name": "role",
          "type": "bytes32"
        }
      ],
      "name": "getRoleAdmin",
      "outputs": [
        {
          "internalType": "bytes32",
          "name": "",
          "type": "bytes32"
        }
      ],
      "stateMutability": "view",
      "type": "function"
    },
    {
      "inputs": [
        {
          "internalType": "uint256",
          "name": "_requestId",
          "type": "uint256"
        }
      ],
      "name": "getVerificationStatus",
      "outputs": [
        {
          "internalType": "bool",
          "name": "resolved",
          "type": "bool"
        },
        {
          "internalType": "bool",
          "name": "isValid",
          "type": "bool"
        },
        {
          "internalType": "uint256",
          "name": "requestedAt",
          "type": "uint256"
        },
        {
          "internalType": "uint256",
          "name": "resolvedAt",
          "type": "uint256"
        },
        {
          "internalType": "string",
          "name": "proofCID",
          "type": "string"
        }
      ],
      "stateMutability": "view",
      "type": "function"
    },
    {
      "inputs": [
        {
          "internalType": "bytes32",
          "name": "role",
          "type": "bytes32"
        },
        {
          "internalType": "address",
          "name": "account",
          "type": "address"
        }
      ],
      "name": "grantRole",
      "outputs": [],
      "stateMutability": "nonpayable",
      "type": "function"
    },
    {
      "inputs": [
        {
          "internalType": "bytes32",
          "name": "role",
          "type": "bytes32"
        },
        {
          "internalType": "address",
          "name": "account",
          "type": "address"
        }
      ],
      "name": "hasRole",
      "outputs": [
        {
          "internalType": "bool",
          "name": "",
          "type": "bool"
        }
      ],
      "stateMutability": "view",
      "type": "function"
    },
    {
      "inputs": [
        {
          "internalType": "address",
          "name": "_credentialStore",
          "type": "address"
        },
        {
          "internalType": "address",
          "name": "_oracle",
          "type": "address"
        }
      ],
      "name": "initialize",
      "outputs": [],
      "stateMutability": "nonpayable",
      "type": "function"
    },
    {
      "inputs": [],
      "name": "oracle",
      "outputs": [
        {
          "internalType": "address",
          "name": "",
          "type": "address"
        }
      ],
      "stateMutability": "view",
      "type": "function"
    },
    {
      "inputs": [],
      "name": "pendingOracle",
      "outputs": [
        {
          "internalType": "address",
          "name": "",
          "type": "address"
        }
      ],
      "stateMutability": "view",
      "type": "function"
    },
    {
      "inputs": [
        {
          "internalType": "address",
          "name": "_newOracle",
          "type": "address"
        }
      ],
      "name": "proposeNewOracle",
      "outputs": [],
      "stateMutability": "nonpayable",
      "type": "function"
    },
    {
      "inputs": [
        {
          "internalType": "bytes32",
          "name": "role",
          "type": "bytes32"
        },
        {
          "internalType": "address",
          "name": "callerConfirmation",
          "type": "address"
        }
      ],
      "name": "renounceRole",
      "outputs": [],
      "stateMutability": "nonpayable",
      "type": "function"
    },
    {
      "inputs": [
        {
          "internalType": "bytes32",
          "name": "_docHash",
          "type": "bytes32"
        }
      ],
      "name": "requestVerification",
      "outputs": [
        {
          "internalType": "uint256",
          "name": "",
          "type": "uint256"
        }
      ],
      "stateMutability": "nonpayable",
      "type": "function"
    },
    {
      "inputs": [
        {
          "internalType": "uint256",
          "name": "",
          "type": "uint256"
        }
      ],
      "name": "requests",
      "outputs": [
        {
          "internalType": "address",
          "name": "requester",
          "type": "address"
        },
        {
          "internalType": "bytes32",
          "name": "docHash",
          "type": "bytes32"
        },
        {
          "internalType": "uint256",
          "name": "requestedAt",
          "type": "uint256"
        },
        {
          "internalType": "bool",
          "name": "resolved",
          "type": "bool"
        },
        {
          "internalType": "bool",
          "name": "isValid",
          "type": "bool"
        },
        {
          "internalType": "string",
          "name": "proofCID",
          "type": "string"
        },
        {
          "internalType": "address",
          "name": "resolver",
          "type": "address"
        },
        {
          "internalType": "uint256",
          "name": "resolvedAt",
          "type": "uint256"
        }
      ],
      "stateMutability": "view",
      "type": "function"
    },
    {
      "inputs": [
        {
          "internalType": "bytes32",
          "name": "role",
          "type": "bytes32"
        },
        {
          "internalType": "address",
          "name": "account",
          "type": "address"
        }
      ],
      "name": "revokeRole",
      "outputs": [],
      "stateMutability": "nonpayable",
      "type": "function"
    },
    {
      "inputs": [
        {
          "internalType": "uint256",
          "name": "_requestId",
          "type": "uint256"
        },
        {
          "internalType": "bool",
          "name": "_isValid",
          "type": "bool"
        },
        {
          "internalType": "string",
          "name": "_proofCID",
          "type": "string"
        }
      ],
      "name": "submitVerificationResult",
      "outputs": [],
      "stateMutability": "nonpayable",
      "type": "function"
    },
    {
      "inputs": [
        {
          "internalType": "bytes4",
          "name": "interfaceId",
          "type": "bytes4"
        }
      ],
      "name": "supportsInterface",
      "outputs": [
        {
          "internalType": "bool",
          "name": "",
          "type": "bool"
        }
      ],
      "stateMutability": "view",
      "type": "function"
    },
    {
      "inputs": [],
      "name": "totalRequests",
      "outputs": [
        {
          "internalType": "uint256",
          "name": "",
          "type": "uint256"
        }
      ],
      "stateMutability": "view",
      "type": "function"
    }
  ],
  "bytecode": "0x608060405234801561001057600080fd5b5061001961001e565b6100d0565b7ff0c57e16840df040f15088dc2f81fe391c3923bec73e23a9662efc9c229c6a00805468010000000000000000900460ff161561006e5760405163f92ee8a960e01b815260040160405180910390fd5b80546001600160401b03908116146100cd5780546001600160401b0319166001600160401b0390811782556040519081527fc7f505b2f371ae2175ee4913f4499e1f2633a7b5936321eed1cdaeb6115181d29060200160405180910390a15b50565b611449806100df6000396000f3fe608060405234801561001057600080fd5b506004361061012c5760003560e01c806381d12c58116100ad578063b25e7f7e11610071578063b25e7f7e14610290578063bef0bbe3146102a3578063d547741f146102b6578063e2008123146102c9578063f954624a146102e957600080fd5b806381d12c58146102325780638aea61dc1461025957806391d14854146102625780639a53e82914610275578063a217fddf1461028857600080fd5b806336568abe116100f457806336568abe146101de578063485cc955146101f157806352f3a7be146102045780637dc0d1d0146102175780637f2d95751461022a57600080fd5b806301ffc9a7146101315780630607e5bb146101595780631d9425ca14610184578063248a9ca3146101a85780632f2ff15d146101c9575b600080fd5b61014461013f366004610f50565b6102fc565b60405190151581526020015b60405180910390f35b60055461016c906001600160a01b031681565b6040516001600160a01b039091168152602001610150565b610197610192366004610f81565b610333565b604051610150959493929190610fe0565b6101bb6101b6366004610f81565b610410565b604051908152602001610150565b6101dc6101d7366004611036565b610432565b005b6101dc6101ec366004611036565b610454565b6101dc6101ff366004611062565b61048c565b6101dc61021236600461108c565b610670565b60045461016c906001600160a01b031681565b6101dc61072b565b610245610240366004610f81565b6107eb565b6040516101509897969594939291906110a7565b6101bb60035481565b610144610270366004611036565b6108d4565b6101bb610283366004610f81565b61090c565b6101bb600081565b60005461016c906001600160a01b031681565b6101dc6102b1366004611113565b610ac5565b6101dc6102c4366004611036565b610cc4565b6102dc6102d7366004610f81565b610ce0565b60405161015091906111e5565b6101bb6102f7366004611229565b610d42565b60006001600160e01b03198216637965db0b60e01b148061032d57506301ffc9a760e01b6001600160e01b03198316145b92915050565b6000818152600160205260408120600381015460028201546006830154600484018054869586958695606095929460ff8084169561010090940416939192819061037c9061124b565b80601f01602080910402602001604051908101604052809291908181526020018280546103a89061124b565b80156103f55780601f106103ca576101008083540402835291602001916103f5565b820191906000526020600020905b8154815290600101906020018083116103d857829003601f168201915b50505050509050955095509550955095505091939590929450565b60009081526000805160206113f4833981519152602052604090206001015490565b61043b82610410565b61044481610d73565b61044e8383610d80565b50505050565b6001600160a01b038116331461047d5760405163334bd91960e11b815260040160405180910390fd5b6104878282610e25565b505050565b6000610496610ea1565b805490915060ff600160401b820416159067ffffffffffffffff166000811580156104be5750825b905060008267ffffffffffffffff1660011480156104db5750303b155b9050811580156104e9575080155b156105075760405163f92ee8a960e01b815260040160405180910390fd5b845467ffffffffffffffff19166001178555831561053157845460ff60401b1916600160401b1785555b610539610eca565b6001600160a01b0387166105945760405162461bcd60e51b815260206004820152601760248201527f496e76616c69642043726564656e7469616c53746f726500000000000000000060448201526064015b60405180910390fd5b6001600160a01b0386166105ea5760405162461bcd60e51b815260206004820152601760248201527f4f7261636c652061646472657373207265717569726564000000000000000000604482015260640161058b565b600080546001600160a01b03808a166001600160a01b031992831617835560048054918a16919092161790556106209033610d80565b50831561066757845460ff60401b19168555604051600181527fc7f505b2f371ae2175ee4913f4499e1f2633a7b5936321eed1cdaeb6115181d29060200160405180910390a15b50505050505050565b6004546001600160a01b031633146106c15760405162461bcd60e51b815260206004820152601460248201527313db9b1e481bdc9858db194818d85b8818d85b1b60621b604482015260640161058b565b6001600160a01b0381166107095760405162461bcd60e51b815260206004820152600f60248201526e496e76616c6964206164647265737360881b604482015260640161058b565b600580546001600160a01b0319166001600160a01b0392909216919091179055565b6005546001600160a01b031633146107855760405162461bcd60e51b815260206004820152601e60248201527f4f6e6c792070656e64696e67206f7261636c652063616e206163636570740000604482015260640161058b565b6005546004546040516001600160a01b0392831692909116907f078c3b417dadf69374a59793b829c52001247130433427049317bde56607b1b790600090a360058054600480546001600160a01b03199081166001600160a01b03841617909155169055565b6001602081905260009182526040909120805491810154600282015460038301546004840180546001600160a01b03909616959394929360ff808416946101009094041692919061083b9061124b565b80601f01602080910402602001604051908101604052809291908181526020018280546108679061124b565b80156108b45780601f10610889576101008083540402835291602001916108b4565b820191906000526020600020905b81548152906001019060200180831161089757829003601f168201915b50505050600583015460069093015491926001600160a01b031691905088565b60009182526000805160206113f4833981519152602090815260408084206001600160a01b0393909316845291905290205460ff1690565b60008161094d5760405162461bcd60e51b815260206004820152600f60248201526e092dcecc2d8d2c840c8dec690c2e6d608b1b604482015260640161058b565b600380546040805161010080820183523382526020808301888152428486019081526000606086018181526080870182815288518087018a5283815260a0890190815260c0890184905260e089018490528a845260019687905298909220875181546001600160a01b0319166001600160a01b039091161781559351948401949094559051600283015591519681018054925161ffff1990931697151561ff00191697909717911515909202179094559051919290916004820190610a1290826112d5565b5060c08201516005820180546001600160a01b0319166001600160a01b0390921691909117905560e090910151600690910155600083815260026020908152604082208054600181018255908352908220018290556003805491610a7583611395565b9190505550336001600160a01b031683827fa5d85b81cc6106663ee19014d8de29e07005651bf5db9cc9a0184abc6042300f42604051610ab791815260200190565b60405180910390a492915050565b6004546001600160a01b03163314610b165760405162461bcd60e51b815260206004820152601460248201527313db9b1e481bdc9858db194818d85b8818d85b1b60621b604482015260640161058b565b6003548310610b605760405162461bcd60e51b815260206004820152601660248201527514995c5d595cdd08191bd95cc81b9bdd08195e1a5cdd60521b604482015260640161058b565b60008381526001602052604090206003015460ff1615610bb55760405162461bcd60e51b815260206004820152601060248201526f105b1c9958591e481c995cdbdb1d995960821b604482015260640161058b565b600083815260016020819052604090912060038101805461ffff1916610100861515021790921790915560048101610bed83826112d5565b506005810180546001600160a01b0319163317905542600682015560005460018201546040516318115c0d60e21b81526001600160a01b039290921691636045703491610c499187906004019182521515602082015260400190565b600060405180830381600087803b158015610c6357600080fd5b505af1158015610c77573d6000803e3d6000fd5b505050508060010154847f30da1dd8d5ca1290f0b798cfdb1785529e85e28a14bd692a28fe81103ccbb78e85853342604051610cb694939291906113bc565b60405180910390a350505050565b610ccd82610410565b610cd681610d73565b61044e8383610e25565b600081815260026020908152604091829020805483518184028101840190945280845260609392830182828015610d3657602002820191906000526020600020905b815481526020019060010190808311610d22575b50505050509050919050565b60026020528160005260406000208181548110610d5e57600080fd5b90600052602060002001600091509150505481565b610d7d8133610ed4565b50565b60006000805160206113f4833981519152610d9b84846108d4565b610e1b576000848152602082815260408083206001600160a01b03871684529091529020805460ff19166001179055610dd13390565b6001600160a01b0316836001600160a01b0316857f2f8788117e7eff1d82e926ec794901d17c78024a50270940304540a733656f0d60405160405180910390a4600191505061032d565b600091505061032d565b60006000805160206113f4833981519152610e4084846108d4565b15610e1b576000848152602082815260408083206001600160a01b0387168085529252808320805460ff1916905551339287917ff6391f5c32d9c69d2a47ea670b442974b53935d1edc7fd64eb21e047a839171b9190a4600191505061032d565b6000807ff0c57e16840df040f15088dc2f81fe391c3923bec73e23a9662efc9c229c6a0061032d565b610ed2610f11565b565b610ede82826108d4565b610f0d5760405163e2517d3f60e01b81526001600160a01b03821660048201526024810183905260440161058b565b5050565b610f19610f36565b610ed257604051631afcd79f60e31b815260040160405180910390fd5b6000610f40610ea1565b54600160401b900460ff16919050565b600060208284031215610f6257600080fd5b81356001600160e01b031981168114610f7a57600080fd5b9392505050565b600060208284031215610f9357600080fd5b5035919050565b6000815180845260005b81811015610fc057602081850181015186830182015201610fa4565b506000602082860101526020601f19601f83011685010191505092915050565b8515158152841515602082015283604082015282606082015260a06080820152600061100f60a0830184610f9a565b979650505050505050565b80356001600160a01b038116811461103157600080fd5b919050565b6000806040838503121561104957600080fd5b823591506110596020840161101a565b90509250929050565b6000806040838503121561107557600080fd5b61107e8361101a565b91506110596020840161101a565b60006020828403121561109e57600080fd5b610f7a8261101a565b600061010060018060a01b03808c1684528a6020850152896040850152881515606085015287151560808501528160a08501526110e682850188610f9a565b951660c0840152505060e001529695505050505050565b634e487b7160e01b600052604160045260246000fd5b60008060006060848603121561112857600080fd5b833592506020840135801515811461113f57600080fd5b9150604084013567ffffffffffffffff8082111561115c57600080fd5b818601915086601f83011261117057600080fd5b813581811115611182576111826110fd565b604051601f8201601f19908116603f011681019083821181831017156111aa576111aa6110fd565b816040528281528960208487010111156111c357600080fd5b8260208601602083013760006020848301015280955050505050509250925092565b6020808252825182820181905260009190848201906040850190845b8181101561121d57835183529284019291840191600101611201565b50909695505050505050565b6000806040838503121561123c57600080fd5b50508035926020909101359150565b600181811c9082168061125f57607f821691505b60208210810361127f57634e487b7160e01b600052602260045260246000fd5b50919050565b601f821115610487576000816000526020600020601f850160051c810160208610156112ae5750805b601f850160051c820191505b818110156112cd578281556001016112ba565b505050505050565b815167ffffffffffffffff8111156112ef576112ef6110fd565b611303816112fd845461124b565b84611285565b602080601f83116001811461133857600084156113205750858301515b600019600386901b1c1916600185901b1785556112cd565b600085815260208120601f198616915b8281101561136757888601518255948401946001909101908401611348565b50858210156113855787850151600019600388901b60f8161c191681555b5050505050600190811b01905550565b6000600182016113b557634e487b7160e01b600052601160045260246000fd5b5060010190565b84151581526080602082015260006113d76080830186610f9a565b6001600160a01b0394909416604083015250606001529291505056fe02dd7bc7dec4dceedda775e58dd541e08a116c6c53815c0bd028192f7b626800a2646970667358221220065af6eb710becf78bdf61cf2e91a53f8c73f29daa4d627f46b792ea7f59f11064736f6c63430008180033",
  "linkReferences": {},
  "deployedLinkReferences": {}
}