{"contracts/VerificationOracle.sol":{"VerificationOracle":{"abi":[{"inputs":[],"stateMutability":"nonpayable","type":"constructor"},{"inputs":[],"name":"AccessControlBadConfirmation","type":"error"},{"inputs":[{"internalType":"address","name":"account","type":"address"},{"internalType":"bytes32","name":"neededRole","type":"bytes32"}],"name":"AccessControlUnauthorizedAccount","type":"error"},{"inputs":[],"name":"InvalidInitialization","type":"error"},{"inputs":[],"name":"NotInitializing","type":"error"},{"anonymous":false,"inputs":[{"indexed":false,"internalType":"uint64","name":"version","type":"uint64"}],"name":"Initialized","type":"event"},{"anonymous":false,"inputs":[{"indexed":true,"internalType":"address","name":"oldOracle","type":"address"},{"indexed":true,"internalType":"address","name":"newOracle","type":"address"}],"name":"OracleUpdated","type":"event"},{"anonymous":false,"inputs":[{"indexed":true,"internalType":"bytes32","name":"role","type":"bytes32"},{"indexed":true,"internalType":"bytes32","name":"previousAdminRole","type":"bytes32"},{"indexed":true,"internalType":"bytes32","name":"newAdminRole","type":"bytes32"}],"name":"RoleAdminChanged","type":"event"},{"anonymous":false,"inputs":[{"indexed":true,"internalType":"bytes32","name":"role","type":"bytes32"},{"indexed":true,"internalType":"address","name":"account","type":"address"},{"indexed":true,"internalType":"address","name":"sender","type":"address"}],"name":"RoleGranted","type":"event"},{"anonymous":false,"inputs":[{"indexed":true,"internalType":"bytes32","name":"role","type":"bytes32"},{"indexed":true,"internalType":"address","name":"account","type":"address"},{"indexed":true,"internalType":"address","name":"sender","type":"address"}],"name":"RoleRevoked","type":"event"},{"anonymous":false,"inputs":[{"indexed":true,"internalType":"uint256","name":"requestId","type":"uint256"},{"indexed":true,"internalType":"bytes32","name":"docHash","type":"bytes32"},{"indexed":true,"internalType":"address","name":"requester","type":"address"},{"indexed":false,"internalType":"uint256","name":"timestamp","type":"uint256"}],"name":"VerificationRequested","type":"event"},{"anonymous":false,"inputs":[{"indexed":true,"internalType":"uint256","name":"requestId","type":"uint256"},{"indexed":true,"internalType":"bytes32","name":"docHash","type":"bytes32"},{"indexed":false,"internalType":"bool","name":"isValid","type":"bool"},{"indexed":false,"internalType":"string","name":"proofCID","type":"string"},{"indexed":false,"internalType":"address","name":"resolver","type":"address"},{"indexed":false,"internalType":"uint256","name":"timestamp","type":"uint256"}],"name":"VerificationResolved","type":"event"},{"inputs":[],"name":"DEFAULT_ADMIN_ROLE","outputs":[{"internalType":"bytes32","name":"","type":"bytes32"}],"stateMutability":"view","type":"function"},{"inputs":[],"name":"acceptOracle","outputs":[],"stateMutability":"nonpayable","type":"function"},{"inputs":[{"internalType":"bytes32","name":"","type":"bytes32"},{"internalType":"uint256","name":"","type":"uint256"}],"name":"credentialRequests","outputs":[{"internalType":"uint256","name":"","type":"uint256"}],"stateMutability":"view","type":"function"},{"inputs":[],"name":"credentialStore","outputs":[{"internalType":"contract CredentialStore","name":"","type":"address"}],"stateMutability":"view","type":"function"},{"inputs":[{"internalType":"bytes32","name":"_docHash","type":"bytes32"}],"name":"getCredentialVerifications","outputs":[{"internalType":"uint256[]","name":"","type":"uint256[]"}],"stateMutability":"view","type":"function"},{"inputs":[{"internalType":"bytes32","name":"role","type":"bytes32"}],"name":"getRoleAdmin","outputs":[{"internalType":"bytes32","name":"","type":"bytes32"}],"stateMutability":"view","type":"function"},{"inputs":[{"internalType":"uint256","name":"_requestId","type":"uint256"}],"name":"getVerificationStatus","outputs":[{"internalType":"bool","name":"resolved","type":"bool"},{"internalType":"bool","name":"isValid","type":"bool"},{"internalType":"uint256","name":"requestedAt","type":"uint256"},{"internalType":"uint256","name":"resolvedAt","type":"uint256"},{"internalType":"string","name":"proofCID","type":"string"}],"stateMutability":"view","type":"function"},{"inputs":[{"internalType":"bytes32","name":"role","type":"bytes32"},{"internalType":"address","name":"account","type":"address"}],"name":"grantRole","outputs":[],"stateMutability":"nonpayable","type":"function"},{"inputs":[{"internalType":"bytes32","name":"role","type":"bytes32"},{"internalType":"address","name":"account","type":"address"}],"name":"hasRole","outputs":[{"internalType":"bool","name":"","type":"bool"}],"stateMutability":"view","type":"function"},{"inputs":[{"internalType":"address","name":"_credentialStore","type":"address"},{"internalType":"address","name":"_oracle","type":"address"}],"name":"initialize","outputs":[],"stateMutability":"nonpayable","type":"function"},{"inputs":[],"name":"oracle","outputs":[{"internalType":"address","name":"","type":"address"}],"stateMutability":"view","type":"function"},{"inputs":[],"name":"pendingOracle","outputs":[{"internalType":"address","name":"","type":"address"}],"stateMutability":"view","type":"function"},{"inputs":[{"internalType":"address","name":"_newOracle","type":"address"}],"name":"proposeNewOracle","outputs":[],"stateMutability":"nonpayable","type":"function"},{"inputs":[{"internalType":"bytes32","name":"role","type":"bytes32"},{"internalType":"address","name":"callerConfirmation","type":"address"}],"name":"renounceRole","outputs":[],"stateMutability":"nonpayable","type":"function"},{"inputs":[{"internalType":"bytes32","name":"_docHash","type":"bytes32"}],"name":"requestVerification","outputs":[{"internalType":"uint256","name":"","type":"uint256"}],"stateMutability":"nonpayable","type":"function"},{"inputs":[{"internalType":"uint256","name":"","type":"uint256"}],"name":"requests","outputs":[{"internalType":"address","name":"requester","type":"address"},{"internalType":"bytes32","name":"docHash","type":"bytes32"},{"internalType":"uint256","name":"requestedAt","type":"uint256"},{"internalType":"bool","name":"resolved","type":"bool"},{"internalType":"bool","name":"isValid","type":"bool"},{"internalType":"string","name":"proofCID","type":"string"},{"internalType":"address","name":"resolver","type":"address"},{"internalType":"uint256","name":"resolvedAt","type":"uint256"}],"stateMutability":"view","type":"function"},{"inputs":[{"internalType":"bytes32","name":"role","type":"bytes32"},{"internalType":"address","name":"account","type":"address"}],"name":"revokeRole","outputs":[],"stateMutability":"nonpayable","type":"function"},{"inputs":[{"internalType":"uint256","name":"_requestId","type":"uint256"},{"internalType":"bool","name":"_isValid","type":"bool"},{"internalType":"string","name":"_proofCID","type":"string"}],"name":"submitVerificationResult","outputs":[],"stateMutability":"nonpayable","type":"function"},{"inputs":[{"internalType":"bytes4","name":"interfaceId","type":"bytes4"}],"name":"supportsInterface","outputs":[{"internalType":"bool","name":"","type":"bool"}],"stateMutability":"view","type":"function"},{"inputs":[],"name":"totalRequests","outputs":[{"internalType":"uint256","name":"","type":"uint256"}],"stateMutability":"view","type":"function"}],"evm":{"bytecode":{"linkReferences":{},"object":"608060405234801561001057600080fd5b5061001961001e565b6100d0565b7ff0c57e16840df040f15088dc2f81fe391c3923bec73e23a9662efc9c229c6a00805468010000000000000000900460ff161561006e5760405163f92ee8a960e01b815260040160405180910390fd5b80546001600160401b03908116146100cd5780546001600160401b0319166001600160401b0390811782556040519081527fc7f505b2f371ae2175ee4913f4499e1f2633a7b5936321eed1cdaeb6115181d29060200160405180910390a15b50565b611449806100df6000396000f3fe608060405234801561001057600080fd5b506004361061012c5760003560e01c806381d12c58116100ad578063b25e7f7e11610071578063b25e7f7e14610290578063bef0bbe3146102a3578063d547741f146102b6578063e2008123146102c9578063f954624a146102e957600080fd5b806381d12c58146102325780638aea61dc1461025957806391d14854146102625780639a53e82914610275578063a217fddf1461028857600080fd5b806336568abe116100f457806336568abe146101de578063485cc955146101f157806352f3a7be146102045780637dc0d1d0146102175780637f2d95751461022a57600080fd5b806301ffc9a7146101315780630607e5bb146101595780631d9425ca14610184578063248a9ca3146101a85780632f2ff15d146101c9575b600080fd5b61014461013f366004610f50565b6102fc565b60405190151581526020015b60405180910390f35b60055461016c906001600160a01b031681565b6040516001600160a01b039091168152602001610150565b610197610192366004610f81565b610333565b604051610150959493929190610fe0565b6101bb6101b6366004610f81565b610410565b604051908152602001610150565b6101dc6101d7366004611036565b610432565b005b6101dc6101ec366004611036565b610454565b6101dc6101ff366004611062565b61048c565b6101dc61021236600461108c565b610670565b60045461016c906001600160a01b031681565b6101dc61072b565b610245610240366004610f81565b6107eb565b6040516101509897969594939291906110a7565b6101bb60035481565b610144610270366004611036565b6108d4565b6101bb610283366004610f81565b61090c565b6101bb600081565b60005461016c906001600160a01b031681565b6101dc6102b1366004611113565b610ac5565b6101dc6102c4366004611036565b610cc4565b6102dc6102d7366004610f81565b610ce0565b60405161015091906111e5565b6101bb6102f7366004611229565b610d42565b60006001600160e01b03198216637965db0b60e01b148061032d57506301ffc9a760e01b6001600160e01b03198316145b92915050565b6000818152600160205260408120600381015460028201546006830154600484018054869586958695606095929460ff8084169561010090940416939192819061037c9061124b565b80601f01602080910402602001604051908101604052809291908181526020018280546103a89061124b565b80156103f55780601f106103ca576101008083540402835291602001916103f5565b820191906000526020600020905b8154815290600101906020018083116103d857829003601f168201915b50505050509050955095509550955095505091939590929450565b60009081526000805160206113f4833981519152602052604090206001015490565b61043b82610410565b61044481610d73565b61044e8383610d80565b50505050565b6001600160a01b038116331461047d5760405163334bd91960e11b815260040160405180910390fd5b6104878282610e25565b505050565b6000610496610ea1565b805490915060ff600160401b820416159067ffffffffffffffff166000811580156104be5750825b905060008267ffffffffffffffff1660011480156104db5750303b155b9050811580156104e9575080155b156105075760405163f92ee8a960e01b815260040160405180910390fd5b845467ffffffffffffffff19166001178555831561053157845460ff60401b1916600160401b1785555b610539610eca565b6001600160a01b0387166105945760405162461bcd60e51b815260206004820152601760248201527f496e76616c69642043726564656e7469616c53746f726500000000000000000060448201526064015b60405180910390fd5b6001600160a01b0386166105ea5760405162461bcd60e51b815260206004820152601760248201527f4f7261636c652061646472657373207265717569726564000000000000000000604482015260640161058b565b600080546001600160a01b03808a166001600160a01b031992831617835560048054918a16919092161790556106209033610d80565b50831561066757845460ff60401b19168555604051600181527fc7f505b2f371ae2175ee4913f4499e1f2633a7b5936321eed1cdaeb6115181d29060200160405180910390a15b50505050505050565b6004546001600160a01b031633146106c15760405162461bcd60e51b815260206004820152601460248201527313db9b1e481bdc9858db194818d85b8818d85b1b60621b604482015260640161058b565b6001600160a01b0381166107095760405162461bcd60e51b815260206004820152600f60248201526e496e76616c6964206164647265737360881b604482015260640161058b565b600580546001600160a01b0319166001600160a01b0392909216919091179055565b6005546001600160a01b031633146107855760405162461bcd60e51b815260206004820152601e60248201527f4f6e6c792070656e64696e67206f7261636c652063616e206163636570740000604482015260640161058b565b6005546004546040516001600160a01b0392831692909116907f078c3b417dadf69374a59793b829c52001247130433427049317bde56607b1b790600090a360058054600480546001600160a01b03199081166001600160a01b03841617909155169055565b6001602081905260009182526040909120805491810154600282015460038301546004840180546001600160a01b03909616959394929360ff808416946101009094041692919061083b9061124b565b80601f01602080910402602001604051908101604052809291908181526020018280546108679061124b565b80156108b45780601f10610889576101008083540402835291602001916108b4565b820191906000526020600020905b81548152906001019060200180831161089757829003601f168201915b50505050600583015460069093015491926001600160a01b031691905088565b60009182526000805160206113f4833981519152602090815260408084206001600160a01b0393909316845291905290205460ff1690565b60008161094d5760405162461bcd60e51b815260206004820152600f60248201526e092dcecc2d8d2c840c8dec690c2e6d608b1b604482015260640161058b565b600380546040805161010080820183523382526020808301888152428486019081526000606086018181526080870182815288518087018a5283815260a0890190815260c0890184905260e089018490528a845260019687905298909220875181546001600160a01b0319166001600160a01b039091161781559351948401949094559051600283015591519681018054925161ffff1990931697151561ff00191697909717911515909202179094559051919290916004820190610a1290826112d5565b5060c08201516005820180546001600160a01b0319166001600160a01b0390921691909117905560e090910151600690910155600083815260026020908152604082208054600181018255908352908220018290556003805491610a7583611395565b9190505550336001600160a01b031683827fa5d85b81cc6106663ee19014d8de29e07005651bf5db9cc9a0184abc6042300f42604051610ab791815260200190565b60405180910390a492915050565b6004546001600160a01b03163314610b165760405162461bcd60e51b815260206004820152601460248201527313db9b1e481bdc9858db194818d85b8818d85b1b60621b604482015260640161058b565b6003548310610b605760405162461bcd60e51b815260206004820152601660248201527514995c5d595cdd08191bd95cc81b9bdd08195e1a5cdd60521b604482015260640161058b565b60008381526001602052604090206003015460ff1615610bb55760405162461bcd60e51b815260206004820152601060248201526f105b1c9958591e481c995cdbdb1d995960821b604482015260640161058b565b600083815260016020819052604090912060038101805461ffff1916610100861515021790921790915560048101610bed83826112d5565b506005810180546001600160a01b0319163317905542600682015560005460018201546040516318115c0d60e21b81526001600160a01b039290921691636045703491610c499187906004019182521515602082015260400190565b600060405180830381600087803b158015610c6357600080fd5b505af1158015610c77573d6000803e3d6000fd5b505050508060010154847f30da1dd8d5ca1290f0b798cfdb1785529e85e28a14bd692a28fe81103ccbb78e85853342604051610cb694939291906113bc565b60405180910390a350505050565b610ccd82610410565b610cd681610d73565b61044e8383610e25565b600081815260026020908152604091829020805483518184028101840190945280845260609392830182828015610d3657602002820191906000526020600020905b815481526020019060010190808311610d22575b50505050509050919050565b60026020528160005260406000208181548110610d5e57600080fd5b90600052602060002001600091509150505481565b610d7d8133610ed4565b50565b60006000805160206113f4833981519152610d9b84846108d4565b610e1b576000848152602082815260408083206001600160a01b03871684529091529020805460ff19166001179055610dd13390565b6001600160a01b0316836001600160a01b0316857f2f8788117e7eff1d82e926ec794901d17c78024a50270940304540a733656f0d60405160405180910390a4600191505061032d565b600091505061032d565b60006000805160206113f4833981519152610e4084846108d4565b15610e1b576000848152602082815260408083206001600160a01b0387168085529252808320805460ff1916905551339287917ff6391f5c32d9c69d2a47ea670b442974b53935d1edc7fd64eb21e047a839171b9190a4600191505061032d565b6000807ff0c57e16840df040f15088dc2f81fe391c3923bec73e23a9662efc9c229c6a0061032d565b610ed2610f11565b565b610ede82826108d4565b610f0d5760405163e2517d3f60e01b81526001600160a01b03821660048201526024810183905260440161058b565b5050565b610f19610f36565b610ed257604051631afcd79f60e31b815260040160405180910390fd5b6000610f40610ea1565b54600160401b900460ff16919050565b600060208284031215610f6257600080fd5b81356001600160e01b031981168114610f7a57600080fd5b9392505050565b600060208284031215610f9357600080fd5b5035919050565b6000815180845260005b81811015610fc057602081850181015186830182015201610fa4565b506000602082860101526020601f19601f83011685010191505092915050565b8515158152841515602082015283604082015282606082015260a06080820152600061100f60a0830184610f9a565b979650505050505050565b80356001600160a01b038116811461103157600080fd5b919050565b6000806040838503121561104957600080fd5b823591506110596020840161101a565b90509250929050565b6000806040838503121561107557600080fd5b61107e8361101a565b91506110596020840161101a565b60006020828403121561109e57600080fd5b610f7a8261101a565b600061010060018060a01b03808c1684528a6020850152896040850152881515606085015287151560808501528160a08501526110e682850188610f9a565b951660c0840152505060e001529695505050505050565b634e487b7160e01b600052604160045260246000fd5b60008060006060848603121561112857600080fd5b833592506020840135801515811461113f57600080fd5b9150604084013567ffffffffffffffff8082111561115c57600080fd5b818601915086601f83011261117057600080fd5b813581811115611182576111826110fd565b604051601f8201601f19908116603f011681019083821181831017156111aa576111aa6110fd565b816040528281528960208487010111156111c357600080fd5b8260208601602083013760006020848301015280955050505050509250925092565b6020808252825182820181905260009190848201906040850190845b8181101561121d57835183529284019291840191600101611201565b50909695505050505050565b6000806040838503121561123c57600080fd5b50508035926020909101359150565b600181811c9082168061125f57607f821691505b60208210810361127f57634e487b7160e01b600052602260045260246000fd5b50919050565b601f821115610487576000816000526020600020601f850160051c810160208610156112ae5750805b601f850160051c820191505b818110156112cd578281556001016112ba565b505050505050565b815167ffffffffffffffff8111156112ef576112ef6110fd565b611303816112fd845461124b565b84611285565b602080601f83116001811461133857600084156113205750858301515b600019600386901b1c1916600185901b1785556112cd565b600085815260208120601f198616915b8281101561136757888601518255948401946001909101908401611348565b50858210156113855787850151600019600388901b60f8161c191681555b5050505050600190811b01905550565b6000600182016113b557634e487b7160e01b600052601160045260246000fd5b5060010190565b84151581526080602082015260006113d76080830186610f9a565b6001600160a01b0394909416604083015250606001529291505056fe02dd7bc7dec4dceedda775e58dd541e08a116c6c53815c0bd028192f7b626800a2646970667358221220065af6eb710becf78bdf61cf2e91a53f8c73f29daa4d627f46b792ea7f59f11064736f6c63430008180033","opcodes":"PUSH1 0x80 PUSH1 0x40 MSTORE CALLVALUE DUP1 ISZERO PUSH2 0x10 JUMPI PUSH1 0x0 DUP1 REVERT JUMPDEST POP PUSH2 0x19 PUSH2 0x1E JUMP JUMPDEST PUSH2 0xD0 JUMP JUMPDEST PUSH32 0xF0C57E16840DF040F15088DC2F81FE391C3923BEC73E23A9662EFC9C229C6A00 DUP1 SLOAD PUSH9 0x10000000000000000 SWAP1 DIV PUSH1 0xFF AND ISZERO PUSH2 0x6E JUMPI PUSH1 0x40 MLOAD PUSH4 0xF92EE8A9 PUSH1 0xE0 SHL DUP2 MSTORE PUSH1 0x4 ADD PUSH1 0x40 MLOAD DUP1 SWAP2 SUB SWAP1 REVERT JUMPDEST DUP1 SLOAD PUSH1 0x1 PUSH1 0x1 PUSH1 0x40 SHL SUB SWAP1 DUP2 AND EQ PUSH2 0xCD JUMPI DUP1 SLOAD PUSH1 0x1 PUSH1 0x1 PUSH1 0x40 SHL SUB NOT AND PUSH1 0x1 PUSH1 0x1 PUSH1 0x40 SHL SUB SWAP1 DUP2 OR DUP3 SSTORE PUSH1 0x40 MLOAD SWAP1 DUP2 MSTORE PUSH32 0xC7F505B2F371AE2175EE4913F4499E1F2633A7B5936321EED1CDAEB6115181D2 SWAP1 PUSH1 0x20 ADD PUSH1 0x40 MLOAD DUP1 SWAP2 SUB SWAP1 LOG1 JUMPDEST POP JUMP JUMPDEST PUSH2 0x1449 DUP1 PUSH2 0xDF PUSH1 0x0 CODECOPY PUSH1 0x0 RETURN INVALID PUSH1 0x80 PUSH1 0x40 MSTORE CALLVALUE DUP1 ISZERO PUSH2 0x10 JUMPI PUSH1 0x0 DUP1 REVERT JUMPDEST POP PUSH1 0x4 CALLDATASIZE LT PUSH2 0x12C JUMPI PUSH1 0x0 CALLDATALOAD PUSH1 0xE0 SHR DUP1 PUSH4 0x81D12C58 GT PUSH2 0xAD JUMPI DUP1 PUSH4 0xB25E7F7E GT PUSH2 0x71 JUMPI DUP1 PUSH4 0xB25E7F7E EQ PUSH2 0x290 JUMPI DUP1 PUSH4 0xBEF0BBE3 EQ PUSH2 0x2A3 JUMPI DUP1 PUSH4 0xD547741F EQ PUSH2 0x2B6 JUMPI DUP1 PUSH4 0xE2008123 EQ PUSH2 0x2C9 JUMPI DUP1 PUSH4 0xF954624A EQ PUSH2 0x2E9 JUMPI PUSH1 0x0 DUP1 REVERT JUMPDEST DUP1 PUSH4 0x81D12C58 EQ PUSH2 0x232 JUMPI DUP1 PUSH4 0x8AEA61DC EQ PUSH2 0x259 JUMPI DUP1 PUSH4 0x91D14854 EQ PUSH2 0x262 JUMPI DUP1 PUSH4 0x9A53E829 EQ PUSH2 0x275 JUMPI DUP1 PUSH4 0xA217FDDF EQ PUSH2 0x288 JUMPI PUSH1 0x0 DUP1 REVERT JUMPDEST DUP1 PUSH4 0x36568ABE GT PUSH2 0xF4 JUMPI DUP1 PUSH4 0x36568ABE EQ PUSH2 0x1DE JUMPI DUP1 PUSH4 0x485CC955 EQ PUSH2 0x1F1 JUMPI DUP1 PUSH4 0x52F3A7BE EQ PUSH2 0x204 JUMPI DUP1 PUSH4 0x7DC0D1D0 EQ PUSH2 0x217 JUMPI DUP1 PUSH4 0x7F2D9575 EQ PUSH2 0x22A JUMPI PUSH1 0x0 DUP1 REVERT JUMPDEST DUP1 PUSH4 0x1FFC9A7 EQ PUSH2 0x131 JUMPI DUP1 PUSH4 0x607E5BB EQ PUSH2 0x159 JUMPI DUP1 PUSH4 0x1D9425CA EQ PUSH2 0x184 JUMPI DUP1 PUSH4 0x248A9CA3 EQ PUSH2 0x1A8 JUMPI DUP1 PUSH4 0x2F2FF15D EQ PUSH2 0x1C9 JUMPI JUMPDEST PUSH1 0x0 DUP1 REVERT JUMPDEST PUSH2 0x144 PUSH2 0x13F CALLDATASIZE PUSH1 0x4 PUSH2 0xF50 JUMP JUMPDEST PUSH2 0x2FC JUMP JUMPDEST PUSH1 0x40 MLOAD SWAP1 ISZERO ISZERO DUP2 MSTORE PUSH1 0x20 ADD JUMPDEST PUSH1 0x40 MLOAD DUP1 SWAP2 SUB SWAP1 RETURN JUMPDEST PUSH1 0x5 SLOAD PUSH2 0x16C SWAP1 PUSH1 0x1 PUSH1 0x1 PUSH1 0xA0 SHL SUB AND DUP2 JUMP JUMPDEST PUSH1 0x40 MLOAD PUSH1 0x1 PUSH1 0x1 PUSH1 0xA0 SHL SUB SWAP1 SWAP2 AND DUP2 MSTORE PUSH1 0x20 ADD PUSH2 0x150 JUMP JUMPDEST PUSH2 0x197 PUSH2 0x192 CALLDATASIZE PUSH1 0x4 PUSH2 0xF81 JUMP JUMPDEST PUSH2 0x333 JUMP JUMPDEST PUSH1 0x40 MLOAD PUSH2 0x150 SWAP6 SWAP5 SWAP4 SWAP3 SWAP2 SWAP1 PUSH2 0xFE0 JUMP JUMPDEST PUSH2 0x1BB PUSH2 0x1B6 CALLDATASIZE PUSH1 0x4 PUSH2 0xF81 JUMP JUMPDEST PUSH2 0x410 JUMP JUMPDEST PUSH1 0x40 MLOAD SWAP1 DUP2 MSTORE PUSH1 0x20 ADD PUSH2 0x150 JUMP JUMPDEST PUSH2 0x1DC PUSH2 0x1D7 CALLDATASIZE PUSH1 0x4 PUSH2 0x1036 JUMP JUMPDEST PUSH2 0x432 JUMP JUMPDEST STOP JUMPDEST PUSH2 0x1DC PUSH2 0x1EC CALLDATASIZE PUSH1 0x4 PUSH2 0x1036 JUMP JUMPDEST PUSH2 0x454 JUMP JUMPDEST PUSH2 0x1DC PUSH2 0x1FF CALLDATASIZE PUSH1 0x4 PUSH2 0x1062 JUMP JUMPDEST PUSH2 0x48C JUMP JUMPDEST PUSH2 0x1DC PUSH2 0x212 CALLDATASIZE PUSH1 0x4 PUSH2 0x108C JUMP JUMPDEST PUSH2 0x670 JUMP JUMPDEST PUSH1 0x4 SLOAD PUSH2 0x16C SWAP1 PUSH1 0x1 PUSH1 0x1 PUSH1 0xA0 SHL SUB AND DUP2 JUMP JUMPDEST PUSH2 0x1DC PUSH2 0x72B JUMP JUMPDEST PUSH2 0x245 PUSH2 0x240 CALLDATASIZE PUSH1 0x4 PUSH2 0xF81 JUMP JUMPDEST PUSH2 0x7EB JUMP JUMPDEST PUSH1 0x40 MLOAD PUSH2 0x150 SWAP9 SWAP8 SWAP7 SWAP6 SWAP5 SWAP4 SWAP3 SWAP2 SWAP1 PUSH2 0x10A7 JUMP JUMPDEST PUSH2 0x1BB PUSH1 0x3 SLOAD DUP2 JUMP JUMPDEST PUSH2 0x144 PUSH2 0x270 CALLDATASIZE PUSH1 0x4 PUSH2 0x1036 JUMP JUMPDEST PUSH2 0x8D4 JUMP JUMPDEST PUSH2 0x1BB PUSH2 0x283 CALLDATASIZE PUSH1 0x4 PUSH2 0xF81 JUMP JUMPDEST PUSH2 0x90C JUMP JUMPDEST PUSH2 0x1BB PUSH1 0x0 DUP2 JUMP JUMPDEST PUSH1 0x0 SLOAD PUSH2 0x16C SWAP1 PUSH1 0x1 PUSH1 0x1 PUSH1 0xA0 SHL SUB AND DUP2 JUMP JUMPDEST PUSH2 0x1DC PUSH2 0x2B1 CALLDATASIZE PUSH1 0x4 PUSH2 0x1113 JUMP JUMPDEST PUSH2 0xAC5 JUMP JUMPDEST PUSH2 0x1DC PUSH2 0x2C4 CALLDATASIZE PUSH1 0x4 PUSH2 0x1036 JUMP JUMPDEST PUSH2 0xCC4 JUMP JUMPDEST PUSH2 0x2DC PUSH2 0x2D7 CALLDATASIZE PUSH1 0x4 PUSH2 0xF81 JUMP JUMPDEST PUSH2 0xCE0 JUMP JUMPDEST PUSH1 0x40 MLOAD PUSH2 0x150 SWAP2 SWAP1 PUSH2 0x11E5 JUMP JUMPDEST PUSH2 0x1BB PUSH2 0x2F7 CALLDATASIZE PUSH1 0x4 PUSH2 0x1229 JUMP JUMPDEST PUSH2 0xD42 JUMP JUMPDEST PUSH1 0x0 PUSH1 0x1 PUSH1 0x1 PUSH1 0xE0 SHL SUB NOT DUP3 AND PUSH4 0x7965DB0B PUSH1 0xE0 SHL EQ DUP1 PUSH2 0x32D JUMPI POP PUSH4 0x1FFC9A7 PUSH1 0xE0 SHL PUSH1 0x1 PUSH1 0x1 PUSH1 0xE0 SHL SUB NOT DUP4 AND EQ JUMPDEST SWAP3 SWAP2 POP POP JUMP JUMPDEST PUSH1 0x0 DUP2 DUP2 MSTORE PUSH1 0x1 PUSH1 0x20 MSTORE PUSH1 0x40 DUP2 KECCAK256 PUSH1 0x3 DUP2 ADD SLOAD PUSH1 0x2 DUP3 ADD SLOAD PUSH1 0x6 DUP4 ADD SLOAD PUSH1 0x4 DUP5 ADD DUP1 SLOAD DUP7 SWAP6 DUP7 SWAP6 DUP7 SWAP6 PUSH1 0x60 SWAP6 SWAP3 SWAP5 PUSH1 0xFF DUP1 DUP5 AND SWAP6 PUSH2 0x100 SWAP1 SWAP5 DIV AND SWAP4 SWAP2 SWAP3 DUP2 SWAP1 PUSH2 0x37C SWAP1 PUSH2 0x124B JUMP JUMPDEST DUP1 PUSH1 0x1F ADD PUSH1 0x20 DUP1 SWAP2 DIV MUL PUSH1 0x20 ADD PUSH1 0x40 MLOAD SWAP1 DUP2 ADD PUSH1 0x40 MSTORE DUP1 SWAP3 SWAP2 SWAP1 DUP2 DUP2 MSTORE PUSH1 0x20 ADD DUP3 DUP1 SLOAD PUSH2 0x3A8 SWAP1 PUSH2 0x124B JUMP JUMPDEST DUP1 ISZERO PUSH2 0x3F5 JUMPI DUP1 PUSH1 0x1F LT PUSH2 0x3CA JUMPI PUSH2 0x100 DUP1 DUP4 SLOAD DIV MUL DUP4 MSTORE SWAP2 PUSH1 0x20 ADD SWAP2 PUSH2 0x3F5 JUMP JUMPDEST DUP3 ADD SWAP2 SWAP1 PUSH1 0x0 MSTORE PUSH1 0x20 PUSH1 0x0 KECCAK256 SWAP1 JUMPDEST DUP2 SLOAD DUP2 MSTORE SWAP1 PUSH1 0x1 ADD SWAP1 PUSH1 0x20 ADD DUP1 DUP4 GT PUSH2 0x3D8 JUMPI DUP3 SWAP1 SUB PUSH1 0x1F AND DUP3 ADD SWAP2 JUMPDEST POP POP POP POP POP SWAP1 POP SWAP6 POP SWAP6 POP SWAP6 POP SWAP6 POP SWAP6 POP POP SWAP2 SWAP4 SWAP6 SWAP1 SWAP3 SWAP5 POP JUMP JUMPDEST PUSH1 0x0 SWAP1 DUP2 MSTORE PUSH1 0x0 DUP1 MLOAD PUSH1 0x20 PUSH2 0x13F4 DUP4 CODECOPY DUP2 MLOAD SWAP2 MSTORE PUSH1 0x20 MSTORE PUSH1 0x40 SWAP1 KECCAK256 PUSH1 0x1 ADD SLOAD SWAP1 JUMP JUMPDEST PUSH2 0x43B DUP3 PUSH2 0x410 JUMP JUMPDEST PUSH2 0x444 DUP2 PUSH2 0xD73 JUMP JUMPDEST PUSH2 0x44E DUP4 DUP4 PUSH2 0xD80 JUMP JUMPDEST POP POP POP POP JUMP JUMPDEST PUSH1 0x1 PUSH1 0x1 PUSH1 0xA0 SHL SUB DUP2 AND CALLER EQ PUSH2 0x47D JUMPI PUSH1 0x40 MLOAD PUSH4 0x334BD919 PUSH1 0xE1 SHL DUP2 MSTORE PUSH1 0x4 ADD PUSH1 0x40 MLOAD DUP1 SWAP2 SUB SWAP1 REVERT JUMPDEST PUSH2 0x487 DUP3 DUP3 PUSH2 0xE25 JUMP JUMPDEST POP POP POP JUMP JUMPDEST PUSH1 0x0 PUSH2 0x496 PUSH2 0xEA1 JUMP JUMPDEST DUP1 SLOAD SWAP1 SWAP2 POP PUSH1 0xFF PUSH1 0x1 PUSH1 0x40 SHL DUP3 DIV AND ISZERO SWAP1 PUSH8 0xFFFFFFFFFFFFFFFF AND PUSH1 0x0 DUP2 ISZERO DUP1 ISZERO PUSH2 0x4BE JUMPI POP DUP3 JUMPDEST SWAP1 POP PUSH1 0x0 DUP3 PUSH8 0xFFFFFFFFFFFFFFFF AND PUSH1 0x1 EQ DUP1 ISZERO PUSH2 0x4DB JUMPI POP ADDRESS EXTCODESIZE ISZERO JUMPDEST SWAP1 POP DUP2 ISZERO DUP1 ISZERO PUSH2 0x4E9 JUMPI POP DUP1 ISZERO JUMPDEST ISZERO PUSH2 0x507 JUMPI PUSH1 0x40 MLOAD PUSH4 0xF92EE8A9 PUSH1 0xE0 SHL DUP2 MSTORE PUSH1 0x4 ADD PUSH1 0x40 MLOAD DUP1 SWAP2 SUB SWAP1 REVERT JUMPDEST DUP5 SLOAD PUSH8 0xFFFFFFFFFFFFFFFF NOT AND PUSH1 0x1 OR DUP6 SSTORE DUP4 ISZERO PUSH2 0x531 JUMPI DUP5 SLOAD PUSH1 0xFF PUSH1 0x40 SHL NOT AND PUSH1 0x1 PUSH1 0x40 SHL OR DUP6 SSTORE JUMPDEST PUSH2 0x539 PUSH2 0xECA JUMP JUMPDEST PUSH1 0x1 PUSH1 0x1 PUSH1 0xA0 SHL SUB DUP8 AND PUSH2 0x594 JUMPI PUSH1 0x40 MLOAD PUSH3 0x461BCD PUSH1 0xE5 SHL DUP2 MSTORE PUSH1 0x20 PUSH1 0x4 DUP3 ADD MSTORE PUSH1 0x17 PUSH1 0x24 DUP3 ADD MSTORE PUSH32 0x496E76616C69642043726564656E7469616C53746F7265000000000000000000 PUSH1 0x44 DUP3 ADD MSTORE PUSH1 0x64 ADD JUMPDEST PUSH1 0x40 MLOAD DUP1 SWAP2 SUB SWAP1 REVERT JUMPDEST PUSH1 0x1 PUSH1 0x1 PUSH1 0xA0 SHL SUB DUP7 AND PUSH2 0x5EA JUMPI PUSH1 0x40 MLOAD PUSH3 0x461BCD PUSH1 0xE5 SHL DUP2 MSTORE PUSH1 0x20 PUSH1 0x4 DUP3 ADD MSTORE PUSH1 0x17 PUSH1 0x24 DUP3 ADD MSTORE PUSH32 0x4F7261636C652061646472657373207265717569726564000000000000000000 PUSH1 0x44 DUP3 ADD MSTORE PUSH1 0x64 ADD PUSH2 0x58B JUMP JUMPDEST PUSH1 0x0 DUP1 SLOAD PUSH1 0x1 PUSH1 0x1 PUSH1 0xA0 SHL SUB DUP1 DUP11 AND PUSH1 0x1 PUSH1 0x1 PUSH1 0xA0 SHL SUB NOT SWAP3 DUP4 AND OR DUP4 SSTORE PUSH1 0x4 DUP1 SLOAD SWAP2 DUP11 AND SWAP2 SWAP1 SWAP3 AND OR SWAP1 SSTORE PUSH2 0x620 SWAP1 CALLER PUSH2 0xD80 JUMP JUMPDEST POP DUP4 ISZERO PUSH2 0x667 JUMPI DUP5 SLOAD PUSH1 0xFF PUSH1 0x40 SHL NOT AND DUP6 SSTORE PUSH1 0x40 MLOAD PUSH1 0x1 DUP2 MSTORE PUSH32 0xC7F505B2F371AE2175EE4913F4499E1F2633A7B5936321EED1CDAEB6115181D2 SWAP1 PUSH1 0x20 ADD PUSH1 0x40 MLOAD DUP1 SWAP2 SUB SWAP1 LOG1 JUMPDEST POP POP POP POP POP POP POP JUMP JUMPDEST PUSH1 0x4 SLOAD PUSH1 0x1 PUSH1 0x1 PUSH1 0xA0 SHL SUB AND CALLER EQ PUSH2 0x6C1 JUMPI PUSH1 0x40 MLOAD PUSH3 0x461BCD PUSH1 0xE5 SHL DUP2 MSTORE PUSH1 0x20 PUSH1 0x4 DUP3 ADD MSTORE PUSH1 0x14 PUSH1 0x24 DUP3 ADD MSTORE PUSH20 0x13DB9B1E481BDC9858DB194818D85B8818D85B1B PUSH1 0x62 SHL PUSH1 0x44 DUP3 ADD MSTORE PUSH1 0x64 ADD PUSH2 0x58B JUMP JUMPDEST PUSH1 0x1 PUSH1 0x1 PUSH1 0xA0 SHL SUB DUP2 AND PUSH2 0x709 JUMPI PUSH1 0x40 MLOAD PUSH3 0x461BCD PUSH1 0xE5 SHL DUP2 MSTORE PUSH1 0x20 PUSH1 0x4 DUP3 ADD MSTORE PUSH1 0xF PUSH1 0x24 DUP3 ADD MSTORE PUSH15 0x496E76616C69642061646472657373 PUSH1 0x88 SHL PUSH1 0x44 DUP3 ADD MSTORE PUSH1 0x64 ADD PUSH2 0x58B JUMP JUMPDEST PUSH1 0x5 DUP1 SLOAD PUSH1 0x1 PUSH1 0x1 PUSH1 0xA0 SHL SUB NOT AND PUSH1 0x1 PUSH1 0x1 PUSH1 0xA0 SHL SUB SWAP3 SWAP1 SWAP3 AND SWAP2 SWAP1 SWAP2 OR SWAP1 SSTORE JUMP JUMPDEST PUSH1 0x5 SLOAD PUSH1 0x1 PUSH1 0x1 PUSH1 0xA0 SHL SUB AND CALLER EQ PUSH2 0x785 JUMPI PUSH1 0x40 MLOAD PUSH3 0x461BCD PUSH1 0xE5 SHL DUP2 MSTORE PUSH1 0x20 PUSH1 0x4 DUP3 ADD MSTORE PUSH1 0x1E PUSH1 0x24 DUP3 ADD MSTORE PUSH32 0x4F6E6C792070656E64696E67206F7261636C652063616E206163636570740000 PUSH1 0x44 DUP3 ADD MSTORE PUSH1 0x64 ADD PUSH2 0x58B JUMP JUMPDEST PUSH1 0x5 SLOAD PUSH1 0x4 SLOAD PUSH1 0x40 MLOAD PUSH1 0x1 PUSH1 0x1 PUSH1 0xA0 SHL SUB SWAP3 DUP4 AND SWAP3 SWAP1 SWAP2 AND SWAP1 PUSH32 0x78C3B417DADF69374A59793B829C52001247130433427049317BDE56607B1B7 SWAP1 PUSH1 0x0 SWAP1 LOG3 PUSH1 0x5 DUP1 SLOAD PUSH1 0x4 DUP1 SLOAD PUSH1 0x1 PUSH1 0x1 PUSH1 0xA0 SHL SUB NOT SWAP1 DUP2 AND PUSH1 0x1 PUSH1 0x1 PUSH1 0xA0 SHL SUB DUP5 AND OR SWAP1 SWAP2 SSTORE AND SWAP1 SSTORE JUMP JUMPDEST PUSH1 0x1 PUSH1 0x20 DUP2 SWAP1 MSTORE PUSH1 0x0 SWAP2 DUP3 MSTORE PUSH1 0x40 SWAP1 SWAP2 KECCAK256 DUP1 SLOAD SWAP2 DUP2 ADD SLOAD PUSH1 0x2 DUP3 ADD SLOAD PUSH1 0x3 DUP4 ADD SLOAD PUSH1 0x4 DUP5 ADD DUP1 SLOAD PUSH1 0x1 PUSH1 0x1 PUSH1 0xA0 SHL SUB SWAP1 SWAP7 AND SWAP6 SWAP4 SWAP5 SWAP3 SWAP4 PUSH1 0xFF DUP1 DUP5 AND SWAP5 PUSH2 0x100 SWAP1 SWAP5 DIV AND SWAP3 SWAP2 SWAP1 PUSH2 0x83B SWAP1 PUSH2 0x124B JUMP JUMPDEST DUP1 PUSH1 0x1F ADD PUSH1 0x20 DUP1 SWAP2 DIV MUL PUSH1 0x20 ADD PUSH1 0x40 MLOAD SWAP1 DUP2 ADD PUSH1 0x40 MSTORE DUP1 SWAP3 SWAP2 SWAP1 DUP2 DUP2 MSTORE PUSH1 0x20 ADD DUP3 DUP1 SLOAD PUSH2 0x867 SWAP1 PUSH2 0x124B JUMP JUMPDEST DUP1 ISZERO PUSH2 0x8B4 JUMPI DUP1 PUSH1 0x1F LT PUSH2 0x889 JUMPI PUSH2 0x100 DUP1 DUP4 SLOAD DIV MUL DUP4 MSTORE SWAP2 PUSH1 0x20 ADD SWAP2 PUSH2 0x8B4 JUMP JUMPDEST DUP3 ADD SWAP2 SWAP1 PUSH1 0x0 MSTORE PUSH1 0x20 PUSH1 0x0 KECCAK256 SWAP1 JUMPDEST DUP2 SLOAD DUP2 MSTORE SWAP1 PUSH1 0x1 ADD SWAP1 PUSH1 0x20 ADD DUP1 DUP4 GT PUSH2 0x897 JUMPI DUP3 SWAP1 SUB PUSH1 0x1F AND DUP3 ADD SWAP2 JUMPDEST POP POP POP POP PUSH1 0x5 DUP4 ADD SLOAD PUSH1 0x6 SWAP1 SWAP4 ADD SLOAD SWAP2 SWAP3 PUSH1 0x1 PUSH1 0x1 PUSH1 0xA0 SHL SUB AND SWAP2 SWAP1 POP DUP9 JUMP JUMPDEST PUSH1 0x0 SWAP2 DUP3 MSTORE PUSH1 0x0 DUP1 MLOAD PUSH1 0x20 PUSH2 0x13F4 DUP4 CODECOPY DUP2 MLOAD SWAP2 MSTORE PUSH1 0x20 SWAP1 DUP2 MSTORE PUSH1 0x40 DUP1 DUP5 KECCAK256 PUSH1 0x1 PUSH1 0x1 PUSH1 0xA0 SHL SUB SWAP4 SWAP1 SWAP4 AND DUP5 MSTORE SWAP2 SWAP1 MSTORE SWAP1 KECCAK256 SLOAD PUSH1 0xFF AND SWAP1 JUMP JUMPDEST PUSH1 0x0 DUP2 PUSH2 0x94D JUMPI PUSH1 0x40 MLOAD PUSH3 0x461BCD PUSH1 0xE5 SHL DUP2 MSTORE PUSH1 0x20 PUSH1 0x4 DUP3 ADD MSTORE PUSH1 0xF PUSH1 0x24 DUP3 ADD MSTORE PUSH15 0x92DCECC2D8D2C840C8DEC690C2E6D PUSH1 0x8B SHL PUSH1 0x44 DUP3 ADD MSTORE PUSH1 0x64 ADD PUSH2 0x58B JUMP JUMPDEST PUSH1 0x3 DUP1 SLOAD PUSH1 0x40 DUP1 MLOAD PUSH2 0x100 DUP1 DUP3 ADD DUP4 MSTORE CALLER DUP3 MSTORE PUSH1 0x20 DUP1 DUP4 ADD DUP9 DUP2 MSTORE TIMESTAMP DUP5 DUP7 ADD SWAP1 DUP2 MSTORE PUSH1 0x0 PUSH1 0x60 DUP7 ADD DUP2 DUP2 MSTORE PUSH1 0x80 DUP8 ADD DUP3 DUP2 MSTORE DUP9 MLOAD DUP1 DUP8 ADD DUP11 MSTORE DUP4 DUP2 MSTORE PUSH1 0xA0 DUP10 ADD SWAP1 DUP2 MSTORE PUSH1 0xC0 DUP10 ADD DUP5 SWAP1 MSTORE PUSH1 0xE0 DUP10 ADD DUP5 SWAP1 MSTORE DUP11 DUP5 MSTORE PUSH1 0x1 SWAP7 DUP8 SWAP1 MSTORE SWAP9 SWAP1 SWAP3 KECCAK256 DUP8 MLOAD DUP2 SLOAD PUSH1 0x1 PUSH1 0x1 PUSH1 0xA0 SHL SUB NOT AND PUSH1 0x1 PUSH1 0x1 PUSH1 0xA0 SHL SUB SWAP1 SWAP2 AND OR DUP2 SSTORE SWAP4 MLOAD SWAP5 DUP5 ADD SWAP5 SWAP1 SWAP5 SSTORE SWAP1 MLOAD PUSH1 0x2 DUP4 ADD SSTORE SWAP2 MLOAD SWAP7 DUP2 ADD DUP1 SLOAD SWAP3 MLOAD PUSH2 0xFFFF NOT SWAP1 SWAP4 AND SWAP8 ISZERO ISZERO PUSH2 0xFF00 NOT AND SWAP8 SWAP1 SWAP8 OR SWAP2 ISZERO ISZERO SWAP1 SWAP3 MUL OR SWAP1 SWAP5 SSTORE SWAP1 MLOAD SWAP2 SWAP3 SWAP1 SWAP2 PUSH1 0x4 DUP3 ADD SWAP1 PUSH2 0xA12 SWAP1 DUP3 PUSH2 0x12D5 JUMP JUMPDEST POP PUSH1 0xC0 DUP3 ADD MLOAD PUSH1 0x5 DUP3 ADD DUP1 SLOAD PUSH1 0x1 PUSH1 0x1 PUSH1 0xA0 SHL SUB NOT AND PUSH1 0x1 PUSH1 0x1 PUSH1 0xA0 SHL SUB SWAP1 SWAP3 AND SWAP2 SWAP1 SWAP2 OR SWAP1 SSTORE PUSH1 0xE0 SWAP1 SWAP2 ADD MLOAD PUSH1 0x6 SWAP1 SWAP2 ADD SSTORE PUSH1 0x0 DUP4 DUP2 MSTORE PUSH1 0x2 PUSH1 0x20 SWAP1 DUP2 MSTORE PUSH1 0x40 DUP3 KECCAK256 DUP1 SLOAD PUSH1 0x1 DUP2 ADD DUP3 SSTORE SWAP1 DUP4 MSTORE SWAP1 DUP3 KECCAK256 ADD DUP3 SWAP1 SSTORE PUSH1 0x3 DUP1 SLOAD SWAP2 PUSH2 0xA75 DUP4 PUSH2 0x1395 JUMP JUMPDEST SWAP2 SWAP1 POP SSTORE POP CALLER PUSH1 0x1 PUSH1 0x1 PUSH1 0xA0 SHL SUB AND DUP4 DUP3 PUSH32 0xA5D85B81CC6106663EE19014D8DE29E07005651BF5DB9CC9A0184ABC6042300F TIMESTAMP PUSH1 0x40 MLOAD PUSH2 0xAB7 SWAP2 DUP2 MSTORE PUSH1 0x20 ADD SWAP1 JUMP JUMPDEST PUSH1 0x40 MLOAD DUP1 SWAP2 SUB SWAP1 LOG4 SWAP3 SWAP2 POP POP JUMP JUMPDEST PUSH1 0x4 SLOAD PUSH1 0x1 PUSH1 0x1 PUSH1 0xA0 SHL SUB AND CALLER EQ PUSH2 0xB16 JUMPI PUSH1 0x40 MLOAD PUSH3 0x461BCD PUSH1 0xE5 SHL DUP2 MSTORE PUSH1 0x20 PUSH1 0x4 DUP3 ADD MSTORE PUSH1 0x14 PUSH1 0x24 DUP3 ADD MSTORE PUSH20 0x13DB9B1E481BDC9858DB194818D85B8818D85B1B PUSH1 0x62 SHL PUSH1 0x44 DUP3 ADD MSTORE PUSH1 0x64 ADD PUSH2 0x58B JUMP JUMPDEST PUSH1 0x3 SLOAD DUP4 LT PUSH2 0xB60 JUMPI PUSH1 0x40 MLOAD PUSH3 0x461BCD PUSH1 0xE5 SHL DUP2 MSTORE PUSH1 0x20 PUSH1 0x4 DUP3 ADD MSTORE PUSH1 0x16 PUSH1 0x24 DUP3 ADD MSTORE PUSH22 0x14995C5D595CDD08191BD95CC81B9BDD08195E1A5CDD PUSH1 0x52 SHL PUSH1 0x44 DUP3 ADD MSTORE PUSH1 0x64 ADD PUSH2 0x58B JUMP JUMPDEST PUSH1 0x0 DUP4 DUP2 MSTORE PUSH1 0x1 PUSH1 0x20 MSTORE PUSH1 0x40 SWAP1 KECCAK256 PUSH1 0x3 ADD SLOAD PUSH1 0xFF AND ISZERO PUSH2 0xBB5 JUMPI PUSH1 0x40 MLOAD PUSH3 0x461BCD PUSH1 0xE5 SHL DUP2 MSTORE PUSH1 0x20 PUSH1 0x4 DUP3 ADD MSTORE PUSH1 0x10 PUSH1 0x24 DUP3 ADD MSTORE PUSH16 0x105B1C9958591E481C995CDBDB1D9959 PUSH1 0x82 SHL PUSH1 0x44 DUP3 ADD MSTORE PUSH1 0x64 ADD PUSH2 0x58B JUMP JUMPDEST PUSH1 0x0 DUP4 DUP2 MSTORE PUSH1 0x1 PUSH1 0x20 DUP2 SWAP1 MSTORE PUSH1 0x40 SWAP1 SWAP2 KECCAK256 PUSH1 0x3 DUP2 ADD DUP1 SLOAD PUSH2 0xFFFF NOT AND PUSH2 0x100 DUP7 ISZERO ISZERO MUL OR SWAP1 SWAP3 OR SWAP1 SWAP2 SSTORE PUSH1 0x4 DUP2 ADD PUSH2 0xBED DUP4 DUP3 PUSH2 0x12D5 JUMP JUMPDEST POP PUSH1 0x5 DUP2 ADD DUP1 SLOAD PUSH1 0x1 PUSH1 0x1 PUSH1 0xA0 SHL SUB NOT AND CALLER OR SWAP1 SSTORE TIMESTAMP PUSH1 0x6 DUP3 ADD SSTORE PUSH1 0x0 SLOAD PUSH1 0x1 DUP3 ADD SLOAD PUSH1 0x40 MLOAD PUSH4 0x18115C0D PUSH1 0xE2 SHL DUP2 MSTORE PUSH1 0x1 PUSH1 0x1 PUSH1 0xA0 SHL SUB SWAP3 SWAP1 SWAP3 AND SWAP2 PUSH4 0x60457034 SWAP2 PUSH2 0xC49 SWAP2 DUP8 SWAP1 PUSH1 0x4 ADD SWAP2 DUP3 MSTORE ISZERO ISZERO PUSH1 0x20 DUP3 ADD MSTORE PUSH1 0x40 ADD SWAP1 JUMP JUMPDEST PUSH1 0x0 PUSH1 0x40 MLOAD DUP1 DUP4 SUB DUP2 PUSH1 0x0 DUP8 DUP1 EXTCODESIZE ISZERO DUP1 ISZERO PUSH2 0xC63 JUMPI PUSH1 0x0 DUP1 REVERT JUMPDEST POP GAS CALL ISZERO DUP1 ISZERO PUSH2 0xC77 JUMPI RETURNDATASIZE PUSH1 0x0 DUP1 RETURNDATACOPY RETURNDATASIZE PUSH1 0x0 REVERT JUMPDEST POP POP POP POP DUP1 PUSH1 0x1 ADD SLOAD DUP5 PUSH32 0x30DA1DD8D5CA1290F0B798CFDB1785529E85E28A14BD692A28FE81103CCBB78E DUP6 DUP6 CALLER TIMESTAMP PUSH1 0x40 MLOAD PUSH2 0xCB6 SWAP5 SWAP4 SWAP3 SWAP2 SWAP1 PUSH2 0x13BC JUMP JUMPDEST PUSH1 0x40 MLOAD DUP1 SWAP2 SUB SWAP1 LOG3 POP POP POP POP JUMP JUMPDEST PUSH2 0xCCD DUP3 PUSH2 0x410 JUMP JUMPDEST PUSH2 0xCD6 DUP2 PUSH2 0xD73 JUMP JUMPDEST PUSH2 0x44E DUP4 DUP4 PUSH2 0xE25 JUMP JUMPDEST PUSH1 0x0 DUP2 DUP2 MSTORE PUSH1 0x2 PUSH1 0x20 SWAP1 DUP2 MSTORE PUSH1 0x40 SWAP2 DUP3 SWAP1 KECCAK256 DUP1 SLOAD DUP4 MLOAD DUP2 DUP5 MUL DUP2 ADD DUP5 ADD SWAP1 SWAP5 MSTORE DUP1 DUP5 MSTORE PUSH1 0x60 SWAP4 SWAP3 DUP4 ADD DUP3 DUP3 DUP1 ISZERO PUSH2 0xD36 JUMPI PUSH1 0x20 MUL DUP3 ADD SWAP2 SWAP1 PUSH1 0x0 MSTORE PUSH1 0x20 PUSH1 0x0 KECCAK256 SWAP1 JUMPDEST DUP2 SLOAD DUP2 MSTORE PUSH1 0x20 ADD SWAP1 PUSH1 0x1 ADD SWAP1 DUP1 DUP4 GT PUSH2 0xD22 JUMPI JUMPDEST POP POP POP POP POP SWAP1 POP SWAP2 SWAP1 POP JUMP JUMPDEST PUSH1 0x2 PUSH1 0x20 MSTORE DUP2 PUSH1 0x0 MSTORE PUSH1 0x40 PUSH1 0x0 KECCAK256 DUP2 DUP2 SLOAD DUP2 LT PUSH2 0xD5E JUMPI PUSH1 0x0 DUP1 REVERT JUMPDEST SWAP1 PUSH1 0x0 MSTORE PUSH1 0x20 PUSH1 0x0 KECCAK256 ADD PUSH1 0x0 SWAP2 POP SWAP2 POP POP SLOAD DUP2 JUMP JUMPDEST PUSH2 0xD7D DUP2 CALLER PUSH2 0xED4 JUMP JUMPDEST POP JUMP JUMPDEST PUSH1 0x0 PUSH1 0x0 DUP1 MLOAD PUSH1 0x20 PUSH2 0x13F4 DUP4 CODECOPY DUP2 MLOAD SWAP2 MSTORE PUSH2 0xD9B DUP5 DUP5 PUSH2 0x8D4 JUMP JUMPDEST PUSH2 0xE1B JUMPI PUSH1 0x0 DUP5 DUP2 MSTORE PUSH1 0x20 DUP3 DUP2 MSTORE PUSH1 0x40 DUP1 DUP4 KECCAK256 PUSH1 0x1 PUSH1 0x1 PUSH1 0xA0 SHL SUB DUP8 AND DUP5 MSTORE SWAP1 SWAP2 MSTORE SWAP1 KECCAK256 DUP1 SLOAD PUSH1 0xFF NOT AND PUSH1 0x1 OR SWAP1 SSTORE PUSH2 0xDD1 CALLER SWAP1 JUMP JUMPDEST PUSH1 0x1 PUSH1 0x1 PUSH1 0xA0 SHL SUB AND DUP4 PUSH1 0x1 PUSH1 0x1 PUSH1 0xA0 SHL SUB AND DUP6 PUSH32 0x2F8788117E7EFF1D82E926EC794901D17C78024A50270940304540A733656F0D PUSH1 0x40 MLOAD PUSH1 0x40 MLOAD DUP1 SWAP2 SUB SWAP1 LOG4 PUSH1 0x1 SWAP2 POP POP PUSH2 0x32D JUMP JUMPDEST PUSH1 0x0 SWAP2 POP POP PUSH2 0x32D JUMP JUMPDEST PUSH1 0x0 PUSH1 0x0 DUP1 MLOAD PUSH1 0x20 PUSH2 0x13F4 DUP4 CODECOPY DUP2 MLOAD SWAP2 MSTORE PUSH2 0xE40 DUP5 DUP5 PUSH2 0x8D4 JUMP JUMPDEST ISZERO PUSH2 0xE1B JUMPI PUSH1 0x0 DUP5 DUP2 MSTORE PUSH1 0x20 DUP3 DUP2 MSTORE PUSH1 0x40 DUP1 DUP4 KECCAK256 PUSH1 0x1 PUSH1 0x1 PUSH1 0xA0 SHL SUB DUP8 AND DUP1 DUP6 MSTORE SWAP3 MSTORE DUP1 DUP4 KECCAK256 DUP1 SLOAD PUSH1 0xFF NOT AND SWAP1 SSTORE MLOAD CALLER SWAP3 DUP8 SWAP2 PUSH32 0xF6391F5C32D9C69D2A47EA670B442974B53935D1EDC7FD64EB21E047A839171B SWAP2 SWAP1 LOG4 PUSH1 0x1 SWAP2 POP POP PUSH2 0x32D JUMP JUMPDEST PUSH1 0x0 DUP1 PUSH32 0xF0C57E16840DF040F15088DC2F81FE391C3923BEC73E23A9662EFC9C229C6A00 PUSH2 0x32D JUMP JUMPDEST PUSH2 0xED2 PUSH2 0xF11 JUMP JUMPDEST JUMP JUMPDEST PUSH2 0xEDE DUP3 DUP3 PUSH2 0x8D4 JUMP JUMPDEST PUSH2 0xF0D JUMPI PUSH1 0x40 MLOAD PUSH4 0xE2517D3F PUSH1 0xE0 SHL DUP2 MSTORE PUSH1 0x1 PUSH1 0x1 PUSH1 0xA0 SHL SUB DUP3 AND PUSH1 0x4 DUP3 ADD MSTORE PUSH1 0x24 DUP2 ADD DUP4 SWAP1 MSTORE PUSH1 0x44 ADD PUSH2 0x58B JUMP JUMPDEST POP POP JUMP JUMPDEST PUSH2 0xF19 PUSH2 0xF36 JUMP JUMPDEST PUSH2 0xED2 JUMPI PUSH1 0x40 MLOAD PUSH4 0x1AFCD79F PUSH1 0xE3 SHL DUP2 MSTORE PUSH1 0x4 ADD PUSH1 0x40 MLOAD DUP1 SWAP2 SUB SWAP1 REVERT JUMPDEST PUSH1 0x0 PUSH2 0xF40 PUSH2 0xEA1 JUMP JUMPDEST SLOAD PUSH1 0x1 PUSH1 0x40 SHL SWAP1 DIV PUSH1 0xFF AND SWAP2 SWAP1 POP JUMP JUMPDEST PUSH1 0x0 PUSH1 0x20 DUP3 DUP5 SUB SLT ISZERO PUSH2 0xF62 JUMPI PUSH1 0x0 DUP1 REVERT JUMPDEST DUP2 CALLDATALOAD PUSH1 0x1 PUSH1 0x1 PUSH1 0xE0 SHL SUB NOT DUP2 AND DUP2 EQ PUSH2 0xF7A JUMPI PUSH1 0x0 DUP1 REVERT JUMPDEST SWAP4 SWAP3 POP POP POP JUMP JUMPDEST PUSH1 0x0 PUSH1 0x20 DUP3 DUP5 SUB SLT ISZERO PUSH2 0xF93 JUMPI PUSH1 0x0 DUP1 REVERT JUMPDEST POP CALLDATALOAD SWAP2 SWAP1 POP JUMP JUMPDEST PUSH1 0x0 DUP2 MLOAD DUP1 DUP5 MSTORE PUSH1 0x0 JUMPDEST DUP2 DUP2 LT ISZERO PUSH2 0xFC0 JUMPI PUSH1 0x20 DUP2 DUP6 ADD DUP2 ADD MLOAD DUP7 DUP4 ADD DUP3 ADD MSTORE ADD PUSH2 0xFA4 JUMP JUMPDEST POP PUSH1 0x0 PUSH1 0x20 DUP3 DUP7 ADD ADD MSTORE PUSH1 0x20 PUSH1 0x1F NOT PUSH1 0x1F DUP4 ADD AND DUP6 ADD ADD SWAP2 POP POP SWAP3 SWAP2 POP POP JUMP JUMPDEST DUP6 ISZERO ISZERO DUP2 MSTORE DUP5 ISZERO ISZERO PUSH1 0x20 DUP3 ADD MSTORE DUP4 PUSH1 0x40 DUP3 ADD MSTORE DUP3 PUSH1 0x60 DUP3 ADD MSTORE PUSH1 0xA0 PUSH1 0x80 DUP3 ADD MSTORE PUSH1 0x0 PUSH2 0x100F PUSH1 0xA0 DUP4 ADD DUP5 PUSH2 0xF9A JUMP JUMPDEST SWAP8 SWAP7 POP POP POP POP POP POP POP JUMP JUMPDEST DUP1 CALLDATALOAD PUSH1 0x1 PUSH1 0x1 PUSH1 0xA0 SHL SUB DUP2 AND DUP2 EQ PUSH2 0x1031 JUMPI PUSH1 0x0 DUP1 REVERT JUMPDEST SWAP2 SWAP1 POP JUMP JUMPDEST PUSH1 0x0 DUP1 PUSH1 0x40 DUP4 DUP6 SUB SLT ISZERO PUSH2 0x1049 JUMPI PUSH1 0x0 DUP1 REVERT JUMPDEST DUP3 CALLDATALOAD SWAP2 POP PUSH2 0x1059 PUSH1 0x20 DUP5 ADD PUSH2 0x101A JUMP JUMPDEST SWAP1 POP SWAP3 POP SWAP3 SWAP1 POP JUMP JUMPDEST PUSH1 0x0 DUP1 PUSH1 0x40 DUP4 DUP6 SUB SLT ISZERO PUSH2 0x1075 JUMPI PUSH1 0x0 DUP1 REVERT JUMPDEST PUSH2 0x107E DUP4 PUSH2 0x101A JUMP JUMPDEST SWAP2 POP PUSH2 0x1059 PUSH1 0x20 DUP5 ADD PUSH2 0x101A JUMP JUMPDEST PUSH1 0x0 PUSH1 0x20 DUP3 DUP5 SUB SLT ISZERO PUSH2 0x109E JUMPI PUSH1 0x0 DUP1 REVERT JUMPDEST PUSH2 0xF7A DUP3 PUSH2 0x101A JUMP JUMPDEST PUSH1 0x0 PUSH2 0x100 PUSH1 0x1 DUP1 PUSH1 0xA0 SHL SUB DUP1 DUP13 AND DUP5 MSTORE DUP11 PUSH1 0x20 DUP6 ADD MSTORE DUP10 PUSH1 0x40 DUP6 ADD MSTORE DUP9 ISZERO ISZERO PUSH1 0x60 DUP6 ADD MSTORE DUP8 ISZERO ISZERO PUSH1 0x80 DUP6 ADD MSTORE DUP2 PUSH1 0xA0 DUP6 ADD MSTORE PUSH2 0x10E6 DUP3 DUP6 ADD DUP9 PUSH2 0xF9A JUMP JUMPDEST SWAP6 AND PUSH1 0xC0 DUP5 ADD MSTORE POP POP PUSH1 0xE0 ADD MSTORE SWAP7 SWAP6 POP POP POP POP POP POP JUMP JUMPDEST PUSH4 0x4E487B71 PUSH1 0xE0 SHL PUSH1 0x0 MSTORE PUSH1 0x41 PUSH1 0x4 MSTORE PUSH1 0x24 PUSH1 0x0 REVERT JUMPDEST PUSH1 0x0 DUP1 PUSH1 0x0 PUSH1 0x60 DUP5 DUP7 SUB SLT ISZERO PUSH2 0x1128 JUMPI PUSH1 0x0 DUP1 REVERT JUMPDEST DUP4 CALLDATALOAD SWAP3 POP PUSH1 0x20 DUP5 ADD CALLDATALOAD DUP1 ISZERO ISZERO DUP2 EQ PUSH2 0x113F JUMPI PUSH1 0x0 DUP1 REVERT JUMPDEST SWAP2 POP PUSH1 0x40 DUP5 ADD CALLDATALOAD PUSH8 0xFFFFFFFFFFFFFFFF DUP1 DUP3 GT ISZERO PUSH2 0x115C JUMPI PUSH1 0x0 DUP1 REVERT JUMPDEST DUP2 DUP7 ADD SWAP2 POP DUP7 PUSH1 0x1F DUP4 ADD SLT PUSH2 0x1170 JUMPI PUSH1 0x0 DUP1 REVERT JUMPDEST DUP2 CALLDATALOAD DUP2 DUP2 GT ISZERO PUSH2 0x1182 JUMPI PUSH2 0x1182 PUSH2 0x10FD JUMP JUMPDEST PUSH1 0x40 MLOAD PUSH1 0x1F DUP3 ADD PUSH1 0x1F NOT SWAP1 DUP2 AND PUSH1 0x3F ADD AND DUP2 ADD SWAP1 DUP4 DUP3 GT DUP2 DUP4 LT OR ISZERO PUSH2 0x11AA JUMPI PUSH2 0x11AA PUSH2 0x10FD JUMP JUMPDEST DUP2 PUSH1 0x40 MSTORE DUP3 DUP2 MSTORE DUP10 PUSH1 0x20 DUP5 DUP8 ADD ADD GT ISZERO PUSH2 0x11C3 JUMPI PUSH1 0x0 DUP1 REVERT JUMPDEST DUP3 PUSH1 0x20 DUP7 ADD PUSH1 0x20 DUP4 ADD CALLDATACOPY PUSH1 0x0 PUSH1 0x20 DUP5 DUP4 ADD ADD MSTORE DUP1 SWAP6 POP POP POP POP POP POP SWAP3 POP SWAP3 POP SWAP3 JUMP JUMPDEST PUSH1 0x20 DUP1 DUP3 MSTORE DUP3 MLOAD DUP3 DUP3 ADD DUP2 SWAP1 MSTORE PUSH1 0x0 SWAP2 SWAP1 DUP5 DUP3 ADD SWAP1 PUSH1 0x40 DUP6 ADD SWAP1 DUP5 JUMPDEST DUP2 DUP2 LT ISZERO PUSH2 0x121D JUMPI DUP4 MLOAD DUP4 MSTORE SWAP3 DUP5 ADD SWAP3 SWAP2 DUP5 ADD SWAP2 PUSH1 0x1 ADD PUSH2 0x1201 JUMP JUMPDEST POP SWAP1 SWAP7 SWAP6 POP POP POP POP POP POP JUMP JUMPDEST PUSH1 0x0 DUP1 PUSH1 0x40 DUP4 DUP6 SUB SLT ISZERO PUSH2 0x123C JUMPI PUSH1 0x0 DUP1 REVERT JUMPDEST POP POP DUP1 CALLDATALOAD SWAP3 PUSH1 0x20 SWAP1 SWAP2 ADD CALLDATALOAD SWAP2 POP JUMP JUMPDEST PUSH1 0x1 DUP2 DUP2 SHR SWAP1 DUP3 AND DUP1 PUSH2 0x125F JUMPI PUSH1 0x7F DUP3 AND SWAP2 POP JUMPDEST PUSH1 0x20 DUP3 LT DUP2 SUB PUSH2 0x127F JUMPI PUSH4 0x4E487B71 PUSH1 0xE0 SHL PUSH1 0x0 MSTORE PUSH1 0x22 PUSH1 0x4 MSTORE PUSH1 0x24 PUSH1 0x0 REVERT JUMPDEST POP SWAP2 SWAP1 POP JUMP JUMPDEST PUSH1 0x1F DUP3 GT ISZERO PUSH2 0x487 JUMPI PUSH1 0x0 DUP2 PUSH1 0x0 MSTORE PUSH1 0x20 PUSH1 0x0 KECCAK256 PUSH1 0x1F DUP6 ADD PUSH1 0x5 SHR DUP2 ADD PUSH1 0x20 DUP7 LT ISZERO PUSH2 0x12AE JUMPI POP DUP1 JUMPDEST PUSH1 0x1F DUP6 ADD PUSH1 0x5 SHR DUP3 ADD SWAP2 POP JUMPDEST DUP2 DUP2 LT ISZERO PUSH2 0x12CD JUMPI DUP3 DUP2 SSTORE PUSH1 0x1 ADD PUSH2 0x12BA JUMP JUMPDEST POP POP POP POP POP POP JUMP JUMPDEST DUP2 MLOAD PUSH8 0xFFFFFFFFFFFFFFFF DUP2 GT ISZERO PUSH2 0x12EF JUMPI PUSH2 0x12EF PUSH2 0x10FD JUMP JUMPDEST PUSH2 0x1303 DUP2 PUSH2 0x12FD DUP5 SLOAD PUSH2 0x124B JUMP JUMPDEST DUP5 PUSH2 0x1285 JUMP JUMPDEST PUSH1 0x20 DUP1 PUSH1 0x1F DUP4 GT PUSH1 0x1 DUP2 EQ PUSH2 0x1338 JUMPI PUSH1 0x0 DUP5 ISZERO PUSH2 0x1320 JUMPI POP DUP6 DUP4 ADD MLOAD JUMPDEST PUSH1 0x0 NOT PUSH1 0x3 DUP7 SWAP1 SHL SHR NOT AND PUSH1 0x1 DUP6 SWAP1 SHL OR DUP6 SSTORE PUSH2 0x12CD JUMP JUMPDEST PUSH1 0x0 DUP6 DUP2 MSTORE PUSH1 0x20 DUP2 KECCAK256 PUSH1 0x1F NOT DUP7 AND SWAP2 JUMPDEST DUP3 DUP2 LT ISZERO PUSH2 0x1367 JUMPI DUP9 DUP7 ADD MLOAD DUP3 SSTORE SWAP5 DUP5 ADD SWAP5 PUSH1 0x1 SWAP1 SWAP2 ADD SWAP1 DUP5 ADD PUSH2 0x1348 JUMP JUMPDEST POP DUP6 DUP3 LT ISZERO PUSH2 0x1385 JUMPI DUP8 DUP6 ADD MLOAD PUSH1 0x0 NOT PUSH1 0x3 DUP9 SWAP1 SHL PUSH1 0xF8 AND SHR NOT AND DUP2 SSTORE JUMPDEST POP POP POP POP POP PUSH1 0x1 SWAP1 DUP2 SHL ADD SWAP1 SSTORE POP JUMP JUMPDEST PUSH1 0x0 PUSH1 0x1 DUP3 ADD PUSH2 0x13B5 JUMPI PUSH4 0x4E487B71 PUSH1 0xE0 SHL PUSH1 0x0 MSTORE PUSH1 0x11 PUSH1 0x4 MSTORE PUSH1 0x24 PUSH1 0x0 REVERT JUMPDEST POP PUSH1 0x1 ADD SWAP1 JUMP JUMPDEST DUP5 ISZERO ISZERO DUP2 MSTORE PUSH1 0x80 PUSH1 0x20 DUP3 ADD MSTORE PUSH1 0x0 PUSH2 0x13D7 PUSH1 0x80 DUP4 ADD DUP7 PUSH2 0xF9A JUMP JUMPDEST PUSH1 0x1 PUSH1 0x1 PUSH1 0xA0 SHL SUB SWAP5 SWAP1 SWAP5 AND PUSH1 0x40 DUP4 ADD MSTORE POP PUSH1 0x60 ADD MSTORE SWAP3 SWAP2 POP POP JUMP INVALID MUL 0xDD PUSH28 0xC7DEC4DCEEDDA775E58DD541E08A116C6C53815C0BD028192F7B6268 STOP LOG2 PUSH5 0x6970667358 0x22 SLT KECCAK256 MOD GAS 0xF6 0xEB PUSH18 0xBECF78BDF61CF2E91A53F8C73F29DAA4D62 PUSH32 0x46B792EA7F59F11064736F6C6343000818003300000000000000000000000000 "},"methodIdentifiers":{"DEFAULT_ADMIN_ROLE()":"a217fddf","acceptOracle()":"7f2d9575","credentialRequests(bytes32,uint256)":"f954624a","credentialStore()":"b25e7f7e","getCredentialVerifications(bytes32)":"e2008123","getRoleAdmin(bytes32)":"248a9ca3","getVerificationStatus(uint256)":"1d9425ca","grantRole(bytes32,address)":"2f2ff15d","hasRole(bytes32,address)":"91d14854","initialize(address,address)":"485cc955","oracle()":"7dc0d1d0","pendingOracle()":"0607e5bb","proposeNewOracle(address)":"52f3a7be","renounceRole(bytes32,address)":"36568abe","requestVerification(bytes32)":"9a53e829","requests(uint256)":"81d12c58","revokeRole(bytes32,address)":"d547741f","submitVerificationResult(uint256,bool,string)":"bef0bbe3","supportsInterface(bytes4)":"01ffc9a7","totalRequests()":"8aea61dc"}}}}}