{"contracts/CredentialRegistry.sol":{"CredentialRegistry":{"abi":[{"inputs":[{"internalType":"address","name":"_userRegistry","type":"address"}],"stateMutability":"nonpayable","type":"constructor"},{"anonymous":false,"inputs":[{"indexed":true,"internalType":"bytes32","name":"credentialId","type":"bytes32"},{"indexed":true,"internalType":"address","name":"issuer","type":"address"},{"indexed":true,"internalType":"address","name":"holder","type":"address"},{"indexed":false,"internalType":"bytes32","name":"docHash","type":"bytes32"},{"indexed":false,"internalType":"string","name":"ipfsCID","type":"string"},{"indexed":false,"internalType":"uint256","name":"issuedAt","type":"uint256"},{"indexed":false,"internalType":"uint256","name":"expiresAt","type":"uint256"}],"name":"CredentialIssued","type":"event"},{"anonymous":false,"inputs":[{"indexed":true,"internalType":"bytes32","name":"credentialId","type":"bytes32"},{"indexed":true,"internalType":"address","name":"issuer","type":"address"},{"indexed":false,"internalType":"uint256","name":"revokedAt","type":"uint256"}],"name":"CredentialRevoked","type":"event"},{"anonymous":false,"inputs":[{"indexed":true,"internalType":"bytes32","name":"credentialId","type":"bytes32"},{"indexed":false,"internalType":"enum CredentialRegistry.Status","name":"newStatus","type":"uint8"},{"indexed":false,"internalType":"uint256","name":"updatedAt","type":"uint256"}],"name":"CredentialStatusUpdated","type":"event"},{"inputs":[{"internalType":"bytes32","name":"","type":"bytes32"}],"name":"credentials","outputs":[{"internalType":"bytes32","name":"docHash","type":"bytes32"},{"internalType":"string","name":"ipfsCID","type":"string"},{"internalType":"address","name":"issuer","type":"address"},{"internalType":"address","name":"holder","type":"address"},{"internalType":"enum CredentialRegistry.Status","name":"status","type":"uint8"},{"internalType":"uint256","name":"issuedAt","type":"uint256"},{"internalType":"uint256","name":"expiresAt","type":"uint256"},{"internalType":"string","name":"metadataCID","type":"string"}],"stateMutability":"view","type":"function"},{"inputs":[{"internalType":"bytes32","name":"_credentialId","type":"bytes32"}],"name":"getCredential","outputs":[{"components":[{"internalType":"bytes32","name":"docHash","type":"bytes32"},{"internalType":"string","name":"ipfsCID","type":"string"},{"internalType":"address","name":"issuer","type":"address"},{"internalType":"address","name":"holder","type":"address"},{"internalType":"enum CredentialRegistry.Status","name":"status","type":"uint8"},{"internalType":"uint256","name":"issuedAt","type":"uint256"},{"internalType":"uint256","name":"expiresAt","type":"uint256"},{"internalType":"string","name":"metadataCID","type":"string"}],"internalType":"struct CredentialRegistry.Credential","name":"","type":"tuple"}],"stateMutability":"view","type":"function"},{"inputs":[{"internalType":"address","name":"_holder","type":"address"}],"name":"getHolderCredentials","outputs":[{"internalType":"bytes32[]","name":"","type":"bytes32[]"}],"stateMutability":"view","type":"function"},{"inputs":[{"internalType":"address","name":"_issuer","type":"address"}],"name":"getIssuerCredentials","outputs":[{"internalType":"bytes32[]","name":"","type":"bytes32[]"}],"stateMutability":"view","type":"function"},{"inputs":[{"internalType":"address","name":"","type":"address"},{"internalType":"uint256","name":"","type":"uint256"}],"name":"holderCredentials","outputs":[{"internalType":"bytes32","name":"","type":"bytes32"}],"stateMutability":"view","type":"function"},{"inputs":[{"internalType":"bytes32","name":"_credentialId","type":"bytes32"}],"name":"isCredentialValid","outputs":[{"internalType":"bool","name":"","type":"bool"}],"stateMutability":"view","type":"function"},{"inputs":[{"internalType":"bytes32","name":"_docHash","type":"bytes32"},{"internalType":"string","name":"_ipfsCID","type":"string"},{"internalType":"address","name":"_holder","type":"address"},{"internalType":"uint256","name":"_expiresAt","type":"uint256"},{"internalType":"string","name":"_metadataCID","type":"string"}],"name":"issueCredential","outputs":[{"internalType":"bytes32","name":"","type":"bytes32"}],"stateMutability":"nonpayable","type":"function"},{"inputs":[{"internalType":"address","name":"","type":"address"},{"internalType":"uint256","name":"","type":"uint256"}],"name":"issuerCredentials","outputs":[{"internalType":"bytes32","name":"","type":"bytes32"}],"stateMutability":"view","type":"function"},{"inputs":[{"internalType":"bytes32","name":"_credentialId","type":"bytes32"}],"name":"revokeCredential","outputs":[],"stateMutability":"nonpayable","type":"function"},{"inputs":[],"name":"totalCredentials","outputs":[{"internalType":"uint256","name":"","type":"uint256"}],"stateMutability":"view","type":"function"},{"inputs":[{"internalType":"bytes32","name":"_credentialId","type":"bytes32"}],"name":"updateExpired","outputs":[],"stateMutability":"nonpayable","type":"function"},{"inputs":[],"name":"userRegistry","outputs":[{"internalType":"contract UserRegistry","name":"","type":"address"}],"stateMutability":"view","type":"function"}],"evm":{"bytecode":{"linkReferences":{},"object":"608060405234801561001057600080fd5b506040516113f43803806113f483398101604081905261002f91610054565b600380546001600160a01b0319166001600160a01b0392909216919091179055610084565b60006020828403121561006657600080fd5b81516001600160a01b038116811461007d57600080fd5b9392505050565b611361806100936000396000f3fe608060405234801561001057600080fd5b50600436106100b45760003560e01c8063797c35c811610071578063797c35c81461017057806389be4336146101855780638d18443214610198578063ca6eec78146101b8578063d1be4883146101cb578063d8202ffb146101eb57600080fd5b80631513d62b146100b95780631abac44b146100d55780631e48169d146100e8578063299d0348146100fb5780635c7460d6146101225780636dc158eb1461014d575b600080fd5b6100c260045481565b6040519081526020015b60405180910390f35b6100c26100e3366004610e08565b6101fe565b6100c26100f6366004610e08565b61022f565b61010e610109366004610e32565b61024b565b6040516100cc989796959493929190610ec9565b600354610135906001600160a01b031681565b6040516001600160a01b0390911681526020016100cc565b61016061015b366004610e32565b6103b3565b60405190151581526020016100cc565b61018361017e366004610e32565b61041f565b005b6100c2610193366004610f7f565b6104cb565b6101ab6101a6366004611016565b6109a7565b6040516100cc9190611038565b6101836101c6366004610e32565b610a13565b6101de6101d9366004610e32565b610b8a565b6040516100cc919061107c565b6101ab6101f9366004611016565b610d82565b6001602052816000526040600020818154811061021a57600080fd5b90600052602060002001600091509150505481565b6002602052816000526040600020818154811061021a57600080fd5b6000602081905290815260409020805460018201805491929161026d9061111f565b80601f01602080910402602001604051908101604052809291908181526020018280546102999061111f565b80156102e65780601f106102bb576101008083540402835291602001916102e6565b820191906000526020600020905b8154815290600101906020018083116102c957829003601f168201915b50505050600283015460038401546004850154600586015460068701805496976001600160a01b03958616979585169650600160a01b90940460ff1694929391926103309061111f565b80601f016020809104026020016040519081016040528092919081815260200182805461035c9061111f565b80156103a95780601f1061037e576101008083540402835291602001916103a9565b820191906000526020600020905b81548152906001019060200180831161038c57829003601f168201915b5050505050905088565b6000818152602081905260408120816003820154600160a01b900460ff1660028111156103e2576103e2610e91565b146103f05750600092915050565b60008160050154118015610408575042816005015411155b156104165750600092915050565b50600192915050565b6000818152602081905260408120906003820154600160a01b900460ff16600281111561044e5761044e610e91565b14801561045f575060008160050154115b801561046f575042816005015411155b156104c75760038101805460ff60a01b1916600160a11b17905560405182907f1989483702270fd50e2145a654f53a70bed9c1988b0e4d4441794e61eb152fba906104be906002904290611159565b60405180910390a25b5050565b60035460405163877b9a6760e01b81523360048201526000916001600160a01b03169063877b9a6790602401602060405180830381865afa158015610514573d6000803e3d6000fd5b505050506040513d601f19601f820116820180604052508101906105389190611174565b6105895760405162461bcd60e51b815260206004820152601e60248201527f43616c6c6572206973206e6f7420616e2061637469766520697373756572000060448201526064015b60405180910390fd5b600354604051636a6bd8cd60e11b81526001600160a01b0387811660048301529091169063d4d7b19a90602401602060405180830381865afa1580156105d3573d6000803e3d6000fd5b505050506040513d601f19601f820116820180604052508101906105f79190611174565b6106435760405162461bcd60e51b815260206004820152601860248201527f486f6c646572206973206e6f74207265676973746572656400000000000000006044820152606401610580565b876106845760405162461bcd60e51b8152602060048201526011602482015270111bd8c81a185cda081c995c5d5a5c9959607a1b6044820152606401610580565b856106c55760405162461bcd60e51b815260206004820152601160248201527012541194c810d251081c995c5d5a5c9959607a1b6044820152606401610580565b6040516bffffffffffffffffffffffff1933606090811b8216602084015287901b1660348201526048810189905242606882015260009060880160408051601f1981840301815291815281516020928301206000818152928390529120600201549091506001600160a01b03161561077f5760405162461bcd60e51b815260206004820152601960248201527f43726564656e7469616c20616c726561647920657869737473000000000000006044820152606401610580565b6040518061010001604052808a815260200189898080601f01602080910402602001604051908101604052809392919081815260200183838082843760009201829052509385525050336020840152506001600160a01b0389166040830152606090910190815260200142815260200186815260200185858080601f0160208091040260200160405190810160405280939291908181526020018383808284376000920182905250939094525050838152602081815260409091208351815590830151909150600182019061085490826111fd565b506040820151600282810180546001600160a01b03199081166001600160a01b03948516179091556060850151600385018054928316919094169081178455608086015193926001600160a81b03199092161790600160a01b9084908111156108bf576108bf610e91565b021790555060a0820151600482015560c0820151600582015560e082015160068201906108ec90826111fd565b505033600090815260016020818152604080842080548085018255908552828520018690556001600160a01b038b16845260028252832080549283018155835282200183905560048054925090610942836112bd565b9190505550856001600160a01b0316336001600160a01b0316827f7e579d2ebb9d8e0f50c6b42937c8bdb09f57621fa9b18ce41bccc14655ccc7dc8c8c8c428c6040516109939594939291906112e4565b60405180910390a498975050505050505050565b6001600160a01b038116600090815260026020908152604091829020805483518184028101840190945280845260609392830182828015610a0757602002820191906000526020600020905b8154815260200190600101908083116109f3575b50505050509050919050565b60008181526020819052604090206002015481906001600160a01b03163314610a7e5760405162461bcd60e51b815260206004820152601760248201527f4f6e6c79206973737565722063616e20706572666f726d0000000000000000006044820152606401610580565b8160008082815260208190526040902060030154600160a01b900460ff166002811115610aad57610aad610e91565b14610af25760405162461bcd60e51b815260206004820152601560248201527443726564656e7469616c206e6f742061637469766560581b6044820152606401610580565b60008381526020818152604091829020600301805460ff60a01b1916600160a01b17905581514281529151339286927f80d4746828447d65eceb938c7f9d85fbeb232fe7819d5209ed452b3940f8904b92918290030190a3827f1989483702270fd50e2145a654f53a70bed9c1988b0e4d4441794e61eb152fba600142604051610b7d929190611159565b60405180910390a2505050565b604080516101008101825260008082526060602083018190529282018190528282018190526080820181905260a0820181905260c082015260e08101919091526000828152602081815260409182902082516101008101909352805483526001810180549192840191610bfc9061111f565b80601f0160208091040260200160405190810160405280929190818152602001828054610c289061111f565b8015610c755780601f10610c4a57610100808354040283529160200191610c75565b820191906000526020600020905b815481529060010190602001808311610c5857829003601f168201915b50505091835250506002828101546001600160a01b03908116602084015260038401549081166040840152606090920191600160a01b900460ff1690811115610cc057610cc0610e91565b6002811115610cd157610cd1610e91565b81526020016004820154815260200160058201548152602001600682018054610cf99061111f565b80601f0160208091040260200160405190810160405280929190818152602001828054610d259061111f565b8015610d725780601f10610d4757610100808354040283529160200191610d72565b820191906000526020600020905b815481529060010190602001808311610d5557829003601f168201915b5050505050815250509050919050565b6001600160a01b038116600090815260016020908152604091829020805483518184028101840190945280845260609392830182828015610a0757602002820191906000526020600020908154815260200190600101908083116109f35750505050509050919050565b80356001600160a01b0381168114610e0357600080fd5b919050565b60008060408385031215610e1b57600080fd5b610e2483610dec565b946020939093013593505050565b600060208284031215610e4457600080fd5b5035919050565b6000815180845260005b81811015610e7157602081850181015186830182015201610e55565b506000602082860101526020601f19601f83011685010191505092915050565b634e487b7160e01b600052602160045260246000fd5b60038110610ec557634e487b7160e01b600052602160045260246000fd5b9052565b60006101008a8352806020840152610ee38184018b610e4b565b6001600160a01b038a81166040860152891660608501529050610f096080840188610ea7565b8560a08401528460c084015282810360e0840152610f278185610e4b565b9b9a5050505050505050505050565b60008083601f840112610f4857600080fd5b50813567ffffffffffffffff811115610f6057600080fd5b602083019150836020828501011115610f7857600080fd5b9250929050565b600080600080600080600060a0888a031215610f9a57600080fd5b87359650602088013567ffffffffffffffff80821115610fb957600080fd5b610fc58b838c01610f36565b9098509650869150610fd960408b01610dec565b955060608a0135945060808a0135915080821115610ff657600080fd5b506110038a828b01610f36565b989b979a50959850939692959293505050565b60006020828403121561102857600080fd5b61103182610dec565b9392505050565b6020808252825182820181905260009190848201906040850190845b8181101561107057835183529284019291840191600101611054565b50909695505050505050565b6020815281516020820152600060208301516101008060408501526110a5610120850183610e4b565b915060018060a01b03604086015116606085015260608501516110d360808601826001600160a01b03169052565b5060808501516110e660a0860182610ea7565b5060a085015160c085015260c085015160e085015260e0850151601f1985840301828601526111158382610e4b565b9695505050505050565b600181811c9082168061113357607f821691505b60208210810361115357634e487b7160e01b600052602260045260246000fd5b50919050565b604081016111678285610ea7565b8260208301529392505050565b60006020828403121561118657600080fd5b8151801515811461103157600080fd5b634e487b7160e01b600052604160045260246000fd5b601f8211156111f8576000816000526020600020601f850160051c810160208610156111d55750805b601f850160051c820191505b818110156111f4578281556001016111e1565b5050505b505050565b815167ffffffffffffffff81111561121757611217611196565b61122b81611225845461111f565b846111ac565b602080601f83116001811461126057600084156112485750858301515b600019600386901b1c1916600185901b1785556111f4565b600085815260208120601f198616915b8281101561128f57888601518255948401946001909101908401611270565b50858210156112ad5787850151600019600388901b60f8161c191681555b5050505050600190811b01905550565b6000600182016112dd57634e487b7160e01b600052601160045260246000fd5b5060010190565b85815260806020820152836080820152838560a0830137600060a08583010152600060a0601f19601f8701168301019050836040830152826060830152969550505050505056fea26469706673582212201925e14bb2b9c265550e254acbf3b9d79d0f332acdeac8fec8ec107d958e4ce964736f6c63430008180033","opcodes":"PUSH1 0x80 PUSH1 0x40 MSTORE CALLVALUE DUP1 ISZERO PUSH2 0x10 JUMPI PUSH1 0x0 DUP1 REVERT JUMPDEST POP PUSH1 0x40 MLOAD PUSH2 0x13F4 CODESIZE SUB DUP1 PUSH2 0x13F4 DUP4 CODECOPY DUP2 ADD PUSH1 0x40 DUP2 SWAP1 MSTORE PUSH2 0x2F SWAP2 PUSH2 0x54 JUMP JUMPDEST PUSH1 0x3 DUP1 SLOAD PUSH1 0x1 PUSH1 0x1 PUSH1 0xA0 SHL SUB NOT AND PUSH1 0x1 PUSH1 0x1 PUSH1 0xA0 SHL SUB SWAP3 SWAP1 SWAP3 AND SWAP2 SWAP1 SWAP2 OR SWAP1 SSTORE PUSH2 0x84 JUMP JUMPDEST PUSH1 0x0 PUSH1 0x20 DUP3 DUP5 SUB SLT ISZERO PUSH2 0x66 JUMPI PUSH1 0x0 DUP1 REVERT JUMPDEST DUP2 MLOAD PUSH1 0x1 PUSH1 0x1 PUSH1 0xA0 SHL SUB DUP2 AND DUP2 EQ PUSH2 0x7D JUMPI PUSH1 0x0 DUP1 REVERT JUMPDEST SWAP4 SWAP3 POP POP POP JUMP JUMPDEST PUSH2 0x1361 DUP1 PUSH2 0x93 PUSH1 0x0 CODECOPY PUSH1 0x0 RETURN INVALID PUSH1 0x80 PUSH1 0x40 MSTORE CALLVALUE DUP1 ISZERO PUSH2 0x10 JUMPI PUSH1 0x0 DUP1 REVERT JUMPDEST POP PUSH1 0x4 CALLDATASIZE LT PUSH2 0xB4 JUMPI PUSH1 0x0 CALLDATALOAD PUSH1 0xE0 SHR DUP1 PUSH4 0x797C35C8 GT PUSH2 0x71 JUMPI DUP1 PUSH4 0x797C35C8 EQ PUSH2 0x170 JUMPI DUP1 PUSH4 0x89BE4336 EQ PUSH2 0x185 JUMPI DUP1 PUSH4 0x8D184432 EQ PUSH2 0x198 JUMPI DUP1 PUSH4 0xCA6EEC78 EQ PUSH2 0x1B8 JUMPI DUP1 PUSH4 0xD1BE4883 EQ PUSH2 0x1CB JUMPI DUP1 PUSH4 0xD8202FFB EQ PUSH2 0x1EB JUMPI PUSH1 0x0 DUP1 REVERT JUMPDEST DUP1 PUSH4 0x1513D62B EQ PUSH2 0xB9 JUMPI DUP1 PUSH4 0x1ABAC44B EQ PUSH2 0xD5 JUMPI DUP1 PUSH4 0x1E48169D EQ PUSH2 0xE8 JUMPI DUP1 PUSH4 0x299D0348 EQ PUSH2 0xFB JUMPI DUP1 PUSH4 0x5C7460D6 EQ PUSH2 0x122 JUMPI DUP1 PUSH4 0x6DC158EB EQ PUSH2 0x14D JUMPI JUMPDEST PUSH1 0x0 DUP1 REVERT JUMPDEST PUSH2 0xC2 PUSH1 0x4 SLOAD DUP2 JUMP JUMPDEST PUSH1 0x40 MLOAD SWAP1 DUP2 MSTORE PUSH1 0x20 ADD JUMPDEST PUSH1 0x40 MLOAD DUP1 SWAP2 SUB SWAP1 RETURN JUMPDEST PUSH2 0xC2 PUSH2 0xE3 CALLDATASIZE PUSH1 0x4 PUSH2 0xE08 JUMP JUMPDEST PUSH2 0x1FE JUMP JUMPDEST PUSH2 0xC2 PUSH2 0xF6 CALLDATASIZE PUSH1 0x4 PUSH2 0xE08 JUMP JUMPDEST PUSH2 0x22F JUMP JUMPDEST PUSH2 0x10E PUSH2 0x109 CALLDATASIZE PUSH1 0x4 PUSH2 0xE32 JUMP JUMPDEST PUSH2 0x24B JUMP JUMPDEST PUSH1 0x40 MLOAD PUSH2 0xCC SWAP9 SWAP8 SWAP7 SWAP6 SWAP5 SWAP4 SWAP3 SWAP2 SWAP1 PUSH2 0xEC9 JUMP JUMPDEST PUSH1 0x3 SLOAD PUSH2 0x135 SWAP1 PUSH1 0x1 PUSH1 0x1 PUSH1 0xA0 SHL SUB AND DUP2 JUMP JUMPDEST PUSH1 0x40 MLOAD PUSH1 0x1 PUSH1 0x1 PUSH1 0xA0 SHL SUB SWAP1 SWAP2 AND DUP2 MSTORE PUSH1 0x20 ADD PUSH2 0xCC JUMP JUMPDEST PUSH2 0x160 PUSH2 0x15B CALLDATASIZE PUSH1 0x4 PUSH2 0xE32 JUMP JUMPDEST PUSH2 0x3B3 JUMP JUMPDEST PUSH1 0x40 MLOAD SWAP1 ISZERO ISZERO DUP2 MSTORE PUSH1 0x20 ADD PUSH2 0xCC JUMP JUMPDEST PUSH2 0x183 PUSH2 0x17E CALLDATASIZE PUSH1 0x4 PUSH2 0xE32 JUMP JUMPDEST PUSH2 0x41F JUMP JUMPDEST STOP JUMPDEST PUSH2 0xC2 PUSH2 0x193 CALLDATASIZE PUSH1 0x4 PUSH2 0xF7F JUMP JUMPDEST PUSH2 0x4CB JUMP JUMPDEST PUSH2 0x1AB PUSH2 0x1A6 CALLDATASIZE PUSH1 0x4 PUSH2 0x1016 JUMP JUMPDEST PUSH2 0x9A7 JUMP JUMPDEST PUSH1 0x40 MLOAD PUSH2 0xCC SWAP2 SWAP1 PUSH2 0x1038 JUMP JUMPDEST PUSH2 0x183 PUSH2 0x1C6 CALLDATASIZE PUSH1 0x4 PUSH2 0xE32 JUMP JUMPDEST PUSH2 0xA13 JUMP JUMPDEST PUSH2 0x1DE PUSH2 0x1D9 CALLDATASIZE PUSH1 0x4 PUSH2 0xE32 JUMP JUMPDEST PUSH2 0xB8A JUMP JUMPDEST PUSH1 0x40 MLOAD PUSH2 0xCC SWAP2 SWAP1 PUSH2 0x107C JUMP JUMPDEST PUSH2 0x1AB PUSH2 0x1F9 CALLDATASIZE PUSH1 0x4 PUSH2 0x1016 JUMP JUMPDEST PUSH2 0xD82 JUMP JUMPDEST PUSH1 0x1 PUSH1 0x20 MSTORE DUP2 PUSH1 0x0 MSTORE PUSH1 0x40 PUSH1 0x0 KECCAK256 DUP2 DUP2 SLOAD DUP2 LT PUSH2 0x21A JUMPI PUSH1 0x0 DUP1 REVERT JUMPDEST SWAP1 PUSH1 0x0 MSTORE PUSH1 0x20 PUSH1 0x0 KECCAK256 ADD PUSH1 0x0 SWAP2 POP SWAP2 POP POP SLOAD DUP2 JUMP JUMPDEST PUSH1 0x2 PUSH1 0x20 MSTORE DUP2 PUSH1 0x0 MSTORE PUSH1 0x40 PUSH1 0x0 KECCAK256 DUP2 DUP2 SLOAD DUP2 LT PUSH2 0x21A JUMPI PUSH1 0x0 DUP1 REVERT JUMPDEST PUSH1 0x0 PUSH1 0x20 DUP2 SWAP1 MSTORE SWAP1 DUP2 MSTORE PUSH1 0x40 SWAP1 KECCAK256 DUP1 SLOAD PUSH1 0x1 DUP3 ADD DUP1 SLOAD SWAP2 SWAP3 SWAP2 PUSH2 0x26D SWAP1 PUSH2 0x111F JUMP JUMPDEST DUP1 PUSH1 0x1F ADD PUSH1 0x20 DUP1 SWAP2 DIV MUL PUSH1 0x20 ADD PUSH1 0x40 MLOAD SWAP1 DUP2 ADD PUSH1 0x40 MSTORE DUP1 SWAP3 SWAP2 SWAP1 DUP2 DUP2 MSTORE PUSH1 0x20 ADD DUP3 DUP1 SLOAD PUSH2 0x299 SWAP1 PUSH2 0x111F JUMP JUMPDEST DUP1 ISZERO PUSH2 0x2E6 JUMPI DUP1 PUSH1 0x1F LT PUSH2 0x2BB JUMPI PUSH2 0x100 DUP1 DUP4 SLOAD DIV MUL DUP4 MSTORE SWAP2 PUSH1 0x20 ADD SWAP2 PUSH2 0x2E6 JUMP JUMPDEST DUP3 ADD SWAP2 SWAP1 PUSH1 0x0 MSTORE PUSH1 0x20 PUSH1 0x0 KECCAK256 SWAP1 JUMPDEST DUP2 SLOAD DUP2 MSTORE SWAP1 PUSH1 0x1 ADD SWAP1 PUSH1 0x20 ADD DUP1 DUP4 GT PUSH2 0x2C9 JUMPI DUP3 SWAP1 SUB PUSH1 0x1F AND DUP3 ADD SWAP2 JUMPDEST POP POP POP POP PUSH1 0x2 DUP4 ADD SLOAD PUSH1 0x3 DUP5 ADD SLOAD PUSH1 0x4 DUP6 ADD SLOAD PUSH1 0x5 DUP7 ADD SLOAD PUSH1 0x6 DUP8 ADD DUP1 SLOAD SWAP7 SWAP8 PUSH1 0x1 PUSH1 0x1 PUSH1 0xA0 SHL SUB SWAP6 DUP7 AND SWAP8 SWAP6 DUP6 AND SWAP7 POP PUSH1 0x1 PUSH1 0xA0 SHL SWAP1 SWAP5 DIV PUSH1 0xFF AND SWAP5 SWAP3 SWAP4 SWAP2 SWAP3 PUSH2 0x330 SWAP1 PUSH2 0x111F JUMP JUMPDEST DUP1 PUSH1 0x1F ADD PUSH1 0x20 DUP1 SWAP2 DIV MUL PUSH1 0x20 ADD PUSH1 0x40 MLOAD SWAP1 DUP2 ADD PUSH1 0x40 MSTORE DUP1 SWAP3 SWAP2 SWAP1 DUP2 DUP2 MSTORE PUSH1 0x20 ADD DUP3 DUP1 SLOAD PUSH2 0x35C SWAP1 PUSH2 0x111F JUMP JUMPDEST DUP1 ISZERO PUSH2 0x3A9 JUMPI DUP1 PUSH1 0x1F LT PUSH2 0x37E JUMPI PUSH2 0x100 DUP1 DUP4 SLOAD DIV MUL DUP4 MSTORE SWAP2 PUSH1 0x20 ADD SWAP2 PUSH2 0x3A9 JUMP JUMPDEST DUP3 ADD SWAP2 SWAP1 PUSH1 0x0 MSTORE PUSH1 0x20 PUSH1 0x0 KECCAK256 SWAP1 JUMPDEST DUP2 SLOAD DUP2 MSTORE SWAP1 PUSH1 0x1 ADD SWAP1 PUSH1 0x20 ADD DUP1 DUP4 GT PUSH2 0x38C JUMPI DUP3 SWAP1 SUB PUSH1 0x1F AND DUP3 ADD SWAP2 JUMPDEST POP POP POP POP POP SWAP1 POP DUP9 JUMP JUMPDEST PUSH1 0x0 DUP2 DUP2 MSTORE PUSH1 0x20 DUP2 SWAP1 MSTORE PUSH1 0x40 DUP2 KECCAK256 DUP2 PUSH1 0x3 DUP3 ADD SLOAD PUSH1 0x1 PUSH1 0xA0 SHL SWAP1 DIV PUSH1 0xFF AND PUSH1 0x2 DUP2 GT ISZERO PUSH2 0x3E2 JUMPI PUSH2 0x3E2 PUSH2 0xE91 JUMP JUMPDEST EQ PUSH2 0x3F0 JUMPI POP PUSH1 0x0 SWAP3 SWAP2 POP POP JUMP JUMPDEST PUSH1 0x0 DUP2 PUSH1 0x5 ADD SLOAD GT DUP1 ISZERO PUSH2 0x408 JUMPI POP TIMESTAMP DUP2 PUSH1 0x5 ADD SLOAD GT ISZERO JUMPDEST ISZERO PUSH2 0x416 JUMPI POP PUSH1 0x0 SWAP3 SWAP2 POP POP JUMP JUMPDEST POP PUSH1 0x1 SWAP3 SWAP2 POP POP JUMP JUMPDEST PUSH1 0x0 DUP2 DUP2 MSTORE PUSH1 0x20 DUP2 SWAP1 MSTORE PUSH1 0x40 DUP2 KECCAK256 SWAP1 PUSH1 0x3 DUP3 ADD SLOAD PUSH1 0x1 PUSH1 0xA0 SHL SWAP1 DIV PUSH1 0xFF AND PUSH1 0x2 DUP2 GT ISZERO PUSH2 0x44E JUMPI PUSH2 0x44E PUSH2 0xE91 JUMP JUMPDEST EQ DUP1 ISZERO PUSH2 0x45F JUMPI POP PUSH1 0x0 DUP2 PUSH1 0x5 ADD SLOAD GT JUMPDEST DUP1 ISZERO PUSH2 0x46F JUMPI POP TIMESTAMP DUP2 PUSH1 0x5 ADD SLOAD GT ISZERO JUMPDEST ISZERO PUSH2 0x4C7 JUMPI PUSH1 0x3 DUP2 ADD DUP1 SLOAD PUSH1 0xFF PUSH1 0xA0 SHL NOT AND PUSH1 0x1 PUSH1 0xA1 SHL OR SWAP1 SSTORE PUSH1 0x40 MLOAD DUP3 SWAP1 PUSH32 0x1989483702270FD50E2145A654F53A70BED9C1988B0E4D4441794E61EB152FBA SWAP1 PUSH2 0x4BE SWAP1 PUSH1 0x2 SWAP1 TIMESTAMP SWAP1 PUSH2 0x1159 JUMP JUMPDEST PUSH1 0x40 MLOAD DUP1 SWAP2 SUB SWAP1 LOG2 JUMPDEST POP POP JUMP JUMPDEST PUSH1 0x3 SLOAD PUSH1 0x40 MLOAD PUSH4 0x877B9A67 PUSH1 0xE0 SHL DUP2 MSTORE CALLER PUSH1 0x4 DUP3 ADD MSTORE PUSH1 0x0 SWAP2 PUSH1 0x1 PUSH1 0x1 PUSH1 0xA0 SHL SUB AND SWAP1 PUSH4 0x877B9A67 SWAP1 PUSH1 0x24 ADD PUSH1 0x20 PUSH1 0x40 MLOAD DUP1 DUP4 SUB DUP2 DUP7 GAS STATICCALL ISZERO DUP1 ISZERO PUSH2 0x514 JUMPI RETURNDATASIZE PUSH1 0x0 DUP1 RETURNDATACOPY RETURNDATASIZE PUSH1 0x0 REVERT JUMPDEST POP POP POP POP PUSH1 0x40 MLOAD RETURNDATASIZE PUSH1 0x1F NOT PUSH1 0x1F DUP3 ADD AND DUP3 ADD DUP1 PUSH1 0x40 MSTORE POP DUP2 ADD SWAP1 PUSH2 0x538 SWAP2 SWAP1 PUSH2 0x1174 JUMP JUMPDEST PUSH2 0x589 JUMPI PUSH1 0x40 MLOAD PUSH3 0x461BCD PUSH1 0xE5 SHL DUP2 MSTORE PUSH1 0x20 PUSH1 0x4 DUP3 ADD MSTORE PUSH1 0x1E PUSH1 0x24 DUP3 ADD MSTORE PUSH32 0x43616C6C6572206973206E6F7420616E20616374697665206973737565720000 PUSH1 0x44 DUP3 ADD MSTORE PUSH1 0x64 ADD JUMPDEST PUSH1 0x40 MLOAD DUP1 SWAP2 SUB SWAP1 REVERT JUMPDEST PUSH1 0x3 SLOAD PUSH1 0x40 MLOAD PUSH4 0x6A6BD8CD PUSH1 0xE1 SHL DUP2 MSTORE PUSH1 0x1 PUSH1 0x1 PUSH1 0xA0 SHL SUB DUP8 DUP2 AND PUSH1 0x4 DUP4 ADD MSTORE SWAP1 SWAP2 AND SWAP1 PUSH4 0xD4D7B19A SWAP1 PUSH1 0x24 ADD PUSH1 0x20 PUSH1 0x40 MLOAD DUP1 DUP4 SUB DUP2 DUP7 GAS STATICCALL ISZERO DUP1 ISZERO PUSH2 0x5D3 JUMPI RETURNDATASIZE PUSH1 0x0 DUP1 RETURNDATACOPY RETURNDATASIZE PUSH1 0x0 REVERT JUMPDEST POP POP POP POP PUSH1 0x40 MLOAD RETURNDATASIZE PUSH1 0x1F NOT PUSH1 0x1F DUP3 ADD AND DUP3 ADD DUP1 PUSH1 0x40 MSTORE POP DUP2 ADD SWAP1 PUSH2 0x5F7 SWAP2 SWAP1 PUSH2 0x1174 JUMP JUMPDEST PUSH2 0x643 JUMPI PUSH1 0x40 MLOAD PUSH3 0x461BCD PUSH1 0xE5 SHL DUP2 MSTORE PUSH1 0x20 PUSH1 0x4 DUP3 ADD MSTORE PUSH1 0x18 PUSH1 0x24 DUP3 ADD MSTORE PUSH32 0x486F6C646572206973206E6F7420726567697374657265640000000000000000 PUSH1 0x44 DUP3 ADD MSTORE PUSH1 0x64 ADD PUSH2 0x580 JUMP JUMPDEST DUP8 PUSH2 0x684 JUMPI PUSH1 0x40 MLOAD PUSH3 0x461BCD PUSH1 0xE5 SHL DUP2 MSTORE PUSH1 0x20 PUSH1 0x4 DUP3 ADD MSTORE PUSH1 0x11 PUSH1 0x24 DUP3 ADD MSTORE PUSH17 0x111BD8C81A185CDA081C995C5D5A5C9959 PUSH1 0x7A SHL PUSH1 0x44 DUP3 ADD MSTORE PUSH1 0x64 ADD PUSH2 0x580 JUMP JUMPDEST DUP6 PUSH2 0x6C5 JUMPI PUSH1 0x40 MLOAD PUSH3 0x461BCD PUSH1 0xE5 SHL DUP2 MSTORE PUSH1 0x20 PUSH1 0x4 DUP3 ADD MSTORE PUSH1 0x11 PUSH1 0x24 DUP3 ADD MSTORE PUSH17 0x12541194C810D251081C995C5D5A5C9959 PUSH1 0x7A SHL PUSH1 0x44 DUP3 ADD MSTORE PUSH1 0x64 ADD PUSH2 0x580 JUMP JUMPDEST PUSH1 0x40 MLOAD PUSH12 0xFFFFFFFFFFFFFFFFFFFFFFFF NOT CALLER PUSH1 0x60 SWAP1 DUP2 SHL DUP3 AND PUSH1 0x20 DUP5 ADD MSTORE DUP8 SWAP1 SHL AND PUSH1 0x34 DUP3 ADD MSTORE PUSH1 0x48 DUP2 ADD DUP10 SWAP1 MSTORE TIMESTAMP PUSH1 0x68 DUP3 ADD MSTORE PUSH1 0x0 SWAP1 PUSH1 0x88 ADD PUSH1 0x40 DUP1 MLOAD PUSH1 0x1F NOT DUP2 DUP5 SUB ADD DUP2 MSTORE SWAP2 DUP2 MSTORE DUP2 MLOAD PUSH1 0x20 SWAP3 DUP4 ADD KECCAK256 PUSH1 0x0 DUP2 DUP2 MSTORE SWAP3 DUP4 SWAP1 MSTORE SWAP2 KECCAK256 PUSH1 0x2 ADD SLOAD SWAP1 SWAP2 POP PUSH1 0x1 PUSH1 0x1 PUSH1 0xA0 SHL SUB AND ISZERO PUSH2 0x77F JUMPI PUSH1 0x40 MLOAD PUSH3 0x461BCD PUSH1 0xE5 SHL DUP2 MSTORE PUSH1 0x20 PUSH1 0x4 DUP3 ADD MSTORE PUSH1 0x19 PUSH1 0x24 DUP3 ADD MSTORE PUSH32 0x43726564656E7469616C20616C72656164792065786973747300000000000000 PUSH1 0x44 DUP3 ADD MSTORE PUSH1 0x64 ADD PUSH2 0x580 JUMP JUMPDEST PUSH1 0x40 MLOAD DUP1 PUSH2 0x100 ADD PUSH1 0x40 MSTORE DUP1 DUP11 DUP2 MSTORE PUSH1 0x20 ADD DUP10 DUP10 DUP1 DUP1 PUSH1 0x1F ADD PUSH1 0x20 DUP1 SWAP2 DIV MUL PUSH1 0x20 ADD PUSH1 0x40 MLOAD SWAP1 DUP2 ADD PUSH1 0x40 MSTORE DUP1 SWAP4 SWAP3 SWAP2 SWAP1 DUP2 DUP2 MSTORE PUSH1 0x20 ADD DUP4 DUP4 DUP1 DUP3 DUP5 CALLDATACOPY PUSH1 0x0 SWAP3 ADD DUP3 SWAP1 MSTORE POP SWAP4 DUP6 MSTORE POP POP CALLER PUSH1 0x20 DUP5 ADD MSTORE POP PUSH1 0x1 PUSH1 0x1 PUSH1 0xA0 SHL SUB DUP10 AND PUSH1 0x40 DUP4 ADD MSTORE PUSH1 0x60 SWAP1 SWAP2 ADD SWAP1 DUP2 MSTORE PUSH1 0x20 ADD TIMESTAMP DUP2 MSTORE PUSH1 0x20 ADD DUP7 DUP2 MSTORE PUSH1 0x20 ADD DUP6 DUP6 DUP1 DUP1 PUSH1 0x1F ADD PUSH1 0x20 DUP1 SWAP2 DIV MUL PUSH1 0x20 ADD PUSH1 0x40 MLOAD SWAP1 DUP2 ADD PUSH1 0x40 MSTORE DUP1 SWAP4 SWAP3 SWAP2 SWAP1 DUP2 DUP2 MSTORE PUSH1 0x20 ADD DUP4 DUP4 DUP1 DUP3 DUP5 CALLDATACOPY PUSH1 0x0 SWAP3 ADD DUP3 SWAP1 MSTORE POP SWAP4 SWAP1 SWAP5 MSTORE POP POP DUP4 DUP2 MSTORE PUSH1 0x20 DUP2 DUP2 MSTORE PUSH1 0x40 SWAP1 SWAP2 KECCAK256 DUP4 MLOAD DUP2 SSTORE SWAP1 DUP4 ADD MLOAD SWAP1 SWAP2 POP PUSH1 0x1 DUP3 ADD SWAP1 PUSH2 0x854 SWAP1 DUP3 PUSH2 0x11FD JUMP JUMPDEST POP PUSH1 0x40 DUP3 ADD MLOAD PUSH1 0x2 DUP3 DUP2 ADD DUP1 SLOAD PUSH1 0x1 PUSH1 0x1 PUSH1 0xA0 SHL SUB NOT SWAP1 DUP2 AND PUSH1 0x1 PUSH1 0x1 PUSH1 0xA0 SHL SUB SWAP5 DUP6 AND OR SWAP1 SWAP2 SSTORE PUSH1 0x60 DUP6 ADD MLOAD PUSH1 0x3 DUP6 ADD DUP1 SLOAD SWAP3 DUP4 AND SWAP2 SWAP1 SWAP5 AND SWAP1 DUP2 OR DUP5 SSTORE PUSH1 0x80 DUP7 ADD MLOAD SWAP4 SWAP3 PUSH1 0x1 PUSH1 0x1 PUSH1 0xA8 SHL SUB NOT SWAP1 SWAP3 AND OR SWAP1 PUSH1 0x1 PUSH1 0xA0 SHL SWAP1 DUP5 SWAP1 DUP2 GT ISZERO PUSH2 0x8BF JUMPI PUSH2 0x8BF PUSH2 0xE91 JUMP JUMPDEST MUL OR SWAP1 SSTORE POP PUSH1 0xA0 DUP3 ADD MLOAD PUSH1 0x4 DUP3 ADD SSTORE PUSH1 0xC0 DUP3 ADD MLOAD PUSH1 0x5 DUP3 ADD SSTORE PUSH1 0xE0 DUP3 ADD MLOAD PUSH1 0x6 DUP3 ADD SWAP1 PUSH2 0x8EC SWAP1 DUP3 PUSH2 0x11FD JUMP JUMPDEST POP POP CALLER PUSH1 0x0 SWAP1 DUP2 MSTORE PUSH1 0x1 PUSH1 0x20 DUP2 DUP2 MSTORE PUSH1 0x40 DUP1 DUP5 KECCAK256 DUP1 SLOAD DUP1 DUP6 ADD DUP3 SSTORE SWAP1 DUP6 MSTORE DUP3 DUP6 KECCAK256 ADD DUP7 SWAP1 SSTORE PUSH1 0x1 PUSH1 0x1 PUSH1 0xA0 SHL SUB DUP12 AND DUP5 MSTORE PUSH1 0x2 DUP3 MSTORE DUP4 KECCAK256 DUP1 SLOAD SWAP3 DUP4 ADD DUP2 SSTORE DUP4 MSTORE DUP3 KECCAK256 ADD DUP4 SWAP1 SSTORE PUSH1 0x4 DUP1 SLOAD SWAP3 POP SWAP1 PUSH2 0x942 DUP4 PUSH2 0x12BD JUMP JUMPDEST SWAP2 SWAP1 POP SSTORE POP DUP6 PUSH1 0x1 PUSH1 0x1 PUSH1 0xA0 SHL SUB AND CALLER PUSH1 0x1 PUSH1 0x1 PUSH1 0xA0 SHL SUB AND DUP3 PUSH32 0x7E579D2EBB9D8E0F50C6B42937C8BDB09F57621FA9B18CE41BCCC14655CCC7DC DUP13 DUP13 DUP13 TIMESTAMP DUP13 PUSH1 0x40 MLOAD PUSH2 0x993 SWAP6 SWAP5 SWAP4 SWAP3 SWAP2 SWAP1 PUSH2 0x12E4 JUMP JUMPDEST PUSH1 0x40 MLOAD DUP1 SWAP2 SUB SWAP1 LOG4 SWAP9 SWAP8 POP POP POP POP POP POP POP POP JUMP JUMPDEST PUSH1 0x1 PUSH1 0x1 PUSH1 0xA0 SHL SUB DUP2 AND PUSH1 0x0 SWAP1 DUP2 MSTORE PUSH1 0x2 PUSH1 0x20 SWAP1 DUP2 MSTORE PUSH1 0x40 SWAP2 DUP3 SWAP1 KECCAK256 DUP1 SLOAD DUP4 MLOAD DUP2 DUP5 MUL DUP2 ADD DUP5 ADD SWAP1 SWAP5 MSTORE DUP1 DUP5 MSTORE PUSH1 0x60 SWAP4 SWAP3 DUP4 ADD DUP3 DUP3 DUP1 ISZERO PUSH2 0xA07 JUMPI PUSH1 0x20 MUL DUP3 ADD SWAP2 SWAP1 PUSH1 0x0 MSTORE PUSH1 0x20 PUSH1 0x0 KECCAK256 SWAP1 JUMPDEST DUP2 SLOAD DUP2 MSTORE PUSH1 0x20 ADD SWAP1 PUSH1 0x1 ADD SWAP1 DUP1 DUP4 GT PUSH2 0x9F3 JUMPI JUMPDEST POP POP POP POP POP SWAP1 POP SWAP2 SWAP1 POP JUMP JUMPDEST PUSH1 0x0 DUP2 DUP2 MSTORE PUSH1 0x20 DUP2 SWAP1 MSTORE PUSH1 0x40 SWAP1 KECCAK256 PUSH1 0x2 ADD SLOAD DUP2 SWAP1 PUSH1 0x1 PUSH1 0x1 PUSH1 0xA0 SHL SUB AND CALLER EQ PUSH2 0xA7E JUMPI PUSH1 0x40 MLOAD PUSH3 0x461BCD PUSH1 0xE5 SHL DUP2 MSTORE PUSH1 0x20 PUSH1 0x4 DUP3 ADD MSTORE PUSH1 0x17 PUSH1 0x24 DUP3 ADD MSTORE PUSH32 0x4F6E6C79206973737565722063616E20706572666F726D000000000000000000 PUSH1 0x44 DUP3 ADD MSTORE PUSH1 0x64 ADD PUSH2 0x580 JUMP JUMPDEST DUP2 PUSH1 0x0 DUP1 DUP3 DUP2 MSTORE PUSH1 0x20 DUP2 SWAP1 MSTORE PUSH1 0x40 SWAP1 KECCAK256 PUSH1 0x3 ADD SLOAD PUSH1 0x1 PUSH1 0xA0 SHL SWAP1 DIV PUSH1 0xFF AND PUSH1 0x2 DUP2 GT ISZERO PUSH2 0xAAD JUMPI PUSH2 0xAAD PUSH2 0xE91 JUMP JUMPDEST EQ PUSH2 0xAF2 JUMPI PUSH1 0x40 MLOAD PUSH3 0x461BCD PUSH1 0xE5 SHL DUP2 MSTORE PUSH1 0x20 PUSH1 0x4 DUP3 ADD MSTORE PUSH1 0x15 PUSH1 0x24 DUP3 ADD MSTORE PUSH21 0x43726564656E7469616C206E6F7420616374697665 PUSH1 0x58 SHL PUSH1 0x44 DUP3 ADD MSTORE PUSH1 0x64 ADD PUSH2 0x580 JUMP JUMPDEST PUSH1 0x0 DUP4 DUP2 MSTORE PUSH1 0x20 DUP2 DUP2 MSTORE PUSH1 0x40 SWAP2 DUP3 SWAP1 KECCAK256 PUSH1 0x3 ADD DUP1 SLOAD PUSH1 0xFF PUSH1 0xA0 SHL NOT AND PUSH1 0x1 PUSH1 0xA0 SHL OR SWAP1 SSTORE DUP2 MLOAD TIMESTAMP DUP2 MSTORE SWAP2 MLOAD CALLER SWAP3 DUP7 SWAP3 PUSH32 0x80D4746828447D65ECEB938C7F9D85FBEB232FE7819D5209ED452B3940F8904B SWAP3 SWAP2 DUP3 SWAP1 SUB ADD SWAP1 LOG3 DUP3 PUSH32 0x1989483702270FD50E2145A654F53A70BED9C1988B0E4D4441794E61EB152FBA PUSH1 0x1 TIMESTAMP PUSH1 0x40 MLOAD PUSH2 0xB7D SWAP3 SWAP2 SWAP1 PUSH2 0x1159 JUMP JUMPDEST PUSH1 0x40 MLOAD DUP1 SWAP2 SUB SWAP1 LOG2 POP POP POP JUMP JUMPDEST PUSH1 0x40 DUP1 MLOAD PUSH2 0x100 DUP2 ADD DUP3 MSTORE PUSH1 0x0 DUP1 DUP3 MSTORE PUSH1 0x60 PUSH1 0x20 DUP4 ADD DUP2 SWAP1 MSTORE SWAP3 DUP3 ADD DUP2 SWAP1 MSTORE DUP3 DUP3 ADD DUP2 SWAP1 MSTORE PUSH1 0x80 DUP3 ADD DUP2 SWAP1 MSTORE PUSH1 0xA0 DUP3 ADD DUP2 SWAP1 MSTORE PUSH1 0xC0 DUP3 ADD MSTORE PUSH1 0xE0 DUP2 ADD SWAP2 SWAP1 SWAP2 MSTORE PUSH1 0x0 DUP3 DUP2 MSTORE PUSH1 0x20 DUP2 DUP2 MSTORE PUSH1 0x40 SWAP2 DUP3 SWAP1 KECCAK256 DUP3 MLOAD PUSH2 0x100 DUP2 ADD SWAP1 SWAP4 MSTORE DUP1 SLOAD DUP4 MSTORE PUSH1 0x1 DUP2 ADD DUP1 SLOAD SWAP2 SWAP3 DUP5 ADD SWAP2 PUSH2 0xBFC SWAP1 PUSH2 0x111F JUMP JUMPDEST DUP1 PUSH1 0x1F ADD PUSH1 0x20 DUP1 SWAP2 DIV MUL PUSH1 0x20 ADD PUSH1 0x40 MLOAD SWAP1 DUP2 ADD PUSH1 0x40 MSTORE DUP1 SWAP3 SWAP2 SWAP1 DUP2 DUP2 MSTORE PUSH1 0x20 ADD DUP3 DUP1 SLOAD PUSH2 0xC28 SWAP1 PUSH2 0x111F JUMP JUMPDEST DUP1 ISZERO PUSH2 0xC75 JUMPI DUP1 PUSH1 0x1F LT PUSH2 0xC4A JUMPI PUSH2 0x100 DUP1 DUP4 SLOAD DIV MUL DUP4 MSTORE SWAP2 PUSH1 0x20 ADD SWAP2 PUSH2 0xC75 JUMP JUMPDEST DUP3 ADD SWAP2 SWAP1 PUSH1 0x0 MSTORE PUSH1 0x20 PUSH1 0x0 KECCAK256 SWAP1 JUMPDEST DUP2 SLOAD DUP2 MSTORE SWAP1 PUSH1 0x1 ADD SWAP1 PUSH1 0x20 ADD DUP1 DUP4 GT PUSH2 0xC58 JUMPI DUP3 SWAP1 SUB PUSH1 0x1F AND DUP3 ADD SWAP2 JUMPDEST POP POP POP SWAP2 DUP4 MSTORE POP POP PUSH1 0x2 DUP3 DUP2 ADD SLOAD PUSH1 0x1 PUSH1 0x1 PUSH1 0xA0 SHL SUB SWAP1 DUP2 AND PUSH1 0x20 DUP5 ADD MSTORE PUSH1 0x3 DUP5 ADD SLOAD SWAP1 DUP2 AND PUSH1 0x40 DUP5 ADD MSTORE PUSH1 0x60 SWAP1 SWAP3 ADD SWAP2 PUSH1 0x1 PUSH1 0xA0 SHL SWAP1 DIV PUSH1 0xFF AND SWAP1 DUP2 GT ISZERO PUSH2 0xCC0 JUMPI PUSH2 0xCC0 PUSH2 0xE91 JUMP JUMPDEST PUSH1 0x2 DUP2 GT ISZERO PUSH2 0xCD1 JUMPI PUSH2 0xCD1 PUSH2 0xE91 JUMP JUMPDEST DUP2 MSTORE PUSH1 0x20 ADD PUSH1 0x4 DUP3 ADD SLOAD DUP2 MSTORE PUSH1 0x20 ADD PUSH1 0x5 DUP3 ADD SLOAD DUP2 MSTORE PUSH1 0x20 ADD PUSH1 0x6 DUP3 ADD DUP1 SLOAD PUSH2 0xCF9 SWAP1 PUSH2 0x111F JUMP JUMPDEST DUP1 PUSH1 0x1F ADD PUSH1 0x20 DUP1 SWAP2 DIV MUL PUSH1 0x20 ADD PUSH1 0x40 MLOAD SWAP1 DUP2 ADD PUSH1 0x40 MSTORE DUP1 SWAP3 SWAP2 SWAP1 DUP2 DUP2 MSTORE PUSH1 0x20 ADD DUP3 DUP1 SLOAD PUSH2 0xD25 SWAP1 PUSH2 0x111F JUMP JUMPDEST DUP1 ISZERO PUSH2 0xD72 JUMPI DUP1 PUSH1 0x1F LT PUSH2 0xD47 JUMPI PUSH2 0x100 DUP1 DUP4 SLOAD DIV MUL DUP4 MSTORE SWAP2 PUSH1 0x20 ADD SWAP2 PUSH2 0xD72 JUMP JUMPDEST DUP3 ADD SWAP2 SWAP1 PUSH1 0x0 MSTORE PUSH1 0x20 PUSH1 0x0 KECCAK256 SWAP1 JUMPDEST DUP2 SLOAD DUP2 MSTORE SWAP1 PUSH1 0x1 ADD SWAP1 PUSH1 0x20 ADD DUP1 DUP4 GT PUSH2 0xD55 JUMPI DUP3 SWAP1 SUB PUSH1 0x1F AND DUP3 ADD SWAP2 JUMPDEST POP POP POP POP POP DUP2 MSTORE POP POP SWAP1 POP SWAP2 SWAP1 POP JUMP JUMPDEST PUSH1 0x1 PUSH1 0x1 PUSH1 0xA0 SHL SUB DUP2 AND PUSH1 0x0 SWAP1 DUP2 MSTORE PUSH1 0x1 PUSH1 0x20 SWAP1 DUP2 MSTORE PUSH1 0x40 SWAP2 DUP3 SWAP1 KECCAK256 DUP1 SLOAD DUP4 MLOAD DUP2 DUP5 MUL DUP2 ADD DUP5 ADD SWAP1 SWAP5 MSTORE DUP1 DUP5 MSTORE PUSH1 0x60 SWAP4 SWAP3 DUP4 ADD DUP3 DUP3 DUP1 ISZERO PUSH2 0xA07 JUMPI PUSH1 0x20 MUL DUP3 ADD SWAP2 SWAP1 PUSH1 0x0 MSTORE PUSH1 0x20 PUSH1 0x0 KECCAK256 SWAP1 DUP2 SLOAD DUP2 MSTORE PUSH1 0x20 ADD SWAP1 PUSH1 0x1 ADD SWAP1 DUP1 DUP4 GT PUSH2 0x9F3 JUMPI POP POP POP POP POP SWAP1 POP SWAP2 SWAP1 POP JUMP JUMPDEST DUP1 CALLDATALOAD PUSH1 0x1 PUSH1 0x1 PUSH1 0xA0 SHL SUB DUP2 AND DUP2 EQ PUSH2 0xE03 JUMPI PUSH1 0x0 DUP1 REVERT JUMPDEST SWAP2 SWAP1 POP JUMP JUMPDEST PUSH1 0x0 DUP1 PUSH1 0x40 DUP4 DUP6 SUB SLT ISZERO PUSH2 0xE1B JUMPI PUSH1 0x0 DUP1 REVERT JUMPDEST PUSH2 0xE24 DUP4 PUSH2 0xDEC JUMP JUMPDEST SWAP5 PUSH1 0x20 SWAP4 SWAP1 SWAP4 ADD CALLDATALOAD SWAP4 POP POP POP JUMP JUMPDEST PUSH1 0x0 PUSH1 0x20 DUP3 DUP5 SUB SLT ISZERO PUSH2 0xE44 JUMPI PUSH1 0x0 DUP1 REVERT JUMPDEST POP CALLDATALOAD SWAP2 SWAP1 POP JUMP JUMPDEST PUSH1 0x0 DUP2 MLOAD DUP1 DUP5 MSTORE PUSH1 0x0 JUMPDEST DUP2 DUP2 LT ISZERO PUSH2 0xE71 JUMPI PUSH1 0x20 DUP2 DUP6 ADD DUP2 ADD MLOAD DUP7 DUP4 ADD DUP3 ADD MSTORE ADD PUSH2 0xE55 JUMP JUMPDEST POP PUSH1 0x0 PUSH1 0x20 DUP3 DUP7 ADD ADD MSTORE PUSH1 0x20 PUSH1 0x1F NOT PUSH1 0x1F DUP4 ADD AND DUP6 ADD ADD SWAP2 POP POP SWAP3 SWAP2 POP POP JUMP JUMPDEST PUSH4 0x4E487B71 PUSH1 0xE0 SHL PUSH1 0x0 MSTORE PUSH1 0x21 PUSH1 0x4 MSTORE PUSH1 0x24 PUSH1 0x0 REVERT JUMPDEST PUSH1 0x3 DUP2 LT PUSH2 0xEC5 JUMPI PUSH4 0x4E487B71 PUSH1 0xE0 SHL PUSH1 0x0 MSTORE PUSH1 0x21 PUSH1 0x4 MSTORE PUSH1 0x24 PUSH1 0x0 REVERT JUMPDEST SWAP1 MSTORE JUMP JUMPDEST PUSH1 0x0 PUSH2 0x100 DUP11 DUP4 MSTORE DUP1 PUSH1 0x20 DUP5 ADD MSTORE PUSH2 0xEE3 DUP2 DUP5 ADD DUP12 PUSH2 0xE4B JUMP JUMPDEST PUSH1 0x1 PUSH1 0x1 PUSH1 0xA0 SHL SUB DUP11 DUP2 AND PUSH1 0x40 DUP7 ADD MSTORE DUP10 AND PUSH1 0x60 DUP6 ADD MSTORE SWAP1 POP PUSH2 0xF09 PUSH1 0x80 DUP5 ADD DUP9 PUSH2 0xEA7 JUMP JUMPDEST DUP6 PUSH1 0xA0 DUP5 ADD MSTORE DUP5 PUSH1 0xC0 DUP5 ADD MSTORE DUP3 DUP2 SUB PUSH1 0xE0 DUP5 ADD MSTORE PUSH2 0xF27 DUP2 DUP6 PUSH2 0xE4B JUMP JUMPDEST SWAP12 SWAP11 POP POP POP POP POP POP POP POP POP POP POP JUMP JUMPDEST PUSH1 0x0 DUP1 DUP4 PUSH1 0x1F DUP5 ADD SLT PUSH2 0xF48 JUMPI PUSH1 0x0 DUP1 REVERT JUMPDEST POP DUP2 CALLDATALOAD PUSH8 0xFFFFFFFFFFFFFFFF DUP2 GT ISZERO PUSH2 0xF60 JUMPI PUSH1 0x0 DUP1 REVERT JUMPDEST PUSH1 0x20 DUP4 ADD SWAP2 POP DUP4 PUSH1 0x20 DUP3 DUP6 ADD ADD GT ISZERO PUSH2 0xF78 JUMPI PUSH1 0x0 DUP1 REVERT JUMPDEST SWAP3 POP SWAP3 SWAP1 POP JUMP JUMPDEST PUSH1 0x0 DUP1 PUSH1 0x0 DUP1 PUSH1 0x0 DUP1 PUSH1 0x0 PUSH1 0xA0 DUP9 DUP11 SUB SLT ISZERO PUSH2 0xF9A JUMPI PUSH1 0x0 DUP1 REVERT JUMPDEST DUP8 CALLDATALOAD SWAP7 POP PUSH1 0x20 DUP9 ADD CALLDATALOAD PUSH8 0xFFFFFFFFFFFFFFFF DUP1 DUP3 GT ISZERO PUSH2 0xFB9 JUMPI PUSH1 0x0 DUP1 REVERT JUMPDEST PUSH2 0xFC5 DUP12 DUP4 DUP13 ADD PUSH2 0xF36 JUMP JUMPDEST SWAP1 SWAP9 POP SWAP7 POP DUP7 SWAP2 POP PUSH2 0xFD9 PUSH1 0x40 DUP12 ADD PUSH2 0xDEC JUMP JUMPDEST SWAP6 POP PUSH1 0x60 DUP11 ADD CALLDATALOAD SWAP5 POP PUSH1 0x80 DUP11 ADD CALLDATALOAD SWAP2 POP DUP1 DUP3 GT ISZERO PUSH2 0xFF6 JUMPI PUSH1 0x0 DUP1 REVERT JUMPDEST POP PUSH2 0x1003 DUP11 DUP3 DUP12 ADD PUSH2 0xF36 JUMP JUMPDEST SWAP9 SWAP12 SWAP8 SWAP11 POP SWAP6 SWAP9 POP SWAP4 SWAP7 SWAP3 SWAP6 SWAP3 SWAP4 POP POP POP JUMP JUMPDEST PUSH1 0x0 PUSH1 0x20 DUP3 DUP5 SUB SLT ISZERO PUSH2 0x1028 JUMPI PUSH1 0x0 DUP1 REVERT JUMPDEST PUSH2 0x1031 DUP3 PUSH2 0xDEC JUMP JUMPDEST SWAP4 SWAP3 POP POP POP JUMP JUMPDEST PUSH1 0x20 DUP1 DUP3 MSTORE DUP3 MLOAD DUP3 DUP3 ADD DUP2 SWAP1 MSTORE PUSH1 0x0 SWAP2 SWAP1 DUP5 DUP3 ADD SWAP1 PUSH1 0x40 DUP6 ADD SWAP1 DUP5 JUMPDEST DUP2 DUP2 LT ISZERO PUSH2 0x1070 JUMPI DUP4 MLOAD DUP4 MSTORE SWAP3 DUP5 ADD SWAP3 SWAP2 DUP5 ADD SWAP2 PUSH1 0x1 ADD PUSH2 0x1054 JUMP JUMPDEST POP SWAP1 SWAP7 SWAP6 POP POP POP POP POP POP JUMP JUMPDEST PUSH1 0x20 DUP2 MSTORE DUP2 MLOAD PUSH1 0x20 DUP3 ADD MSTORE PUSH1 0x0 PUSH1 0x20 DUP4 ADD MLOAD PUSH2 0x100 DUP1 PUSH1 0x40 DUP6 ADD MSTORE PUSH2 0x10A5 PUSH2 0x120 DUP6 ADD DUP4 PUSH2 0xE4B JUMP JUMPDEST SWAP2 POP PUSH1 0x1 DUP1 PUSH1 0xA0 SHL SUB PUSH1 0x40 DUP7 ADD MLOAD AND PUSH1 0x60 DUP6 ADD MSTORE PUSH1 0x60 DUP6 ADD MLOAD PUSH2 0x10D3 PUSH1 0x80 DUP7 ADD DUP3 PUSH1 0x1 PUSH1 0x1 PUSH1 0xA0 SHL SUB AND SWAP1 MSTORE JUMP JUMPDEST POP PUSH1 0x80 DUP6 ADD MLOAD PUSH2 0x10E6 PUSH1 0xA0 DUP7 ADD DUP3 PUSH2 0xEA7 JUMP JUMPDEST POP PUSH1 0xA0 DUP6 ADD MLOAD PUSH1 0xC0 DUP6 ADD MSTORE PUSH1 0xC0 DUP6 ADD MLOAD PUSH1 0xE0 DUP6 ADD MSTORE PUSH1 0xE0 DUP6 ADD MLOAD PUSH1 0x1F NOT DUP6 DUP5 SUB ADD DUP3 DUP7 ADD MSTORE PUSH2 0x1115 DUP4 DUP3 PUSH2 0xE4B JUMP JUMPDEST SWAP7 SWAP6 POP POP POP POP POP POP JUMP JUMPDEST PUSH1 0x1 DUP2 DUP2 SHR SWAP1 DUP3 AND DUP1 PUSH2 0x1133 JUMPI PUSH1 0x7F DUP3 AND SWAP2 POP JUMPDEST PUSH1 0x20 DUP3 LT DUP2 SUB PUSH2 0x1153 JUMPI PUSH4 0x4E487B71 PUSH1 0xE0 SHL PUSH1 0x0 MSTORE PUSH1 0x22 PUSH1 0x4 MSTORE PUSH1 0x24 PUSH1 0x0 REVERT JUMPDEST POP SWAP2 SWAP1 POP JUMP JUMPDEST PUSH1 0x40 DUP2 ADD PUSH2 0x1167 DUP3 DUP6 PUSH2 0xEA7 JUMP JUMPDEST DUP3 PUSH1 0x20 DUP4 ADD MSTORE SWAP4 SWAP3 POP POP POP JUMP JUMPDEST PUSH1 0x0 PUSH1 0x20 DUP3 DUP5 SUB SLT ISZERO PUSH2 0x1186 JUMPI PUSH1 0x0 DUP1 REVERT JUMPDEST DUP2 MLOAD DUP1 ISZERO ISZERO DUP2 EQ PUSH2 0x1031 JUMPI PUSH1 0x0 DUP1 REVERT JUMPDEST PUSH4 0x4E487B71 PUSH1 0xE0 SHL PUSH1 0x0 MSTORE PUSH1 0x41 PUSH1 0x4 MSTORE PUSH1 0x24 PUSH1 0x0 REVERT JUMPDEST PUSH1 0x1F DUP3 GT ISZERO PUSH2 0x11F8 JUMPI PUSH1 0x0 DUP2 PUSH1 0x0 MSTORE PUSH1 0x20 PUSH1 0x0 KECCAK256 PUSH1 0x1F DUP6 ADD PUSH1 0x5 SHR DUP2 ADD PUSH1 0x20 DUP7 LT ISZERO PUSH2 0x11D5 JUMPI POP DUP1 JUMPDEST PUSH1 0x1F DUP6 ADD PUSH1 0x5 SHR DUP3 ADD SWAP2 POP JUMPDEST DUP2 DUP2 LT ISZERO PUSH2 0x11F4 JUMPI DUP3 DUP2 SSTORE PUSH1 0x1 ADD PUSH2 0x11E1 JUMP JUMPDEST POP POP POP JUMPDEST POP POP POP JUMP JUMPDEST DUP2 MLOAD PUSH8 0xFFFFFFFFFFFFFFFF DUP2 GT ISZERO PUSH2 0x1217 JUMPI PUSH2 0x1217 PUSH2 0x1196 JUMP JUMPDEST PUSH2 0x122B DUP2 PUSH2 0x1225 DUP5 SLOAD PUSH2 0x111F JUMP JUMPDEST DUP5 PUSH2 0x11AC JUMP JUMPDEST PUSH1 0x20 DUP1 PUSH1 0x1F DUP4 GT PUSH1 0x1 DUP2 EQ PUSH2 0x1260 JUMPI PUSH1 0x0 DUP5 ISZERO PUSH2 0x1248 JUMPI POP DUP6 DUP4 ADD MLOAD JUMPDEST PUSH1 0x0 NOT PUSH1 0x3 DUP7 SWAP1 SHL SHR NOT AND PUSH1 0x1 DUP6 SWAP1 SHL OR DUP6 SSTORE PUSH2 0x11F4 JUMP JUMPDEST PUSH1 0x0 DUP6 DUP2 MSTORE PUSH1 0x20 DUP2 KECCAK256 PUSH1 0x1F NOT DUP7 AND SWAP2 JUMPDEST DUP3 DUP2 LT ISZERO PUSH2 0x128F JUMPI DUP9 DUP7 ADD MLOAD DUP3 SSTORE SWAP5 DUP5 ADD SWAP5 PUSH1 0x1 SWAP1 SWAP2 ADD SWAP1 DUP5 ADD PUSH2 0x1270 JUMP JUMPDEST POP DUP6 DUP3 LT ISZERO PUSH2 0x12AD JUMPI DUP8 DUP6 ADD MLOAD PUSH1 0x0 NOT PUSH1 0x3 DUP9 SWAP1 SHL PUSH1 0xF8 AND SHR NOT AND DUP2 SSTORE JUMPDEST POP POP POP POP POP PUSH1 0x1 SWAP1 DUP2 SHL ADD SWAP1 SSTORE POP JUMP JUMPDEST PUSH1 0x0 PUSH1 0x1 DUP3 ADD PUSH2 0x12DD JUMPI PUSH4 0x4E487B71 PUSH1 0xE0 SHL PUSH1 0x0 MSTORE PUSH1 0x11 PUSH1 0x4 MSTORE PUSH1 0x24 PUSH1 0x0 REVERT JUMPDEST POP PUSH1 0x1 ADD SWAP1 JUMP JUMPDEST DUP6 DUP2 MSTORE PUSH1 0x80 PUSH1 0x20 DUP3 ADD MSTORE DUP4 PUSH1 0x80 DUP3 ADD MSTORE DUP4 DUP6 PUSH1 0xA0 DUP4 ADD CALLDATACOPY PUSH1 0x0 PUSH1 0xA0 DUP6 DUP4 ADD ADD MSTORE PUSH1 0x0 PUSH1 0xA0 PUSH1 0x1F NOT PUSH1 0x1F DUP8 ADD AND DUP4 ADD ADD SWAP1 POP DUP4 PUSH1 0x40 DUP4 ADD MSTORE DUP3 PUSH1 0x60 DUP4 ADD MSTORE SWAP7 SWAP6 POP POP POP POP POP POP JUMP INVALID LOG2 PUSH5 0x6970667358 0x22 SLT KECCAK256 NOT 0x25 0xE1 0x4B 0xB2 0xB9 0xC2 PUSH6 0x550E254ACBF3 0xB9 0xD7 SWAP14 0xF CALLER 0x2A 0xCD 0xEA 0xC8 INVALID 0xC8 0xEC LT PUSH30 0x958E4CE964736F6C63430008180033000000000000000000000000000000 "},"methodIdentifiers":{"credentials(bytes32)":"299d0348","getCredential(bytes32)":"d1be4883","getHolderCredentials(address)":"8d184432","getIssuerCredentials(address)":"d8202ffb","holderCredentials(address,uint256)":"1e48169d","isCredentialValid(bytes32)":"6dc158eb","issueCredential(bytes32,string,address,uint256,string)":"89be4336","issuerCredentials(address,uint256)":"1abac44b","revokeCredential(bytes32)":"ca6eec78","totalCredentials()":"1513d62b","updateExpired(bytes32)":"797c35c8","userRegistry()":"5c7460d6"}}}}}