{"contracts/CredentialStore.sol":{"CredentialStore":{"abi":[{"inputs":[],"name":"AccessControlBadConfirmation","type":"error"},{"inputs":[{"internalType":"address","name":"account","type":"address"},{"internalType":"bytes32","name":"neededRole","type":"bytes32"}],"name":"AccessControlUnauthorizedAccount","type":"error"},{"inputs":[],"name":"InvalidInitialization","type":"error"},{"inputs":[],"name":"NotInitializing","type":"error"},{"anonymous":false,"inputs":[{"indexed":true,"internalType":"bytes32","name":"docHash","type":"bytes32"},{"indexed":false,"internalType":"string","name":"cid","type":"string"},{"indexed":false,"internalType":"address","name":"issuer","type":"address"},{"indexed":false,"internalType":"address","name":"holder","type":"address"}],"name":"CredentialIssued","type":"event"},{"anonymous":false,"inputs":[{"indexed":true,"internalType":"bytes32","name":"docHash","type":"bytes32"}],"name":"CredentialRevoked","type":"event"},{"anonymous":false,"inputs":[{"indexed":true,"internalType":"bytes32","name":"docHash","type":"bytes32"},{"indexed":false,"internalType":"bool","name":"verified","type":"bool"},{"indexed":false,"internalType":"uint256","name":"timestamp","type":"uint256"}],"name":"CredentialVerified","type":"event"},{"anonymous":false,"inputs":[{"indexed":false,"internalType":"uint64","name":"version","type":"uint64"}],"name":"Initialized","type":"event"},{"anonymous":false,"inputs":[{"indexed":true,"internalType":"bytes32","name":"role","type":"bytes32"},{"indexed":true,"internalType":"bytes32","name":"previousAdminRole","type":"bytes32"},{"indexed":true,"internalType":"bytes32","name":"newAdminRole","type":"bytes32"}],"name":"RoleAdminChanged","type":"event"},{"anonymous":false,"inputs":[{"indexed":true,"internalType":"bytes32","name":"role","type":"bytes32"},{"indexed":true,"internalType":"address","name":"account","type":"address"},{"indexed":true,"internalType":"address","name":"sender","type":"address"}],"name":"RoleGranted","type":"event"},{"anonymous":false,"inputs":[{"indexed":true,"internalType":"bytes32","name":"role","type":"bytes32"},{"indexed":true,"internalType":"address","name":"account","type":"address"},{"indexed":true,"internalType":"address","name":"sender","type":"address"}],"name":"RoleRevoked","type":"event"},{"inputs":[],"name":"DEFAULT_ADMIN_ROLE","outputs":[{"internalType":"bytes32","name":"","type":"bytes32"}],"stateMutability":"view","type":"function"},{"inputs":[{"internalType":"uint256","name":"","type":"uint256"}],"name":"allCredentialHashes","outputs":[{"internalType":"bytes32","name":"","type":"bytes32"}],"stateMutability":"view","type":"function"},{"inputs":[{"internalType":"bytes32","name":"","type":"bytes32"}],"name":"credentials","outputs":[{"internalType":"bytes32","name":"docHash","type":"bytes32"},{"internalType":"string","name":"cid","type":"string"},{"internalType":"address","name":"issuer","type":"address"},{"internalType":"address","name":"holder","type":"address"},{"internalType":"uint256","name":"issuedAt","type":"uint256"},{"internalType":"bool","name":"revoked","type":"bool"},{"internalType":"bool","name":"verified","type":"bool"},{"internalType":"uint256","name":"verifiedAt","type":"uint256"}],"stateMutability":"view","type":"function"},{"inputs":[],"name":"didRegistry","outputs":[{"internalType":"contract DIDRegistry","name":"","type":"address"}],"stateMutability":"view","type":"function"},{"inputs":[{"internalType":"bytes32","name":"_docHash","type":"bytes32"}],"name":"getCredential","outputs":[{"components":[{"internalType":"bytes32","name":"docHash","type":"bytes32"},{"internalType":"string","name":"cid","type":"string"},{"internalType":"address","name":"issuer","type":"address"},{"internalType":"address","name":"holder","type":"address"},{"internalType":"uint256","name":"issuedAt","type":"uint256"},{"internalType":"bool","name":"revoked","type":"bool"},{"internalType":"bool","name":"verified","type":"bool"},{"internalType":"uint256","name":"verifiedAt","type":"uint256"}],"internalType":"struct CredentialStore.Credential","name":"","type":"tuple"}],"stateMutability":"view","type":"function"},{"inputs":[{"internalType":"bytes32","name":"role","type":"bytes32"}],"name":"getRoleAdmin","outputs":[{"internalType":"bytes32","name":"","type":"bytes32"}],"stateMutability":"view","type":"function"},{"inputs":[{"internalType":"bytes32","name":"role","type":"bytes32"},{"internalType":"address","name":"account","type":"address"}],"name":"grantRole","outputs":[],"stateMutability":"nonpayable","type":"function"},{"inputs":[{"internalType":"bytes32","name":"role","type":"bytes32"},{"internalType":"address","name":"account","type":"address"}],"name":"hasRole","outputs":[{"internalType":"bool","name":"","type":"bool"}],"stateMutability":"view","type":"function"},{"inputs":[{"internalType":"address","name":"_didRegistry","type":"address"}],"name":"initialize","outputs":[],"stateMutability":"nonpayable","type":"function"},{"inputs":[{"internalType":"bytes32","name":"_docHash","type":"bytes32"},{"internalType":"string","name":"_cid","type":"string"},{"internalType":"address","name":"_holder","type":"address"}],"name":"issueCredential","outputs":[],"stateMutability":"nonpayable","type":"function"},{"inputs":[{"internalType":"bytes32","name":"role","type":"bytes32"},{"internalType":"address","name":"callerConfirmation","type":"address"}],"name":"renounceRole","outputs":[],"stateMutability":"nonpayable","type":"function"},{"inputs":[{"internalType":"bytes32","name":"_docHash","type":"bytes32"}],"name":"revokeCredential","outputs":[],"stateMutability":"nonpayable","type":"function"},{"inputs":[{"internalType":"bytes32","name":"role","type":"bytes32"},{"internalType":"address","name":"account","type":"address"}],"name":"revokeRole","outputs":[],"stateMutability":"nonpayable","type":"function"},{"inputs":[{"internalType":"bytes32","name":"_docHash","type":"bytes32"},{"internalType":"bool","name":"_verified","type":"bool"}],"name":"setVerificationStatus","outputs":[],"stateMutability":"nonpayable","type":"function"},{"inputs":[{"internalType":"bytes4","name":"interfaceId","type":"bytes4"}],"name":"supportsInterface","outputs":[{"internalType":"bool","name":"","type":"bool"}],"stateMutability":"view","type":"function"}],"evm":{"bytecode":{"linkReferences":{},"object":"608060405234801561001057600080fd5b50611194806100206000396000f3fe608060405234801561001057600080fd5b50600436106100f55760003560e01c80636045703411610097578063c4d66de811610066578063c4d66de814610211578063ca6eec7814610224578063d1be488314610237578063d547741f1461025757600080fd5b806360457034146101d057806391d14854146101e3578063a217fddf146101f6578063baf96d45146101fe57600080fd5b80632f2ff15d116100d35780632f2ff15d1461016a57806336568abe1461017f578063396dc08d14610192578063577f9fb1146101a557600080fd5b806301ffc9a7146100fa578063248a9ca314610122578063299d034814610143575b600080fd5b61010d610108366004610cb6565b61026a565b60405190151581526020015b60405180910390f35b610135610130366004610ce7565b6102a1565b604051908152602001610119565b610156610151366004610ce7565b6102c3565b604051610119989796959493929190610d46565b61017d610178366004610dba565b6103a0565b005b61017d61018d366004610dba565b6103c2565b6101356101a0366004610ce7565b6103fa565b6000546101b8906001600160a01b031681565b6040516001600160a01b039091168152602001610119565b61017d6101de366004610df4565b61041b565b61010d6101f1366004610dba565b61049d565b610135600081565b61017d61020c366004610e3a565b6104d5565b61017d61021f366004610f05565b610744565b61017d610232366004610ce7565b610865565b61024a610245366004610ce7565b61096d565b6040516101199190610f20565b61017d610265366004610dba565b610abd565b60006001600160e01b03198216637965db0b60e01b148061029b57506301ffc9a760e01b6001600160e01b03198316145b92915050565b600090815260008051602061113f833981519152602052604090206001015490565b6001602081905260009182526040909120805491810180546102e490610fac565b80601f016020809104026020016040519081016040528092919081815260200182805461031090610fac565b801561035d5780601f106103325761010080835404028352916020019161035d565b820191906000526020600020905b81548152906001019060200180831161034057829003601f168201915b505050600284015460038501546004860154600587015460069097015495966001600160a01b0393841696929093169450925060ff808316926101009004169088565b6103a9826102a1565b6103b281610ad9565b6103bc8383610ae6565b50505050565b6001600160a01b03811633146103eb5760405163334bd91960e11b815260040160405180910390fd5b6103f58282610b8b565b505050565b6002818154811061040a57600080fd5b600091825260209091200154905081565b600061042681610ad9565b600083815260016020526040908190206005810180548515156101000261ff0019909116179055426006909101819055905184917faa3b966071ad1115438416206c70ea3830bbc48f6ff61525a872b811c50495fb91610490918615158252602082015260400190565b60405180910390a2505050565b600091825260008051602061113f833981519152602090815260408084206001600160a01b0393909316845291905290205460ff1690565b60005460405163877b9a6760e01b81523360048201526001600160a01b039091169063877b9a6790602401602060405180830381865afa15801561051d573d6000803e3d6000fd5b505050506040513d601f19601f820116820180604052508101906105419190610fe6565b6105825760405162461bcd60e51b815260206004820152600d60248201526c2737ba1030b71034b9b9bab2b960991b60448201526064015b60405180910390fd5b6000838152600160205260409020600201546001600160a01b0316156105ea5760405162461bcd60e51b815260206004820152601960248201527f43726564656e7469616c20616c726561647920657869737473000000000000006044820152606401610579565b6040805161010081018252848152602080820185815233838501526001600160a01b0385166060840152426080840152600060a0840181905260c0840181905260e084018190528781526001928390529390932082518155925191929190820190610655908261104b565b50604082810151600280840180546001600160a01b039384166001600160a01b0319918216179091556060860151600386018054919094169116179091556080840151600484015560a084015160058401805460c087015115156101000261ff00199315159390931661ffff199091161791909117905560e09093015160069092019190915581546001810183556000929092527f405787fa12a823e0f2b7631cc41b3ba8828b3321ca811111fa75cd3aa3bb5ace9091018490555183907f28bbcd290e0668c1c04c3e05deaf004979031dd675f91768694b84dab7355377906104909085903390869061110b565b600061074e610c07565b805490915060ff600160401b820416159067ffffffffffffffff166000811580156107765750825b905060008267ffffffffffffffff1660011480156107935750303b155b9050811580156107a1575080155b156107bf5760405163f92ee8a960e01b815260040160405180910390fd5b845467ffffffffffffffff1916600117855583156107e957845460ff60401b1916600160401b1785555b6107f1610c30565b600080546001600160a01b0319166001600160a01b0388161781556108169033610ae6565b50831561085d57845460ff60401b19168555604051600181527fc7f505b2f371ae2175ee4913f4499e1f2633a7b5936321eed1cdaeb6115181d29060200160405180910390a15b505050505050565b6000818152600160205260409020600201546001600160a01b0316331480610893575061089360003361049d565b6108d05760405162461bcd60e51b815260206004820152600e60248201526d139bdd08185d5d1a1bdc9a5e995960921b6044820152606401610579565b60008181526001602052604090206005015460ff16156109245760405162461bcd60e51b815260206004820152600f60248201526e105b1c9958591e481c995d9bdad959608a1b6044820152606401610579565b6000818152600160208190526040808320600501805460ff19169092179091555182917f3cc2375f3fc7711ba27361cde93880f578742f9f050acee766bed662d117ba7291a250565b604080516101008101825260008082526060602083018190529282018190529181018290526080810182905260a0810182905260c0810182905260e081019190915260008281526001602081815260409283902083516101008101909452805484529182018054918401916109e190610fac565b80601f0160208091040260200160405190810160405280929190818152602001828054610a0d90610fac565b8015610a5a5780601f10610a2f57610100808354040283529160200191610a5a565b820191906000526020600020905b815481529060010190602001808311610a3d57829003601f168201915b505050918352505060028201546001600160a01b039081166020830152600383015416604082015260048201546060820152600582015460ff8082161515608084015261010090910416151560a082015260069091015460c09091015292915050565b610ac6826102a1565b610acf81610ad9565b6103bc8383610b8b565b610ae38133610c3a565b50565b600060008051602061113f833981519152610b01848461049d565b610b81576000848152602082815260408083206001600160a01b03871684529091529020805460ff19166001179055610b373390565b6001600160a01b0316836001600160a01b0316857f2f8788117e7eff1d82e926ec794901d17c78024a50270940304540a733656f0d60405160405180910390a4600191505061029b565b600091505061029b565b600060008051602061113f833981519152610ba6848461049d565b15610b81576000848152602082815260408083206001600160a01b0387168085529252808320805460ff1916905551339287917ff6391f5c32d9c69d2a47ea670b442974b53935d1edc7fd64eb21e047a839171b9190a4600191505061029b565b6000807ff0c57e16840df040f15088dc2f81fe391c3923bec73e23a9662efc9c229c6a0061029b565b610c38610c77565b565b610c44828261049d565b610c735760405163e2517d3f60e01b81526001600160a01b038216600482015260248101839052604401610579565b5050565b610c7f610c9c565b610c3857604051631afcd79f60e31b815260040160405180910390fd5b6000610ca6610c07565b54600160401b900460ff16919050565b600060208284031215610cc857600080fd5b81356001600160e01b031981168114610ce057600080fd5b9392505050565b600060208284031215610cf957600080fd5b5035919050565b6000815180845260005b81811015610d2657602081850181015186830182015201610d0a565b506000602082860101526020601f19601f83011685010191505092915050565b60006101008a8352806020840152610d608184018b610d00565b6001600160a01b03998a16604085015297909816606083015250608081019490945291151560a0840152151560c083015260e0909101529392505050565b80356001600160a01b0381168114610db557600080fd5b919050565b60008060408385031215610dcd57600080fd5b82359150610ddd60208401610d9e565b90509250929050565b8015158114610ae357600080fd5b60008060408385031215610e0757600080fd5b823591506020830135610e1981610de6565b809150509250929050565b634e487b7160e01b600052604160045260246000fd5b600080600060608486031215610e4f57600080fd5b83359250602084013567ffffffffffffffff80821115610e6e57600080fd5b818601915086601f830112610e8257600080fd5b813581811115610e9457610e94610e24565b604051601f8201601f19908116603f01168101908382118183101715610ebc57610ebc610e24565b81604052828152896020848701011115610ed557600080fd5b826020860160208301376000602084830101528096505050505050610efc60408501610d9e565b90509250925092565b600060208284031215610f1757600080fd5b610ce082610d9e565b602081528151602082015260006020830151610100806040850152610f49610120850183610d00565b9150604085015160018060a01b0380821660608701528060608801511660808701525050608085015160a085015260a0850151610f8a60c086018215159052565b5060c085015180151560e08601525060e0949094015192909301919091525090565b600181811c90821680610fc057607f821691505b602082108103610fe057634e487b7160e01b600052602260045260246000fd5b50919050565b600060208284031215610ff857600080fd5b8151610ce081610de6565b601f8211156103f5576000816000526020600020601f850160051c8101602086101561102c5750805b601f850160051c820191505b8181101561085d57828155600101611038565b815167ffffffffffffffff81111561106557611065610e24565b611079816110738454610fac565b84611003565b602080601f8311600181146110ae57600084156110965750858301515b600019600386901b1c1916600185901b17855561085d565b600085815260208120601f198616915b828110156110dd578886015182559484019460019091019084016110be565b50858210156110fb5787850151600019600388901b60f8161c191681555b5050505050600190811b01905550565b60608152600061111e6060830186610d00565b6001600160a01b039485166020840152929093166040909101529291505056fe02dd7bc7dec4dceedda775e58dd541e08a116c6c53815c0bd028192f7b626800a2646970667358221220c3b800e4918791fc15274c36db8dabbbdde0d94641af9ce9964932231ec7bcaf64736f6c63430008180033","opcodes":"PUSH1 0x80 PUSH1 0x40 MSTORE CALLVALUE DUP1 ISZERO PUSH2 0x10 JUMPI PUSH1 0x0 DUP1 REVERT JUMPDEST POP PUSH2 0x1194 DUP1 PUSH2 0x20 PUSH1 0x0 CODECOPY PUSH1 0x0 RETURN INVALID PUSH1 0x80 PUSH1 0x40 MSTORE CALLVALUE DUP1 ISZERO PUSH2 0x10 JUMPI PUSH1 0x0 DUP1 REVERT JUMPDEST POP PUSH1 0x4 CALLDATASIZE LT PUSH2 0xF5 JUMPI PUSH1 0x0 CALLDATALOAD PUSH1 0xE0 SHR DUP1 PUSH4 0x60457034 GT PUSH2 0x97 JUMPI DUP1 PUSH4 0xC4D66DE8 GT PUSH2 0x66 JUMPI DUP1 PUSH4 0xC4D66DE8 EQ PUSH2 0x211 JUMPI DUP1 PUSH4 0xCA6EEC78 EQ PUSH2 0x224 JUMPI DUP1 PUSH4 0xD1BE4883 EQ PUSH2 0x237 JUMPI DUP1 PUSH4 0xD547741F EQ PUSH2 0x257 JUMPI PUSH1 0x0 DUP1 REVERT JUMPDEST DUP1 PUSH4 0x60457034 EQ PUSH2 0x1D0 JUMPI DUP1 PUSH4 0x91D14854 EQ PUSH2 0x1E3 JUMPI DUP1 PUSH4 0xA217FDDF EQ PUSH2 0x1F6 JUMPI DUP1 PUSH4 0xBAF96D45 EQ PUSH2 0x1FE JUMPI PUSH1 0x0 DUP1 REVERT JUMPDEST DUP1 PUSH4 0x2F2FF15D GT PUSH2 0xD3 JUMPI DUP1 PUSH4 0x2F2FF15D EQ PUSH2 0x16A JUMPI DUP1 PUSH4 0x36568ABE EQ PUSH2 0x17F JUMPI DUP1 PUSH4 0x396DC08D EQ PUSH2 0x192 JUMPI DUP1 PUSH4 0x577F9FB1 EQ PUSH2 0x1A5 JUMPI PUSH1 0x0 DUP1 REVERT JUMPDEST DUP1 PUSH4 0x1FFC9A7 EQ PUSH2 0xFA JUMPI DUP1 PUSH4 0x248A9CA3 EQ PUSH2 0x122 JUMPI DUP1 PUSH4 0x299D0348 EQ PUSH2 0x143 JUMPI JUMPDEST PUSH1 0x0 DUP1 REVERT JUMPDEST PUSH2 0x10D PUSH2 0x108 CALLDATASIZE PUSH1 0x4 PUSH2 0xCB6 JUMP JUMPDEST PUSH2 0x26A JUMP JUMPDEST PUSH1 0x40 MLOAD SWAP1 ISZERO ISZERO DUP2 MSTORE PUSH1 0x20 ADD JUMPDEST PUSH1 0x40 MLOAD DUP1 SWAP2 SUB SWAP1 RETURN JUMPDEST PUSH2 0x135 PUSH2 0x130 CALLDATASIZE PUSH1 0x4 PUSH2 0xCE7 JUMP JUMPDEST PUSH2 0x2A1 JUMP JUMPDEST PUSH1 0x40 MLOAD SWAP1 DUP2 MSTORE PUSH1 0x20 ADD PUSH2 0x119 JUMP JUMPDEST PUSH2 0x156 PUSH2 0x151 CALLDATASIZE PUSH1 0x4 PUSH2 0xCE7 JUMP JUMPDEST PUSH2 0x2C3 JUMP JUMPDEST PUSH1 0x40 MLOAD PUSH2 0x119 SWAP9 SWAP8 SWAP7 SWAP6 SWAP5 SWAP4 SWAP3 SWAP2 SWAP1 PUSH2 0xD46 JUMP JUMPDEST PUSH2 0x17D PUSH2 0x178 CALLDATASIZE PUSH1 0x4 PUSH2 0xDBA JUMP JUMPDEST PUSH2 0x3A0 JUMP JUMPDEST STOP JUMPDEST PUSH2 0x17D PUSH2 0x18D CALLDATASIZE PUSH1 0x4 PUSH2 0xDBA JUMP JUMPDEST PUSH2 0x3C2 JUMP JUMPDEST PUSH2 0x135 PUSH2 0x1A0 CALLDATASIZE PUSH1 0x4 PUSH2 0xCE7 JUMP JUMPDEST PUSH2 0x3FA JUMP JUMPDEST PUSH1 0x0 SLOAD PUSH2 0x1B8 SWAP1 PUSH1 0x1 PUSH1 0x1 PUSH1 0xA0 SHL SUB AND DUP2 JUMP JUMPDEST PUSH1 0x40 MLOAD PUSH1 0x1 PUSH1 0x1 PUSH1 0xA0 SHL SUB SWAP1 SWAP2 AND DUP2 MSTORE PUSH1 0x20 ADD PUSH2 0x119 JUMP JUMPDEST PUSH2 0x17D PUSH2 0x1DE CALLDATASIZE PUSH1 0x4 PUSH2 0xDF4 JUMP JUMPDEST PUSH2 0x41B JUMP JUMPDEST PUSH2 0x10D PUSH2 0x1F1 CALLDATASIZE PUSH1 0x4 PUSH2 0xDBA JUMP JUMPDEST PUSH2 0x49D JUMP JUMPDEST PUSH2 0x135 PUSH1 0x0 DUP2 JUMP JUMPDEST PUSH2 0x17D PUSH2 0x20C CALLDATASIZE PUSH1 0x4 PUSH2 0xE3A JUMP JUMPDEST PUSH2 0x4D5 JUMP JUMPDEST PUSH2 0x17D PUSH2 0x21F CALLDATASIZE PUSH1 0x4 PUSH2 0xF05 JUMP JUMPDEST PUSH2 0x744 JUMP JUMPDEST PUSH2 0x17D PUSH2 0x232 CALLDATASIZE PUSH1 0x4 PUSH2 0xCE7 JUMP JUMPDEST PUSH2 0x865 JUMP JUMPDEST PUSH2 0x24A PUSH2 0x245 CALLDATASIZE PUSH1 0x4 PUSH2 0xCE7 JUMP JUMPDEST PUSH2 0x96D JUMP JUMPDEST PUSH1 0x40 MLOAD PUSH2 0x119 SWAP2 SWAP1 PUSH2 0xF20 JUMP JUMPDEST PUSH2 0x17D PUSH2 0x265 CALLDATASIZE PUSH1 0x4 PUSH2 0xDBA JUMP JUMPDEST PUSH2 0xABD JUMP JUMPDEST PUSH1 0x0 PUSH1 0x1 PUSH1 0x1 PUSH1 0xE0 SHL SUB NOT DUP3 AND PUSH4 0x7965DB0B PUSH1 0xE0 SHL EQ DUP1 PUSH2 0x29B JUMPI POP PUSH4 0x1FFC9A7 PUSH1 0xE0 SHL PUSH1 0x1 PUSH1 0x1 PUSH1 0xE0 SHL SUB NOT DUP4 AND EQ JUMPDEST SWAP3 SWAP2 POP POP JUMP JUMPDEST PUSH1 0x0 SWAP1 DUP2 MSTORE PUSH1 0x0 DUP1 MLOAD PUSH1 0x20 PUSH2 0x113F DUP4 CODECOPY DUP2 MLOAD SWAP2 MSTORE PUSH1 0x20 MSTORE PUSH1 0x40 SWAP1 KECCAK256 PUSH1 0x1 ADD SLOAD SWAP1 JUMP JUMPDEST PUSH1 0x1 PUSH1 0x20 DUP2 SWAP1 MSTORE PUSH1 0x0 SWAP2 DUP3 MSTORE PUSH1 0x40 SWAP1 SWAP2 KECCAK256 DUP1 SLOAD SWAP2 DUP2 ADD DUP1 SLOAD PUSH2 0x2E4 SWAP1 PUSH2 0xFAC JUMP JUMPDEST DUP1 PUSH1 0x1F ADD PUSH1 0x20 DUP1 SWAP2 DIV MUL PUSH1 0x20 ADD PUSH1 0x40 MLOAD SWAP1 DUP2 ADD PUSH1 0x40 MSTORE DUP1 SWAP3 SWAP2 SWAP1 DUP2 DUP2 MSTORE PUSH1 0x20 ADD DUP3 DUP1 SLOAD PUSH2 0x310 SWAP1 PUSH2 0xFAC JUMP JUMPDEST DUP1 ISZERO PUSH2 0x35D JUMPI DUP1 PUSH1 0x1F LT PUSH2 0x332 JUMPI PUSH2 0x100 DUP1 DUP4 SLOAD DIV MUL DUP4 MSTORE SWAP2 PUSH1 0x20 ADD SWAP2 PUSH2 0x35D JUMP JUMPDEST DUP3 ADD SWAP2 SWAP1 PUSH1 0x0 MSTORE PUSH1 0x20 PUSH1 0x0 KECCAK256 SWAP1 JUMPDEST DUP2 SLOAD DUP2 MSTORE SWAP1 PUSH1 0x1 ADD SWAP1 PUSH1 0x20 ADD DUP1 DUP4 GT PUSH2 0x340 JUMPI DUP3 SWAP1 SUB PUSH1 0x1F AND DUP3 ADD SWAP2 JUMPDEST POP POP POP PUSH1 0x2 DUP5 ADD SLOAD PUSH1 0x3 DUP6 ADD SLOAD PUSH1 0x4 DUP7 ADD SLOAD PUSH1 0x5 DUP8 ADD SLOAD PUSH1 0x6 SWAP1 SWAP8 ADD SLOAD SWAP6 SWAP7 PUSH1 0x1 PUSH1 0x1 PUSH1 0xA0 SHL SUB SWAP4 DUP5 AND SWAP7 SWAP3 SWAP1 SWAP4 AND SWAP5 POP SWAP3 POP PUSH1 0xFF DUP1 DUP4 AND SWAP3 PUSH2 0x100 SWAP1 DIV AND SWAP1 DUP9 JUMP JUMPDEST PUSH2 0x3A9 DUP3 PUSH2 0x2A1 JUMP JUMPDEST PUSH2 0x3B2 DUP2 PUSH2 0xAD9 JUMP JUMPDEST PUSH2 0x3BC DUP4 DUP4 PUSH2 0xAE6 JUMP JUMPDEST POP POP POP POP JUMP JUMPDEST PUSH1 0x1 PUSH1 0x1 PUSH1 0xA0 SHL SUB DUP2 AND CALLER EQ PUSH2 0x3EB JUMPI PUSH1 0x40 MLOAD PUSH4 0x334BD919 PUSH1 0xE1 SHL DUP2 MSTORE PUSH1 0x4 ADD PUSH1 0x40 MLOAD DUP1 SWAP2 SUB SWAP1 REVERT JUMPDEST PUSH2 0x3F5 DUP3 DUP3 PUSH2 0xB8B JUMP JUMPDEST POP POP POP JUMP JUMPDEST PUSH1 0x2 DUP2 DUP2 SLOAD DUP2 LT PUSH2 0x40A JUMPI PUSH1 0x0 DUP1 REVERT JUMPDEST PUSH1 0x0 SWAP2 DUP3 MSTORE PUSH1 0x20 SWAP1 SWAP2 KECCAK256 ADD SLOAD SWAP1 POP DUP2 JUMP JUMPDEST PUSH1 0x0 PUSH2 0x426 DUP2 PUSH2 0xAD9 JUMP JUMPDEST PUSH1 0x0 DUP4 DUP2 MSTORE PUSH1 0x1 PUSH1 0x20 MSTORE PUSH1 0x40 SWAP1 DUP2 SWAP1 KECCAK256 PUSH1 0x5 DUP2 ADD DUP1 SLOAD DUP6 ISZERO ISZERO PUSH2 0x100 MUL PUSH2 0xFF00 NOT SWAP1 SWAP2 AND OR SWAP1 SSTORE TIMESTAMP PUSH1 0x6 SWAP1 SWAP2 ADD DUP2 SWAP1 SSTORE SWAP1 MLOAD DUP5 SWAP2 PUSH32 0xAA3B966071AD1115438416206C70EA3830BBC48F6FF61525A872B811C50495FB SWAP2 PUSH2 0x490 SWAP2 DUP7 ISZERO ISZERO DUP3 MSTORE PUSH1 0x20 DUP3 ADD MSTORE PUSH1 0x40 ADD SWAP1 JUMP JUMPDEST PUSH1 0x40 MLOAD DUP1 SWAP2 SUB SWAP1 LOG2 POP POP POP JUMP JUMPDEST PUSH1 0x0 SWAP2 DUP3 MSTORE PUSH1 0x0 DUP1 MLOAD PUSH1 0x20 PUSH2 0x113F DUP4 CODECOPY DUP2 MLOAD SWAP2 MSTORE PUSH1 0x20 SWAP1 DUP2 MSTORE PUSH1 0x40 DUP1 DUP5 KECCAK256 PUSH1 0x1 PUSH1 0x1 PUSH1 0xA0 SHL SUB SWAP4 SWAP1 SWAP4 AND DUP5 MSTORE SWAP2 SWAP1 MSTORE SWAP1 KECCAK256 SLOAD PUSH1 0xFF AND SWAP1 JUMP JUMPDEST PUSH1 0x0 SLOAD PUSH1 0x40 MLOAD PUSH4 0x877B9A67 PUSH1 0xE0 SHL DUP2 MSTORE CALLER PUSH1 0x4 DUP3 ADD MSTORE PUSH1 0x1 PUSH1 0x1 PUSH1 0xA0 SHL SUB SWAP1 SWAP2 AND SWAP1 PUSH4 0x877B9A67 SWAP1 PUSH1 0x24 ADD PUSH1 0x20 PUSH1 0x40 MLOAD DUP1 DUP4 SUB DUP2 DUP7 GAS STATICCALL ISZERO DUP1 ISZERO PUSH2 0x51D JUMPI RETURNDATASIZE PUSH1 0x0 DUP1 RETURNDATACOPY RETURNDATASIZE PUSH1 0x0 REVERT JUMPDEST POP POP POP POP PUSH1 0x40 MLOAD RETURNDATASIZE PUSH1 0x1F NOT PUSH1 0x1F DUP3 ADD AND DUP3 ADD DUP1 PUSH1 0x40 MSTORE POP DUP2 ADD SWAP1 PUSH2 0x541 SWAP2 SWAP1 PUSH2 0xFE6 JUMP JUMPDEST PUSH2 0x582 JUMPI PUSH1 0x40 MLOAD PUSH3 0x461BCD PUSH1 0xE5 SHL DUP2 MSTORE PUSH1 0x20 PUSH1 0x4 DUP3 ADD MSTORE PUSH1 0xD PUSH1 0x24 DUP3 ADD MSTORE PUSH13 0x2737BA1030B71034B9B9BAB2B9 PUSH1 0x99 SHL PUSH1 0x44 DUP3 ADD MSTORE PUSH1 0x64 ADD JUMPDEST PUSH1 0x40 MLOAD DUP1 SWAP2 SUB SWAP1 REVERT JUMPDEST PUSH1 0x0 DUP4 DUP2 MSTORE PUSH1 0x1 PUSH1 0x20 MSTORE PUSH1 0x40 SWAP1 KECCAK256 PUSH1 0x2 ADD SLOAD PUSH1 0x1 PUSH1 0x1 PUSH1 0xA0 SHL SUB AND ISZERO PUSH2 0x5EA JUMPI PUSH1 0x40 MLOAD PUSH3 0x461BCD PUSH1 0xE5 SHL DUP2 MSTORE PUSH1 0x20 PUSH1 0x4 DUP3 ADD MSTORE PUSH1 0x19 PUSH1 0x24 DUP3 ADD MSTORE PUSH32 0x43726564656E7469616C20616C72656164792065786973747300000000000000 PUSH1 0x44 DUP3 ADD MSTORE PUSH1 0x64 ADD PUSH2 0x579 JUMP JUMPDEST PUSH1 0x40 DUP1 MLOAD PUSH2 0x100 DUP2 ADD DUP3 MSTORE DUP5 DUP2 MSTORE PUSH1 0x20 DUP1 DUP3 ADD DUP6 DUP2 MSTORE CALLER DUP4 DUP6 ADD MSTORE PUSH1 0x1 PUSH1 0x1 PUSH1 0xA0 SHL SUB DUP6 AND PUSH1 0x60 DUP5 ADD MSTORE TIMESTAMP PUSH1 0x80 DUP5 ADD MSTORE PUSH1 0x0 PUSH1 0xA0 DUP5 ADD DUP2 SWAP1 MSTORE PUSH1 0xC0 DUP5 ADD DUP2 SWAP1 MSTORE PUSH1 0xE0 DUP5 ADD DUP2 SWAP1 MSTORE DUP8 DUP2 MSTORE PUSH1 0x1 SWAP3 DUP4 SWAP1 MSTORE SWAP4 SWAP1 SWAP4 KECCAK256 DUP3 MLOAD DUP2 SSTORE SWAP3 MLOAD SWAP2 SWAP3 SWAP2 SWAP1 DUP3 ADD SWAP1 PUSH2 0x655 SWAP1 DUP3 PUSH2 0x104B JUMP JUMPDEST POP PUSH1 0x40 DUP3 DUP2 ADD MLOAD PUSH1 0x2 DUP1 DUP5 ADD DUP1 SLOAD PUSH1 0x1 PUSH1 0x1 PUSH1 0xA0 SHL SUB SWAP4 DUP5 AND PUSH1 0x1 PUSH1 0x1 PUSH1 0xA0 SHL SUB NOT SWAP2 DUP3 AND OR SWAP1 SWAP2 SSTORE PUSH1 0x60 DUP7 ADD MLOAD PUSH1 0x3 DUP7 ADD DUP1 SLOAD SWAP2 SWAP1 SWAP5 AND SWAP2 AND OR SWAP1 SWAP2 SSTORE PUSH1 0x80 DUP5 ADD MLOAD PUSH1 0x4 DUP5 ADD SSTORE PUSH1 0xA0 DUP5 ADD MLOAD PUSH1 0x5 DUP5 ADD DUP1 SLOAD PUSH1 0xC0 DUP8 ADD MLOAD ISZERO ISZERO PUSH2 0x100 MUL PUSH2 0xFF00 NOT SWAP4 ISZERO ISZERO SWAP4 SWAP1 SWAP4 AND PUSH2 0xFFFF NOT SWAP1 SWAP2 AND OR SWAP2 SWAP1 SWAP2 OR SWAP1 SSTORE PUSH1 0xE0 SWAP1 SWAP4 ADD MLOAD PUSH1 0x6 SWAP1 SWAP3 ADD SWAP2 SWAP1 SWAP2 SSTORE DUP2 SLOAD PUSH1 0x1 DUP2 ADD DUP4 SSTORE PUSH1 0x0 SWAP3 SWAP1 SWAP3 MSTORE PUSH32 0x405787FA12A823E0F2B7631CC41B3BA8828B3321CA811111FA75CD3AA3BB5ACE SWAP1 SWAP2 ADD DUP5 SWAP1 SSTORE MLOAD DUP4 SWAP1 PUSH32 0x28BBCD290E0668C1C04C3E05DEAF004979031DD675F91768694B84DAB7355377 SWAP1 PUSH2 0x490 SWAP1 DUP6 SWAP1 CALLER SWAP1 DUP7 SWAP1 PUSH2 0x110B JUMP JUMPDEST PUSH1 0x0 PUSH2 0x74E PUSH2 0xC07 JUMP JUMPDEST DUP1 SLOAD SWAP1 SWAP2 POP PUSH1 0xFF PUSH1 0x1 PUSH1 0x40 SHL DUP3 DIV AND ISZERO SWAP1 PUSH8 0xFFFFFFFFFFFFFFFF AND PUSH1 0x0 DUP2 ISZERO DUP1 ISZERO PUSH2 0x776 JUMPI POP DUP3 JUMPDEST SWAP1 POP PUSH1 0x0 DUP3 PUSH8 0xFFFFFFFFFFFFFFFF AND PUSH1 0x1 EQ DUP1 ISZERO PUSH2 0x793 JUMPI POP ADDRESS EXTCODESIZE ISZERO JUMPDEST SWAP1 POP DUP2 ISZERO DUP1 ISZERO PUSH2 0x7A1 JUMPI POP DUP1 ISZERO JUMPDEST ISZERO PUSH2 0x7BF JUMPI PUSH1 0x40 MLOAD PUSH4 0xF92EE8A9 PUSH1 0xE0 SHL DUP2 MSTORE PUSH1 0x4 ADD PUSH1 0x40 MLOAD DUP1 SWAP2 SUB SWAP1 REVERT JUMPDEST DUP5 SLOAD PUSH8 0xFFFFFFFFFFFFFFFF NOT AND PUSH1 0x1 OR DUP6 SSTORE DUP4 ISZERO PUSH2 0x7E9 JUMPI DUP5 SLOAD PUSH1 0xFF PUSH1 0x40 SHL NOT AND PUSH1 0x1 PUSH1 0x40 SHL OR DUP6 SSTORE JUMPDEST PUSH2 0x7F1 PUSH2 0xC30 JUMP JUMPDEST PUSH1 0x0 DUP1 SLOAD PUSH1 0x1 PUSH1 0x1 PUSH1 0xA0 SHL SUB NOT AND PUSH1 0x1 PUSH1 0x1 PUSH1 0xA0 SHL SUB DUP9 AND OR DUP2 SSTORE PUSH2 0x816 SWAP1 CALLER PUSH2 0xAE6 JUMP JUMPDEST POP DUP4 ISZERO PUSH2 0x85D JUMPI DUP5 SLOAD PUSH1 0xFF PUSH1 0x40 SHL NOT AND DUP6 SSTORE PUSH1 0x40 MLOAD PUSH1 0x1 DUP2 MSTORE PUSH32 0xC7F505B2F371AE2175EE4913F4499E1F2633A7B5936321EED1CDAEB6115181D2 SWAP1 PUSH1 0x20 ADD PUSH1 0x40 MLOAD DUP1 SWAP2 SUB SWAP1 LOG1 JUMPDEST POP POP POP POP POP POP JUMP JUMPDEST PUSH1 0x0 DUP2 DUP2 MSTORE PUSH1 0x1 PUSH1 0x20 MSTORE PUSH1 0x40 SWAP1 KECCAK256 PUSH1 0x2 ADD SLOAD PUSH1 0x1 PUSH1 0x1 PUSH1 0xA0 SHL SUB AND CALLER EQ DUP1 PUSH2 0x893 JUMPI POP PUSH2 0x893 PUSH1 0x0 CALLER PUSH2 0x49D JUMP JUMPDEST PUSH2 0x8D0 JUMPI PUSH1 0x40 MLOAD PUSH3 0x461BCD PUSH1 0xE5 SHL DUP2 MSTORE PUSH1 0x20 PUSH1 0x4 DUP3 ADD MSTORE PUSH1 0xE PUSH1 0x24 DUP3 ADD MSTORE PUSH14 0x139BDD08185D5D1A1BDC9A5E9959 PUSH1 0x92 SHL PUSH1 0x44 DUP3 ADD MSTORE PUSH1 0x64 ADD PUSH2 0x579 JUMP JUMPDEST PUSH1 0x0 DUP2 DUP2 MSTORE PUSH1 0x1 PUSH1 0x20 MSTORE PUSH1 0x40 SWAP1 KECCAK256 PUSH1 0x5 ADD SLOAD PUSH1 0xFF AND ISZERO PUSH2 0x924 JUMPI PUSH1 0x40 MLOAD PUSH3 0x461BCD PUSH1 0xE5 SHL DUP2 MSTORE PUSH1 0x20 PUSH1 0x4 DUP3 ADD MSTORE PUSH1 0xF PUSH1 0x24 DUP3 ADD MSTORE PUSH15 0x105B1C9958591E481C995D9BDAD959 PUSH1 0x8A SHL PUSH1 0x44 DUP3 ADD MSTORE PUSH1 0x64 ADD PUSH2 0x579 JUMP JUMPDEST PUSH1 0x0 DUP2 DUP2 MSTORE PUSH1 0x1 PUSH1 0x20 DUP2 SWAP1 MSTORE PUSH1 0x40 DUP1 DUP4 KECCAK256 PUSH1 0x5 ADD DUP1 SLOAD PUSH1 0xFF NOT AND SWAP1 SWAP3 OR SWAP1 SWAP2 SSTORE MLOAD DUP3 SWAP2 PUSH32 0x3CC2375F3FC7711BA27361CDE93880F578742F9F050ACEE766BED662D117BA72 SWAP2 LOG2 POP JUMP JUMPDEST PUSH1 0x40 DUP1 MLOAD PUSH2 0x100 DUP2 ADD DUP3 MSTORE PUSH1 0x0 DUP1 DUP3 MSTORE PUSH1 0x60 PUSH1 0x20 DUP4 ADD DUP2 SWAP1 MSTORE SWAP3 DUP3 ADD DUP2 SWAP1 MSTORE SWAP2 DUP2 ADD DUP3 SWAP1 MSTORE PUSH1 0x80 DUP2 ADD DUP3 SWAP1 MSTORE PUSH1 0xA0 DUP2 ADD DUP3 SWAP1 MSTORE PUSH1 0xC0 DUP2 ADD DUP3 SWAP1 MSTORE PUSH1 0xE0 DUP2 ADD SWAP2 SWAP1 SWAP2 MSTORE PUSH1 0x0 DUP3 DUP2 MSTORE PUSH1 0x1 PUSH1 0x20 DUP2 DUP2 MSTORE PUSH1 0x40 SWAP3 DUP4 SWAP1 KECCAK256 DUP4 MLOAD PUSH2 0x100 DUP2 ADD SWAP1 SWAP5 MSTORE DUP1 SLOAD DUP5 MSTORE SWAP2 DUP3 ADD DUP1 SLOAD SWAP2 DUP5 ADD SWAP2 PUSH2 0x9E1 SWAP1 PUSH2 0xFAC JUMP JUMPDEST DUP1 PUSH1 0x1F ADD PUSH1 0x20 DUP1 SWAP2 DIV MUL PUSH1 0x20 ADD PUSH1 0x40 MLOAD SWAP1 DUP2 ADD PUSH1 0x40 MSTORE DUP1 SWAP3 SWAP2 SWAP1 DUP2 DUP2 MSTORE PUSH1 0x20 ADD DUP3 DUP1 SLOAD PUSH2 0xA0D SWAP1 PUSH2 0xFAC JUMP JUMPDEST DUP1 ISZERO PUSH2 0xA5A JUMPI DUP1 PUSH1 0x1F LT PUSH2 0xA2F JUMPI PUSH2 0x100 DUP1 DUP4 SLOAD DIV MUL DUP4 MSTORE SWAP2 PUSH1 0x20 ADD SWAP2 PUSH2 0xA5A JUMP JUMPDEST DUP3 ADD SWAP2 SWAP1 PUSH1 0x0 MSTORE PUSH1 0x20 PUSH1 0x0 KECCAK256 SWAP1 JUMPDEST DUP2 SLOAD DUP2 MSTORE SWAP1 PUSH1 0x1 ADD SWAP1 PUSH1 0x20 ADD DUP1 DUP4 GT PUSH2 0xA3D JUMPI DUP3 SWAP1 SUB PUSH1 0x1F AND DUP3 ADD SWAP2 JUMPDEST POP POP POP SWAP2 DUP4 MSTORE POP POP PUSH1 0x2 DUP3 ADD SLOAD PUSH1 0x1 PUSH1 0x1 PUSH1 0xA0 SHL SUB SWAP1 DUP2 AND PUSH1 0x20 DUP4 ADD MSTORE PUSH1 0x3 DUP4 ADD SLOAD AND PUSH1 0x40 DUP3 ADD MSTORE PUSH1 0x4 DUP3 ADD SLOAD PUSH1 0x60 DUP3 ADD MSTORE PUSH1 0x5 DUP3 ADD SLOAD PUSH1 0xFF DUP1 DUP3 AND ISZERO ISZERO PUSH1 0x80 DUP5 ADD MSTORE PUSH2 0x100 SWAP1 SWAP2 DIV AND ISZERO ISZERO PUSH1 0xA0 DUP3 ADD MSTORE PUSH1 0x6 SWAP1 SWAP2 ADD SLOAD PUSH1 0xC0 SWAP1 SWAP2 ADD MSTORE SWAP3 SWAP2 POP POP JUMP JUMPDEST PUSH2 0xAC6 DUP3 PUSH2 0x2A1 JUMP JUMPDEST PUSH2 0xACF DUP2 PUSH2 0xAD9 JUMP JUMPDEST PUSH2 0x3BC DUP4 DUP4 PUSH2 0xB8B JUMP JUMPDEST PUSH2 0xAE3 DUP2 CALLER PUSH2 0xC3A JUMP JUMPDEST POP JUMP JUMPDEST PUSH1 0x0 PUSH1 0x0 DUP1 MLOAD PUSH1 0x20 PUSH2 0x113F DUP4 CODECOPY DUP2 MLOAD SWAP2 MSTORE PUSH2 0xB01 DUP5 DUP5 PUSH2 0x49D JUMP JUMPDEST PUSH2 0xB81 JUMPI PUSH1 0x0 DUP5 DUP2 MSTORE PUSH1 0x20 DUP3 DUP2 MSTORE PUSH1 0x40 DUP1 DUP4 KECCAK256 PUSH1 0x1 PUSH1 0x1 PUSH1 0xA0 SHL SUB DUP8 AND DUP5 MSTORE SWAP1 SWAP2 MSTORE SWAP1 KECCAK256 DUP1 SLOAD PUSH1 0xFF NOT AND PUSH1 0x1 OR SWAP1 SSTORE PUSH2 0xB37 CALLER SWAP1 JUMP JUMPDEST PUSH1 0x1 PUSH1 0x1 PUSH1 0xA0 SHL SUB AND DUP4 PUSH1 0x1 PUSH1 0x1 PUSH1 0xA0 SHL SUB AND DUP6 PUSH32 0x2F8788117E7EFF1D82E926EC794901D17C78024A50270940304540A733656F0D PUSH1 0x40 MLOAD PUSH1 0x40 MLOAD DUP1 SWAP2 SUB SWAP1 LOG4 PUSH1 0x1 SWAP2 POP POP PUSH2 0x29B JUMP JUMPDEST PUSH1 0x0 SWAP2 POP POP PUSH2 0x29B JUMP JUMPDEST PUSH1 0x0 PUSH1 0x0 DUP1 MLOAD PUSH1 0x20 PUSH2 0x113F DUP4 CODECOPY DUP2 MLOAD SWAP2 MSTORE PUSH2 0xBA6 DUP5 DUP5 PUSH2 0x49D JUMP JUMPDEST ISZERO PUSH2 0xB81 JUMPI PUSH1 0x0 DUP5 DUP2 MSTORE PUSH1 0x20 DUP3 DUP2 MSTORE PUSH1 0x40 DUP1 DUP4 KECCAK256 PUSH1 0x1 PUSH1 0x1 PUSH1 0xA0 SHL SUB DUP8 AND DUP1 DUP6 MSTORE SWAP3 MSTORE DUP1 DUP4 KECCAK256 DUP1 SLOAD PUSH1 0xFF NOT AND SWAP1 SSTORE MLOAD CALLER SWAP3 DUP8 SWAP2 PUSH32 0xF6391F5C32D9C69D2A47EA670B442974B53935D1EDC7FD64EB21E047A839171B SWAP2 SWAP1 LOG4 PUSH1 0x1 SWAP2 POP POP PUSH2 0x29B JUMP JUMPDEST PUSH1 0x0 DUP1 PUSH32 0xF0C57E16840DF040F15088DC2F81FE391C3923BEC73E23A9662EFC9C229C6A00 PUSH2 0x29B JUMP JUMPDEST PUSH2 0xC38 PUSH2 0xC77 JUMP JUMPDEST JUMP JUMPDEST PUSH2 0xC44 DUP3 DUP3 PUSH2 0x49D JUMP JUMPDEST PUSH2 0xC73 JUMPI PUSH1 0x40 MLOAD PUSH4 0xE2517D3F PUSH1 0xE0 SHL DUP2 MSTORE PUSH1 0x1 PUSH1 0x1 PUSH1 0xA0 SHL SUB DUP3 AND PUSH1 0x4 DUP3 ADD MSTORE PUSH1 0x24 DUP2 ADD DUP4 SWAP1 MSTORE PUSH1 0x44 ADD PUSH2 0x579 JUMP JUMPDEST POP POP JUMP JUMPDEST PUSH2 0xC7F PUSH2 0xC9C JUMP JUMPDEST PUSH2 0xC38 JUMPI PUSH1 0x40 MLOAD PUSH4 0x1AFCD79F PUSH1 0xE3 SHL DUP2 MSTORE PUSH1 0x4 ADD PUSH1 0x40 MLOAD DUP1 SWAP2 SUB SWAP1 REVERT JUMPDEST PUSH1 0x0 PUSH2 0xCA6 PUSH2 0xC07 JUMP JUMPDEST SLOAD PUSH1 0x1 PUSH1 0x40 SHL SWAP1 DIV PUSH1 0xFF AND SWAP2 SWAP1 POP JUMP JUMPDEST PUSH1 0x0 PUSH1 0x20 DUP3 DUP5 SUB SLT ISZERO PUSH2 0xCC8 JUMPI PUSH1 0x0 DUP1 REVERT JUMPDEST DUP2 CALLDATALOAD PUSH1 0x1 PUSH1 0x1 PUSH1 0xE0 SHL SUB NOT DUP2 AND DUP2 EQ PUSH2 0xCE0 JUMPI PUSH1 0x0 DUP1 REVERT JUMPDEST SWAP4 SWAP3 POP POP POP JUMP JUMPDEST PUSH1 0x0 PUSH1 0x20 DUP3 DUP5 SUB SLT ISZERO PUSH2 0xCF9 JUMPI PUSH1 0x0 DUP1 REVERT JUMPDEST POP CALLDATALOAD SWAP2 SWAP1 POP JUMP JUMPDEST PUSH1 0x0 DUP2 MLOAD DUP1 DUP5 MSTORE PUSH1 0x0 JUMPDEST DUP2 DUP2 LT ISZERO PUSH2 0xD26 JUMPI PUSH1 0x20 DUP2 DUP6 ADD DUP2 ADD MLOAD DUP7 DUP4 ADD DUP3 ADD MSTORE ADD PUSH2 0xD0A JUMP JUMPDEST POP PUSH1 0x0 PUSH1 0x20 DUP3 DUP7 ADD ADD MSTORE PUSH1 0x20 PUSH1 0x1F NOT PUSH1 0x1F DUP4 ADD AND DUP6 ADD ADD SWAP2 POP POP SWAP3 SWAP2 POP POP JUMP JUMPDEST PUSH1 0x0 PUSH2 0x100 DUP11 DUP4 MSTORE DUP1 PUSH1 0x20 DUP5 ADD MSTORE PUSH2 0xD60 DUP2 DUP5 ADD DUP12 PUSH2 0xD00 JUMP JUMPDEST PUSH1 0x1 PUSH1 0x1 PUSH1 0xA0 SHL SUB SWAP10 DUP11 AND PUSH1 0x40 DUP6 ADD MSTORE SWAP8 SWAP1 SWAP9 AND PUSH1 0x60 DUP4 ADD MSTORE POP PUSH1 0x80 DUP2 ADD SWAP5 SWAP1 SWAP5 MSTORE SWAP2 ISZERO ISZERO PUSH1 0xA0 DUP5 ADD MSTORE ISZERO ISZERO PUSH1 0xC0 DUP4 ADD MSTORE PUSH1 0xE0 SWAP1 SWAP2 ADD MSTORE SWAP4 SWAP3 POP POP POP JUMP JUMPDEST DUP1 CALLDATALOAD PUSH1 0x1 PUSH1 0x1 PUSH1 0xA0 SHL SUB DUP2 AND DUP2 EQ PUSH2 0xDB5 JUMPI PUSH1 0x0 DUP1 REVERT JUMPDEST SWAP2 SWAP1 POP JUMP JUMPDEST PUSH1 0x0 DUP1 PUSH1 0x40 DUP4 DUP6 SUB SLT ISZERO PUSH2 0xDCD JUMPI PUSH1 0x0 DUP1 REVERT JUMPDEST DUP3 CALLDATALOAD SWAP2 POP PUSH2 0xDDD PUSH1 0x20 DUP5 ADD PUSH2 0xD9E JUMP JUMPDEST SWAP1 POP SWAP3 POP SWAP3 SWAP1 POP JUMP JUMPDEST DUP1 ISZERO ISZERO DUP2 EQ PUSH2 0xAE3 JUMPI PUSH1 0x0 DUP1 REVERT JUMPDEST PUSH1 0x0 DUP1 PUSH1 0x40 DUP4 DUP6 SUB SLT ISZERO PUSH2 0xE07 JUMPI PUSH1 0x0 DUP1 REVERT JUMPDEST DUP3 CALLDATALOAD SWAP2 POP PUSH1 0x20 DUP4 ADD CALLDATALOAD PUSH2 0xE19 DUP2 PUSH2 0xDE6 JUMP JUMPDEST DUP1 SWAP2 POP POP SWAP3 POP SWAP3 SWAP1 POP JUMP JUMPDEST PUSH4 0x4E487B71 PUSH1 0xE0 SHL PUSH1 0x0 MSTORE PUSH1 0x41 PUSH1 0x4 MSTORE PUSH1 0x24 PUSH1 0x0 REVERT JUMPDEST PUSH1 0x0 DUP1 PUSH1 0x0 PUSH1 0x60 DUP5 DUP7 SUB SLT ISZERO PUSH2 0xE4F JUMPI PUSH1 0x0 DUP1 REVERT JUMPDEST DUP4 CALLDATALOAD SWAP3 POP PUSH1 0x20 DUP5 ADD CALLDATALOAD PUSH8 0xFFFFFFFFFFFFFFFF DUP1 DUP3 GT ISZERO PUSH2 0xE6E JUMPI PUSH1 0x0 DUP1 REVERT JUMPDEST DUP2 DUP7 ADD SWAP2 POP DUP7 PUSH1 0x1F DUP4 ADD SLT PUSH2 0xE82 JUMPI PUSH1 0x0 DUP1 REVERT JUMPDEST DUP2 CALLDATALOAD DUP2 DUP2 GT ISZERO PUSH2 0xE94 JUMPI PUSH2 0xE94 PUSH2 0xE24 JUMP JUMPDEST PUSH1 0x40 MLOAD PUSH1 0x1F DUP3 ADD PUSH1 0x1F NOT SWAP1 DUP2 AND PUSH1 0x3F ADD AND DUP2 ADD SWAP1 DUP4 DUP3 GT DUP2 DUP4 LT OR ISZERO PUSH2 0xEBC JUMPI PUSH2 0xEBC PUSH2 0xE24 JUMP JUMPDEST DUP2 PUSH1 0x40 MSTORE DUP3 DUP2 MSTORE DUP10 PUSH1 0x20 DUP5 DUP8 ADD ADD GT ISZERO PUSH2 0xED5 JUMPI PUSH1 0x0 DUP1 REVERT JUMPDEST DUP3 PUSH1 0x20 DUP7 ADD PUSH1 0x20 DUP4 ADD CALLDATACOPY PUSH1 0x0 PUSH1 0x20 DUP5 DUP4 ADD ADD MSTORE DUP1 SWAP7 POP POP POP POP POP POP PUSH2 0xEFC PUSH1 0x40 DUP6 ADD PUSH2 0xD9E JUMP JUMPDEST SWAP1 POP SWAP3 POP SWAP3 POP SWAP3 JUMP JUMPDEST PUSH1 0x0 PUSH1 0x20 DUP3 DUP5 SUB SLT ISZERO PUSH2 0xF17 JUMPI PUSH1 0x0 DUP1 REVERT JUMPDEST PUSH2 0xCE0 DUP3 PUSH2 0xD9E JUMP JUMPDEST PUSH1 0x20 DUP2 MSTORE DUP2 MLOAD PUSH1 0x20 DUP3 ADD MSTORE PUSH1 0x0 PUSH1 0x20 DUP4 ADD MLOAD PUSH2 0x100 DUP1 PUSH1 0x40 DUP6 ADD MSTORE PUSH2 0xF49 PUSH2 0x120 DUP6 ADD DUP4 PUSH2 0xD00 JUMP JUMPDEST SWAP2 POP PUSH1 0x40 DUP6 ADD MLOAD PUSH1 0x1 DUP1 PUSH1 0xA0 SHL SUB DUP1 DUP3 AND PUSH1 0x60 DUP8 ADD MSTORE DUP1 PUSH1 0x60 DUP9 ADD MLOAD AND PUSH1 0x80 DUP8 ADD MSTORE POP POP PUSH1 0x80 DUP6 ADD MLOAD PUSH1 0xA0 DUP6 ADD MSTORE PUSH1 0xA0 DUP6 ADD MLOAD PUSH2 0xF8A PUSH1 0xC0 DUP7 ADD DUP3 ISZERO ISZERO SWAP1 MSTORE JUMP JUMPDEST POP PUSH1 0xC0 DUP6 ADD MLOAD DUP1 ISZERO ISZERO PUSH1 0xE0 DUP7 ADD MSTORE POP PUSH1 0xE0 SWAP5 SWAP1 SWAP5 ADD MLOAD SWAP3 SWAP1 SWAP4 ADD SWAP2 SWAP1 SWAP2 MSTORE POP SWAP1 JUMP JUMPDEST PUSH1 0x1 DUP2 DUP2 SHR SWAP1 DUP3 AND DUP1 PUSH2 0xFC0 JUMPI PUSH1 0x7F DUP3 AND SWAP2 POP JUMPDEST PUSH1 0x20 DUP3 LT DUP2 SUB PUSH2 0xFE0 JUMPI PUSH4 0x4E487B71 PUSH1 0xE0 SHL PUSH1 0x0 MSTORE PUSH1 0x22 PUSH1 0x4 MSTORE PUSH1 0x24 PUSH1 0x0 REVERT JUMPDEST POP SWAP2 SWAP1 POP JUMP JUMPDEST PUSH1 0x0 PUSH1 0x20 DUP3 DUP5 SUB SLT ISZERO PUSH2 0xFF8 JUMPI PUSH1 0x0 DUP1 REVERT JUMPDEST DUP2 MLOAD PUSH2 0xCE0 DUP2 PUSH2 0xDE6 JUMP JUMPDEST PUSH1 0x1F DUP3 GT ISZERO PUSH2 0x3F5 JUMPI PUSH1 0x0 DUP2 PUSH1 0x0 MSTORE PUSH1 0x20 PUSH1 0x0 KECCAK256 PUSH1 0x1F DUP6 ADD PUSH1 0x5 SHR DUP2 ADD PUSH1 0x20 DUP7 LT ISZERO PUSH2 0x102C JUMPI POP DUP1 JUMPDEST PUSH1 0x1F DUP6 ADD PUSH1 0x5 SHR DUP3 ADD SWAP2 POP JUMPDEST DUP2 DUP2 LT ISZERO PUSH2 0x85D JUMPI DUP3 DUP2 SSTORE PUSH1 0x1 ADD PUSH2 0x1038 JUMP JUMPDEST DUP2 MLOAD PUSH8 0xFFFFFFFFFFFFFFFF DUP2 GT ISZERO PUSH2 0x1065 JUMPI PUSH2 0x1065 PUSH2 0xE24 JUMP JUMPDEST PUSH2 0x1079 DUP2 PUSH2 0x1073 DUP5 SLOAD PUSH2 0xFAC JUMP JUMPDEST DUP5 PUSH2 0x1003 JUMP JUMPDEST PUSH1 0x20 DUP1 PUSH1 0x1F DUP4 GT PUSH1 0x1 DUP2 EQ PUSH2 0x10AE JUMPI PUSH1 0x0 DUP5 ISZERO PUSH2 0x1096 JUMPI POP DUP6 DUP4 ADD MLOAD JUMPDEST PUSH1 0x0 NOT PUSH1 0x3 DUP7 SWAP1 SHL SHR NOT AND PUSH1 0x1 DUP6 SWAP1 SHL OR DUP6 SSTORE PUSH2 0x85D JUMP JUMPDEST PUSH1 0x0 DUP6 DUP2 MSTORE PUSH1 0x20 DUP2 KECCAK256 PUSH1 0x1F NOT DUP7 AND SWAP2 JUMPDEST DUP3 DUP2 LT ISZERO PUSH2 0x10DD JUMPI DUP9 DUP7 ADD MLOAD DUP3 SSTORE SWAP5 DUP5 ADD SWAP5 PUSH1 0x1 SWAP1 SWAP2 ADD SWAP1 DUP5 ADD PUSH2 0x10BE JUMP JUMPDEST POP DUP6 DUP3 LT ISZERO PUSH2 0x10FB JUMPI DUP8 DUP6 ADD MLOAD PUSH1 0x0 NOT PUSH1 0x3 DUP9 SWAP1 SHL PUSH1 0xF8 AND SHR NOT AND DUP2 SSTORE JUMPDEST POP POP POP POP POP PUSH1 0x1 SWAP1 DUP2 SHL ADD SWAP1 SSTORE POP JUMP JUMPDEST PUSH1 0x60 DUP2 MSTORE PUSH1 0x0 PUSH2 0x111E PUSH1 0x60 DUP4 ADD DUP7 PUSH2 0xD00 JUMP JUMPDEST PUSH1 0x1 PUSH1 0x1 PUSH1 0xA0 SHL SUB SWAP5 DUP6 AND PUSH1 0x20 DUP5 ADD MSTORE SWAP3 SWAP1 SWAP4 AND PUSH1 0x40 SWAP1 SWAP2 ADD MSTORE SWAP3 SWAP2 POP POP JUMP INVALID MUL 0xDD PUSH28 0xC7DEC4DCEEDDA775E58DD541E08A116C6C53815C0BD028192F7B6268 STOP LOG2 PUSH5 0x6970667358 0x22 SLT KECCAK256 0xC3 0xB8 STOP 0xE4 SWAP2 DUP8 SWAP2 0xFC ISZERO 0x27 0x4C CALLDATASIZE 0xDB DUP14 0xAB 0xBB 0xDD 0xE0 0xD9 CHAINID COINBASE 0xAF SWAP13 0xE9 SWAP7 BLOBHASH ORIGIN 0x23 0x1E 0xC7 0xBC 0xAF PUSH5 0x736F6C6343 STOP ADDMOD XOR STOP CALLER "},"methodIdentifiers":{"DEFAULT_ADMIN_ROLE()":"a217fddf","allCredentialHashes(uint256)":"396dc08d","credentials(bytes32)":"299d0348","didRegistry()":"577f9fb1","getCredential(bytes32)":"d1be4883","getRoleAdmin(bytes32)":"248a9ca3","grantRole(bytes32,address)":"2f2ff15d","hasRole(bytes32,address)":"91d14854","initialize(address)":"c4d66de8","issueCredential(bytes32,string,address)":"baf96d45","renounceRole(bytes32,address)":"36568abe","revokeCredential(bytes32)":"ca6eec78","revokeRole(bytes32,address)":"d547741f","setVerificationStatus(bytes32,bool)":"60457034","supportsInterface(bytes4)":"01ffc9a7"}}}}}