{
  "_format": "hh-sol-artifact-1",
  "contractName": "CommitmentRegistry",
  "sourceName": "contracts/CommitmentRegistry.sol",
  "abi": [
    {
      "inputs": [
        {
          "internalType": "address",
          "name": "_userRegistry",
          "type": "address"
        }
      ],
      "stateMutability": "nonpayable",
      "type": "constructor"
    },
    {
      "anonymous": false,
      "inputs": [
        {
          "indexed": true,
          "internalType": "address",
          "name": "user",
          "type": "address"
        },
        {
          "indexed": false,
          "internalType": "uint256",
          "name": "timestamp",
          "type": "uint256"
        }
      ],
      "name": "CommitmentRevoked",
      "type": "event"
    },
    {
      "anonymous": false,
      "inputs": [
        {
          "indexed": true,
          "internalType": "address",
          "name": "user",
          "type": "address"
        },
        {
          "indexed": false,
          "internalType": "bytes32",
          "name": "commitmentValue",
          "type": "bytes32"
        },
        {
          "indexed": false,
          "internalType": "uint256",
          "name": "timestamp",
          "type": "uint256"
        }
      ],
      "name": "CommitmentSet",
      "type": "event"
    },
    {
      "anonymous": false,
      "inputs": [
        {
          "indexed": true,
          "internalType": "address",
          "name": "user",
          "type": "address"
        },
        {
          "indexed": false,
          "internalType": "bytes32",
          "name": "oldValue",
          "type": "bytes32"
        },
        {
          "indexed": false,
          "internalType": "bytes32",
          "name": "newValue",
          "type": "bytes32"
        },
        {
          "indexed": false,
          "internalType": "uint256",
          "name": "timestamp",
          "type": "uint256"
        }
      ],
      "name": "CommitmentUpdated",
      "type": "event"
    },
    {
      "inputs": [
        {
          "internalType": "address",
          "name": "",
          "type": "address"
        }
      ],
      "name": "commitments",
      "outputs": [
        {
          "internalType": "bytes32",
          "name": "value",
          "type": "bytes32"
        },
        {
          "internalType": "uint256",
          "name": "timestamp",
          "type": "uint256"
        },
        {
          "internalType": "string",
          "name": "metadataCID",
          "type": "string"
        }
      ],
      "stateMutability": "view",
      "type": "function"
    },
    {
      "inputs": [
        {
          "internalType": "address",
          "name": "_user",
          "type": "address"
        }
      ],
      "name": "getCommitment",
      "outputs": [
        {
          "components": [
            {
              "internalType": "bytes32",
              "name": "value",
              "type": "bytes32"
            },
            {
              "internalType": "uint256",
              "name": "timestamp",
              "type": "uint256"
            },
            {
              "internalType": "string",
              "name": "metadataCID",
              "type": "string"
            }
          ],
          "internalType": "struct CommitmentRegistry.Commitment",
          "name": "",
          "type": "tuple"
        }
      ],
      "stateMutability": "view",
      "type": "function"
    },
    {
      "inputs": [
        {
          "internalType": "address",
          "name": "_user",
          "type": "address"
        }
      ],
      "name": "hasCommitment",
      "outputs": [
        {
          "internalType": "bool",
          "name": "",
          "type": "bool"
        }
      ],
      "stateMutability": "view",
      "type": "function"
    },
    {
      "inputs": [],
      "name": "revokeCommitment",
      "outputs": [],
      "stateMutability": "nonpayable",
      "type": "function"
    },
    {
      "inputs": [
        {
          "internalType": "bytes32",
          "name": "_commitment",
          "type": "bytes32"
        },
        {
          "internalType": "string",
          "name": "_metadataCID",
          "type": "string"
        }
      ],
      "name": "setCommitment",
      "outputs": [],
      "stateMutability": "nonpayable",
      "type": "function"
    },
    {
      "inputs": [],
      "name": "userRegistry",
      "outputs": [
        {
          "internalType": "contract UserRegistry",
          "name": "",
          "type": "address"
        }
      ],
      "stateMutability": "view",
      "type": "function"
    }
  ],
  "bytecode": "0x608060405234801561001057600080fd5b50604051610b39380380610b3983398101604081905261002f91610054565b600180546001600160a01b0319166001600160a01b0392909216919091179055610084565b60006020828403121561006657600080fd5b81516001600160a01b038116811461007d57600080fd5b9392505050565b610aa6806100936000396000f3fe608060405234801561001057600080fd5b50600436106100625760003560e01c806312aa7627146100675780635c7460d6146100715780636c1500e4146100a1578063a47e5b69146100dc578063e8fcf723146100ef578063fa1026dd14610111575b600080fd5b61006f610131565b005b600154610084906001600160a01b031681565b6040516001600160a01b0390911681526020015b60405180910390f35b6100cc6100af36600461075b565b6001600160a01b0316600090815260208190526040902054151590565b6040519015158152602001610098565b61006f6100ea36600461078b565b6102f4565b6101026100fd36600461075b565b610562565b6040516100989392919061084d565b61012461011f36600461075b565b61060d565b6040516100989190610875565b600154604051636a6bd8cd60e11b81523360048201819052916001600160a01b03169063d4d7b19a90602401602060405180830381865afa15801561017a573d6000803e3d6000fd5b505050506040513d601f19601f8201168201806040525081019061019e91906108ac565b80610212575060015460405163877b9a6760e01b81526001600160a01b0383811660048301529091169063877b9a6790602401602060405180830381865afa1580156101ee573d6000803e3d6000fd5b505050506040513d601f19601f8201168201806040525081019061021291906108ac565b6102375760405162461bcd60e51b815260040161022e906108ce565b60405180910390fd5b336000908152602081905260409020546102935760405162461bcd60e51b815260206004820152601760248201527f4e6f20636f6d6d69746d656e7420746f207265766f6b65000000000000000000604482015260640161022e565b33600090815260208190526040812081815560018101829055906102ba6002830182610705565b505060405142815233907fb2c20f271cdd5e910a65fc7bafac16afdb1d30a7c296d81fee3046dea9ccdd629060200160405180910390a250565b600154604051636a6bd8cd60e11b81523360048201819052916001600160a01b03169063d4d7b19a90602401602060405180830381865afa15801561033d573d6000803e3d6000fd5b505050506040513d601f19601f8201168201806040525081019061036191906108ac565b806103d5575060015460405163877b9a6760e01b81526001600160a01b0383811660048301529091169063877b9a6790602401602060405180830381865afa1580156103b1573d6000803e3d6000fd5b505050506040513d601f19601f820116820180604052508101906103d591906108ac565b6103f15760405162461bcd60e51b815260040161022e906108ce565b8361043e5760405162461bcd60e51b815260206004820152601960248201527f436f6d6d69746d656e742063616e6e6f74206265207a65726f00000000000000604482015260640161022e565b33600090815260208190526040902080541561049d5780546040805191825260208201879052429082015233907f8cef94656dd6545ed712196c52d64156775bb27d14b6e3f20ef5f2a4c6ad84999060600160405180910390a26104d8565b6040805186815242602082015233917fa259cba2d7ef675c30b2361dd12e81680f0e28fadf4461007df2eba543bc3019910160405180910390a25b604051806060016040528086815260200142815260200185858080601f016020809104026020016040519081016040528093929190818152602001838380828437600092018290525093909452505033815260208181526040918290208451815590840151600182015590830151909150600282019061055890826109b0565b5050505050505050565b6000602081905290815260409020805460018201546002830180549293919261058a90610925565b80601f01602080910402602001604051908101604052809291908181526020018280546105b690610925565b80156106035780601f106105d857610100808354040283529160200191610603565b820191906000526020600020905b8154815290600101906020018083116105e657829003601f168201915b5050505050905083565b60408051606080820183526000808352602083015291810191909152600080836001600160a01b03166001600160a01b03168152602001908152602001600020604051806060016040529081600082015481526020016001820154815260200160028201805461067c90610925565b80601f01602080910402602001604051908101604052809291908181526020018280546106a890610925565b80156106f55780601f106106ca576101008083540402835291602001916106f5565b820191906000526020600020905b8154815290600101906020018083116106d857829003601f168201915b5050505050815250509050919050565b50805461071190610925565b6000825580601f10610721575050565b601f01602090049060005260206000209081019061073f9190610742565b50565b5b808211156107575760008155600101610743565b5090565b60006020828403121561076d57600080fd5b81356001600160a01b038116811461078457600080fd5b9392505050565b6000806000604084860312156107a057600080fd5b83359250602084013567ffffffffffffffff808211156107bf57600080fd5b818601915086601f8301126107d357600080fd5b8135818111156107e257600080fd5b8760208285010111156107f457600080fd5b6020830194508093505050509250925092565b6000815180845260005b8181101561082d57602081850181015186830182015201610811565b506000602082860101526020601f19601f83011685010191505092915050565b83815282602082015260606040820152600061086c6060830184610807565b95945050505050565b602081528151602082015260208201516040820152600060408301516060808401526108a46080840182610807565b949350505050565b6000602082840312156108be57600080fd5b8151801515811461078457600080fd5b60208082526021908201527f55736572206e6f742072656769737465726564206f72206e6f742061637469766040820152606560f81b606082015260800190565b634e487b7160e01b600052604160045260246000fd5b600181811c9082168061093957607f821691505b60208210810361095957634e487b7160e01b600052602260045260246000fd5b50919050565b601f8211156109ab576000816000526020600020601f850160051c810160208610156109885750805b601f850160051c820191505b818110156109a757828155600101610994565b5050505b505050565b815167ffffffffffffffff8111156109ca576109ca61090f565b6109de816109d88454610925565b8461095f565b602080601f831160018114610a1357600084156109fb5750858301515b600019600386901b1c1916600185901b1785556109a7565b600085815260208120601f198616915b82811015610a4257888601518255948401946001909101908401610a23565b5085821015610a605787850151600019600388901b60f8161c191681555b5050505050600190811b0190555056fea2646970667358221220c23cbc21fdf7ee2d26f0727a631abea9e66be07cd64caa33412b839f4c9a2fe864736f6c63430008180033",
  "linkReferences": {},
  "deployedLinkReferences": {}
}