{
  "_format": "hh-sol-artifact-1",
  "contractName": "DIDRegistry",
  "sourceName": "contracts/DIDRegistry.sol",
  "abi": [
    {
      "inputs": [],
      "name": "AccessControlBadConfirmation",
      "type": "error"
    },
    {
      "inputs": [
        {
          "internalType": "address",
          "name": "account",
          "type": "address"
        },
        {
          "internalType": "bytes32",
          "name": "neededRole",
          "type": "bytes32"
        }
      ],
      "name": "AccessControlUnauthorizedAccount",
      "type": "error"
    },
    {
      "inputs": [],
      "name": "InvalidInitialization",
      "type": "error"
    },
    {
      "inputs": [],
      "name": "NotInitializing",
      "type": "error"
    },
    {
      "anonymous": false,
      "inputs": [
        {
          "indexed": true,
          "internalType": "address",
          "name": "owner",
          "type": "address"
        }
      ],
      "name": "DIDDeactivated",
      "type": "event"
    },
    {
      "anonymous": false,
      "inputs": [
        {
          "indexed": true,
          "internalType": "address",
          "name": "owner",
          "type": "address"
        },
        {
          "indexed": false,
          "internalType": "bytes",
          "name": "hybridPublicKey",
          "type": "bytes"
        },
        {
          "indexed": false,
          "internalType": "uint256",
          "name": "timestamp",
          "type": "uint256"
        }
      ],
      "name": "DIDRegistered",
      "type": "event"
    },
    {
      "anonymous": false,
      "inputs": [
        {
          "indexed": false,
          "internalType": "uint64",
          "name": "version",
          "type": "uint64"
        }
      ],
      "name": "Initialized",
      "type": "event"
    },
    {
      "anonymous": false,
      "inputs": [
        {
          "indexed": true,
          "internalType": "bytes32",
          "name": "role",
          "type": "bytes32"
        },
        {
          "indexed": true,
          "internalType": "bytes32",
          "name": "previousAdminRole",
          "type": "bytes32"
        },
        {
          "indexed": true,
          "internalType": "bytes32",
          "name": "newAdminRole",
          "type": "bytes32"
        }
      ],
      "name": "RoleAdminChanged",
      "type": "event"
    },
    {
      "anonymous": false,
      "inputs": [
        {
          "indexed": true,
          "internalType": "bytes32",
          "name": "role",
          "type": "bytes32"
        },
        {
          "indexed": true,
          "internalType": "address",
          "name": "account",
          "type": "address"
        },
        {
          "indexed": true,
          "internalType": "address",
          "name": "sender",
          "type": "address"
        }
      ],
      "name": "RoleGranted",
      "type": "event"
    },
    {
      "anonymous": false,
      "inputs": [
        {
          "indexed": true,
          "internalType": "bytes32",
          "name": "role",
          "type": "bytes32"
        },
        {
          "indexed": true,
          "internalType": "address",
          "name": "account",
          "type": "address"
        },
        {
          "indexed": true,
          "internalType": "address",
          "name": "sender",
          "type": "address"
        }
      ],
      "name": "RoleRevoked",
      "type": "event"
    },
    {
      "inputs": [],
      "name": "DEFAULT_ADMIN_ROLE",
      "outputs": [
        {
          "internalType": "bytes32",
          "name": "",
          "type": "bytes32"
        }
      ],
      "stateMutability": "view",
      "type": "function"
    },
    {
      "inputs": [],
      "name": "ISSUER_ROLE",
      "outputs": [
        {
          "internalType": "bytes32",
          "name": "",
          "type": "bytes32"
        }
      ],
      "stateMutability": "view",
      "type": "function"
    },
    {
      "inputs": [
        {
          "internalType": "uint256",
          "name": "",
          "type": "uint256"
        }
      ],
      "name": "allDIDs",
      "outputs": [
        {
          "internalType": "address",
          "name": "",
          "type": "address"
        }
      ],
      "stateMutability": "view",
      "type": "function"
    },
    {
      "inputs": [],
      "name": "deactivateDID",
      "outputs": [],
      "stateMutability": "nonpayable",
      "type": "function"
    },
    {
      "inputs": [
        {
          "internalType": "address",
          "name": "",
          "type": "address"
        }
      ],
      "name": "dids",
      "outputs": [
        {
          "internalType": "address",
          "name": "owner",
          "type": "address"
        },
        {
          "internalType": "bytes",
          "name": "hybridPublicKey",
          "type": "bytes"
        },
        {
          "internalType": "uint256",
          "name": "registeredAt",
          "type": "uint256"
        },
        {
          "internalType": "bool",
          "name": "active",
          "type": "bool"
        }
      ],
      "stateMutability": "view",
      "type": "function"
    },
    {
      "inputs": [
        {
          "internalType": "bytes32",
          "name": "role",
          "type": "bytes32"
        }
      ],
      "name": "getRoleAdmin",
      "outputs": [
        {
          "internalType": "bytes32",
          "name": "",
          "type": "bytes32"
        }
      ],
      "stateMutability": "view",
      "type": "function"
    },
    {
      "inputs": [
        {
          "internalType": "address",
          "name": "account",
          "type": "address"
        }
      ],
      "name": "grantIssuerRole",
      "outputs": [],
      "stateMutability": "nonpayable",
      "type": "function"
    },
    {
      "inputs": [
        {
          "internalType": "bytes32",
          "name": "role",
          "type": "bytes32"
        },
        {
          "internalType": "address",
          "name": "account",
          "type": "address"
        }
      ],
      "name": "grantRole",
      "outputs": [],
      "stateMutability": "nonpayable",
      "type": "function"
    },
    {
      "inputs": [
        {
          "internalType": "bytes32",
          "name": "role",
          "type": "bytes32"
        },
        {
          "internalType": "address",
          "name": "account",
          "type": "address"
        }
      ],
      "name": "hasRole",
      "outputs": [
        {
          "internalType": "bool",
          "name": "",
          "type": "bool"
        }
      ],
      "stateMutability": "view",
      "type": "function"
    },
    {
      "inputs": [],
      "name": "initialize",
      "outputs": [],
      "stateMutability": "nonpayable",
      "type": "function"
    },
    {
      "inputs": [
        {
          "internalType": "address",
          "name": "account",
          "type": "address"
        }
      ],
      "name": "isIssuer",
      "outputs": [
        {
          "internalType": "bool",
          "name": "",
          "type": "bool"
        }
      ],
      "stateMutability": "view",
      "type": "function"
    },
    {
      "inputs": [
        {
          "internalType": "bytes",
          "name": "_hybridPublicKey",
          "type": "bytes"
        }
      ],
      "name": "registerDID",
      "outputs": [],
      "stateMutability": "nonpayable",
      "type": "function"
    },
    {
      "inputs": [
        {
          "internalType": "bytes32",
          "name": "role",
          "type": "bytes32"
        },
        {
          "internalType": "address",
          "name": "callerConfirmation",
          "type": "address"
        }
      ],
      "name": "renounceRole",
      "outputs": [],
      "stateMutability": "nonpayable",
      "type": "function"
    },
    {
      "inputs": [
        {
          "internalType": "bytes32",
          "name": "role",
          "type": "bytes32"
        },
        {
          "internalType": "address",
          "name": "account",
          "type": "address"
        }
      ],
      "name": "revokeRole",
      "outputs": [],
      "stateMutability": "nonpayable",
      "type": "function"
    },
    {
      "inputs": [
        {
          "internalType": "bytes4",
          "name": "interfaceId",
          "type": "bytes4"
        }
      ],
      "name": "supportsInterface",
      "outputs": [
        {
          "internalType": "bool",
          "name": "",
          "type": "bool"
        }
      ],
      "stateMutability": "view",
      "type": "function"
    }
  ],
  "bytecode": "0x608060405234801561001057600080fd5b50610d65806100206000396000f3fe608060405234801561001057600080fd5b50600436106100f55760003560e01c80638129fc1c11610097578063a217fddf11610066578063a217fddf14610216578063a5c8d38d1461021e578063c8ec764b14610231578063d547741f1461024457600080fd5b80638129fc1c146101c157806382aefa24146101c9578063877b9a67146101f057806391d148541461020357600080fd5b80632f2ff15d116100d35780632f2ff15d1461016e5780633593f81b1461018357806336568abe146101a6578063767bc20e146101b957600080fd5b806301ffc9a7146100fa5780630f37a5d514610122578063248a9ca31461014d575b600080fd5b61010d6101083660046109ad565b610257565b60405190151581526020015b60405180910390f35b6101356101303660046109de565b61028e565b6040516001600160a01b039091168152602001610119565b61016061015b3660046109de565b6102b8565b604051908152602001610119565b61018161017c366004610a13565b6102da565b005b610196610191366004610a3f565b6102fc565b6040516101199493929190610aa0565b6101816101b4366004610a13565b6103bb565b6101816103f3565b61018161048d565b6101607f114e74f6ea3bd819998f78687bfcb11b140da08e9b7d222fa9c1f1ba1f2aa12281565b61010d6101fe366004610a3f565b610593565b61010d610211366004610a13565b6105e8565b610160600081565b61018161022c366004610a3f565b610620565b61018161023f366004610af2565b610659565b610181610252366004610a13565b6107b8565b60006001600160e01b03198216637965db0b60e01b148061028857506301ffc9a760e01b6001600160e01b03198316145b92915050565b6001818154811061029e57600080fd5b6000918252602090912001546001600160a01b0316905081565b6000908152600080516020610d10833981519152602052604090206001015490565b6102e3826102b8565b6102ec816107d4565b6102f683836107e1565b50505050565b600060208190529081526040902080546001820180546001600160a01b03909216929161032890610ba3565b80601f016020809104026020016040519081016040528092919081815260200182805461035490610ba3565b80156103a15780601f10610376576101008083540402835291602001916103a1565b820191906000526020600020905b81548152906001019060200180831161038457829003601f168201915b50505050600283015460039093015491929160ff16905084565b6001600160a01b03811633146103e45760405163334bd91960e11b815260040160405180910390fd5b6103ee8282610886565b505050565b3360009081526020819052604090206003015460ff1661044b5760405162461bcd60e51b815260206004820152600e60248201526d444944206e6f742061637469766560901b60448201526064015b60405180910390fd5b33600081815260208190526040808220600301805460ff19169055517f236b7a85392c62d219956b1f2d21f622daa26da228a7972f50caa2be59bf17069190a2565b6000610497610902565b805490915060ff600160401b820416159067ffffffffffffffff166000811580156104bf5750825b905060008267ffffffffffffffff1660011480156104dc5750303b155b9050811580156104ea575080155b156105085760405163f92ee8a960e01b815260040160405180910390fd5b845467ffffffffffffffff19166001178555831561053257845460ff60401b1916600160401b1785555b61053a61092b565b6105456000336107e1565b50831561058c57845460ff60401b19168555604051600181527fc7f505b2f371ae2175ee4913f4499e1f2633a7b5936321eed1cdaeb6115181d29060200160405180910390a15b5050505050565b60006105bf7f114e74f6ea3bd819998f78687bfcb11b140da08e9b7d222fa9c1f1ba1f2aa122836105e8565b80156102885750506001600160a01b031660009081526020819052604090206003015460ff1690565b6000918252600080516020610d10833981519152602090815260408084206001600160a01b0393909316845291905290205460ff1690565b600061062b816107d4565b6106557f114e74f6ea3bd819998f78687bfcb11b140da08e9b7d222fa9c1f1ba1f2aa122836102da565b5050565b3360009081526020819052604090206003015460ff16156106b15760405162461bcd60e51b815260206004820152601260248201527144494420616c72656164792061637469766560701b6044820152606401610442565b60408051608081018252338082526020808301858152428486015260016060850181905260009384529183905293909120825181546001600160a01b0319166001600160a01b039091161781559251919291908201906107119082610c2d565b5060408281015160028301556060909201516003909101805460ff19169115159190911790556001805480820182556000919091527fb10e2d527612073b26eecdfd717e6a320cf44b4afac2b0732d9fcbe2b7fa0cf6018054336001600160a01b0319909116811790915590517ff318ff0e1fe4c5047999b2aabe43071620a910305c168a20e97c635405446fdd906107ad9084904290610ced565b60405180910390a250565b6107c1826102b8565b6107ca816107d4565b6102f68383610886565b6107de8133610935565b50565b6000600080516020610d108339815191526107fc84846105e8565b61087c576000848152602082815260408083206001600160a01b03871684529091529020805460ff191660011790556108323390565b6001600160a01b0316836001600160a01b0316857f2f8788117e7eff1d82e926ec794901d17c78024a50270940304540a733656f0d60405160405180910390a46001915050610288565b6000915050610288565b6000600080516020610d108339815191526108a184846105e8565b1561087c576000848152602082815260408083206001600160a01b0387168085529252808320805460ff1916905551339287917ff6391f5c32d9c69d2a47ea670b442974b53935d1edc7fd64eb21e047a839171b9190a46001915050610288565b6000807ff0c57e16840df040f15088dc2f81fe391c3923bec73e23a9662efc9c229c6a00610288565b61093361096e565b565b61093f82826105e8565b6106555760405163e2517d3f60e01b81526001600160a01b038216600482015260248101839052604401610442565b610976610993565b61093357604051631afcd79f60e31b815260040160405180910390fd5b600061099d610902565b54600160401b900460ff16919050565b6000602082840312156109bf57600080fd5b81356001600160e01b0319811681146109d757600080fd5b9392505050565b6000602082840312156109f057600080fd5b5035919050565b80356001600160a01b0381168114610a0e57600080fd5b919050565b60008060408385031215610a2657600080fd5b82359150610a36602084016109f7565b90509250929050565b600060208284031215610a5157600080fd5b6109d7826109f7565b6000815180845260005b81811015610a8057602081850181015186830182015201610a64565b506000602082860101526020601f19601f83011685010191505092915050565b6001600160a01b0385168152608060208201819052600090610ac490830186610a5a565b60408301949094525090151560609091015292915050565b634e487b7160e01b600052604160045260246000fd5b600060208284031215610b0457600080fd5b813567ffffffffffffffff80821115610b1c57600080fd5b818401915084601f830112610b3057600080fd5b813581811115610b4257610b42610adc565b604051601f8201601f19908116603f01168101908382118183101715610b6a57610b6a610adc565b81604052828152876020848701011115610b8357600080fd5b826020860160208301376000928101602001929092525095945050505050565b600181811c90821680610bb757607f821691505b602082108103610bd757634e487b7160e01b600052602260045260246000fd5b50919050565b601f8211156103ee576000816000526020600020601f850160051c81016020861015610c065750805b601f850160051c820191505b81811015610c2557828155600101610c12565b505050505050565b815167ffffffffffffffff811115610c4757610c47610adc565b610c5b81610c558454610ba3565b84610bdd565b602080601f831160018114610c905760008415610c785750858301515b600019600386901b1c1916600185901b178555610c25565b600085815260208120601f198616915b82811015610cbf57888601518255948401946001909101908401610ca0565b5085821015610cdd5787850151600019600388901b60f8161c191681555b5050505050600190811b01905550565b604081526000610d006040830185610a5a565b9050826020830152939250505056fe02dd7bc7dec4dceedda775e58dd541e08a116c6c53815c0bd028192f7b626800a2646970667358221220886cff47599e919149bd530b7a1b3d7d4b0618cd1023bcdf54d6af6e181ebe5964736f6c63430008180033",
  "linkReferences": {},
  "deployedLinkReferences": {}
}