{
  "_format": "hh-sol-artifact-1",
  "contractName": "UserRegistry",
  "sourceName": "contracts/UserRegistry.sol",
  "abi": [
    {
      "anonymous": false,
      "inputs": [
        {
          "indexed": true,
          "internalType": "address",
          "name": "user",
          "type": "address"
        },
        {
          "indexed": false,
          "internalType": "uint256",
          "name": "roles",
          "type": "uint256"
        },
        {
          "indexed": false,
          "internalType": "uint256",
          "name": "timestamp",
          "type": "uint256"
        }
      ],
      "name": "UserRegistered",
      "type": "event"
    },
    {
      "anonymous": false,
      "inputs": [
        {
          "indexed": true,
          "internalType": "address",
          "name": "user",
          "type": "address"
        },
        {
          "indexed": false,
          "internalType": "uint256",
          "name": "timestamp",
          "type": "uint256"
        }
      ],
      "name": "UserRevoked",
      "type": "event"
    },
    {
      "anonymous": false,
      "inputs": [
        {
          "indexed": true,
          "internalType": "address",
          "name": "user",
          "type": "address"
        },
        {
          "indexed": false,
          "internalType": "uint256",
          "name": "roles",
          "type": "uint256"
        },
        {
          "indexed": false,
          "internalType": "uint256",
          "name": "timestamp",
          "type": "uint256"
        }
      ],
      "name": "UserUpdated",
      "type": "event"
    },
    {
      "inputs": [],
      "name": "ROLE_HOLDER",
      "outputs": [
        {
          "internalType": "uint256",
          "name": "",
          "type": "uint256"
        }
      ],
      "stateMutability": "view",
      "type": "function"
    },
    {
      "inputs": [],
      "name": "ROLE_ISSUER",
      "outputs": [
        {
          "internalType": "uint256",
          "name": "",
          "type": "uint256"
        }
      ],
      "stateMutability": "view",
      "type": "function"
    },
    {
      "inputs": [],
      "name": "ROLE_VERIFIER",
      "outputs": [
        {
          "internalType": "uint256",
          "name": "",
          "type": "uint256"
        }
      ],
      "stateMutability": "view",
      "type": "function"
    },
    {
      "inputs": [],
      "name": "getAllUsers",
      "outputs": [
        {
          "internalType": "address[]",
          "name": "",
          "type": "address[]"
        }
      ],
      "stateMutability": "view",
      "type": "function"
    },
    {
      "inputs": [
        {
          "internalType": "address",
          "name": "_user",
          "type": "address"
        }
      ],
      "name": "getUser",
      "outputs": [
        {
          "components": [
            {
              "internalType": "bytes",
              "name": "mldsaPublicKey",
              "type": "bytes"
            },
            {
              "internalType": "bytes",
              "name": "mlkemPublicKey",
              "type": "bytes"
            },
            {
              "internalType": "string",
              "name": "metadataCID",
              "type": "string"
            },
            {
              "internalType": "uint256",
              "name": "roles",
              "type": "uint256"
            },
            {
              "internalType": "bool",
              "name": "active",
              "type": "bool"
            },
            {
              "internalType": "uint256",
              "name": "registeredAt",
              "type": "uint256"
            },
            {
              "internalType": "uint256",
              "name": "updatedAt",
              "type": "uint256"
            }
          ],
          "internalType": "struct UserRegistry.User",
          "name": "",
          "type": "tuple"
        }
      ],
      "stateMutability": "view",
      "type": "function"
    },
    {
      "inputs": [
        {
          "internalType": "address",
          "name": "_user",
          "type": "address"
        }
      ],
      "name": "isHolder",
      "outputs": [
        {
          "internalType": "bool",
          "name": "",
          "type": "bool"
        }
      ],
      "stateMutability": "view",
      "type": "function"
    },
    {
      "inputs": [
        {
          "internalType": "address",
          "name": "_user",
          "type": "address"
        }
      ],
      "name": "isIssuer",
      "outputs": [
        {
          "internalType": "bool",
          "name": "",
          "type": "bool"
        }
      ],
      "stateMutability": "view",
      "type": "function"
    },
    {
      "inputs": [
        {
          "internalType": "address",
          "name": "_user",
          "type": "address"
        }
      ],
      "name": "isVerifier",
      "outputs": [
        {
          "internalType": "bool",
          "name": "",
          "type": "bool"
        }
      ],
      "stateMutability": "view",
      "type": "function"
    },
    {
      "inputs": [
        {
          "internalType": "bytes",
          "name": "_mldsaPublicKey",
          "type": "bytes"
        },
        {
          "internalType": "bytes",
          "name": "_mlkemPublicKey",
          "type": "bytes"
        },
        {
          "internalType": "string",
          "name": "_metadataCID",
          "type": "string"
        },
        {
          "internalType": "uint256",
          "name": "_roles",
          "type": "uint256"
        }
      ],
      "name": "registerUser",
      "outputs": [],
      "stateMutability": "nonpayable",
      "type": "function"
    },
    {
      "inputs": [
        {
          "internalType": "address",
          "name": "_user",
          "type": "address"
        }
      ],
      "name": "revokeUser",
      "outputs": [],
      "stateMutability": "nonpayable",
      "type": "function"
    },
    {
      "inputs": [
        {
          "internalType": "bytes",
          "name": "_mldsaPublicKey",
          "type": "bytes"
        },
        {
          "internalType": "bytes",
          "name": "_mlkemPublicKey",
          "type": "bytes"
        },
        {
          "internalType": "string",
          "name": "_metadataCID",
          "type": "string"
        },
        {
          "internalType": "uint256",
          "name": "_roles",
          "type": "uint256"
        }
      ],
      "name": "updateUser",
      "outputs": [],
      "stateMutability": "nonpayable",
      "type": "function"
    },
    {
      "inputs": [
        {
          "internalType": "uint256",
          "name": "",
          "type": "uint256"
        }
      ],
      "name": "userList",
      "outputs": [
        {
          "internalType": "address",
          "name": "",
          "type": "address"
        }
      ],
      "stateMutability": "view",
      "type": "function"
    },
    {
      "inputs": [
        {
          "internalType": "address",
          "name": "",
          "type": "address"
        }
      ],
      "name": "users",
      "outputs": [
        {
          "internalType": "bytes",
          "name": "mldsaPublicKey",
          "type": "bytes"
        },
        {
          "internalType": "bytes",
          "name": "mlkemPublicKey",
          "type": "bytes"
        },
        {
          "internalType": "string",
          "name": "metadataCID",
          "type": "string"
        },
        {
          "internalType": "uint256",
          "name": "roles",
          "type": "uint256"
        },
        {
          "internalType": "bool",
          "name": "active",
          "type": "bool"
        },
        {
          "internalType": "uint256",
          "name": "registeredAt",
          "type": "uint256"
        },
        {
          "internalType": "uint256",
          "name": "updatedAt",
          "type": "uint256"
        }
      ],
      "stateMutability": "view",
      "type": "function"
    }
  ],
  "bytecode": "0x608060405234801561001057600080fd5b5061124a806100206000396000f3fe608060405234801561001057600080fd5b50600436106100cf5760003560e01c80639f4216e81161008c578063dba2df4911610066578063dba2df49146101c6578063e2842d79146101d9578063ecf496f7146101ee578063ef097fc4146101f657600080fd5b80639f4216e814610162578063a87430ba1461018d578063d4d7b19a146101b357600080fd5b806333105218146100d45780636f77926b146100fc578063794d38501461011c57806379cf196014610132578063877b9a671461013a578063890ac7d21461014d575b600080fd5b6100e76100e2366004610d3a565b610209565b60405190151581526020015b60405180910390f35b61010f61010a366004610d3a565b610257565b6040516100f39190610db0565b610124600181565b6040519081526020016100f3565b610124600281565b6100e7610148366004610d3a565b6104a5565b61016061015b366004610e89565b6104ef565b005b610175610170366004610f2c565b6107ce565b6040516001600160a01b0390911681526020016100f3565b6101a061019b366004610d3a565b6107f8565b6040516100f39796959493929190610f45565b6100e76101c1366004610d3a565b6109cf565b6101606101d4366004610e89565b610a19565b6101e1610bbf565b6040516100f39190610fa5565b610124600481565b610160610204366004610d3a565b610c21565b6001600160a01b03811660009081526020819052604081206004015460ff16801561025157506001600160a01b03821660009081526020819052604090206003015460041615155b92915050565b6102996040518060e001604052806060815260200160608152602001606081526020016000815260200160001515815260200160008152602001600081525090565b6001600160a01b03821660009081526020819052604090819020815160e081019092528054829082906102cb90610ff2565b80601f01602080910402602001604051908101604052809291908181526020018280546102f790610ff2565b80156103445780601f1061031957610100808354040283529160200191610344565b820191906000526020600020905b81548152906001019060200180831161032757829003601f168201915b5050505050815260200160018201805461035d90610ff2565b80601f016020809104026020016040519081016040528092919081815260200182805461038990610ff2565b80156103d65780601f106103ab576101008083540402835291602001916103d6565b820191906000526020600020905b8154815290600101906020018083116103b957829003601f168201915b505050505081526020016002820180546103ef90610ff2565b80601f016020809104026020016040519081016040528092919081815260200182805461041b90610ff2565b80156104685780601f1061043d57610100808354040283529160200191610468565b820191906000526020600020905b81548152906001019060200180831161044b57829003601f168201915b505050918352505060038201546020820152600482015460ff16151560408201526005820154606082015260069091015460809091015292915050565b6001600160a01b03811660009081526020819052604081206004015460ff1680156102515750506001600160a01b0316600090815260208190526040902060030154600116151590565b3360009081526020819052604090206004015460ff161561054d5760405162461bcd60e51b81526020600482015260136024820152725573657220616c72656164792061637469766560681b60448201526064015b60405180910390fd5b8060000361059d5760405162461bcd60e51b815260206004820152601a60248201527f4174206c65617374206f6e6520726f6c652072657175697265640000000000006044820152606401610544565b60018116156105f357856105f35760405162461bcd60e51b815260206004820152601e60248201527f4d4c2d445341206b657920726571756972656420666f722069737375657200006044820152606401610544565b6040518060e0016040528088888080601f016020809104026020016040519081016040528093929190818152602001838380828437600092019190915250505090825250604080516020601f890181900481028201810190925287815291810191908890889081908401838280828437600092019190915250505090825250604080516020601f870181900481028201810190925285815291810191908690869081908401838280828437600092018290525093855250505060208083018590526001604080850191909152426060850181905260809094019390935233825281905220815181906106e59082611093565b50602082015160018201906106fa9082611093565b506040820151600282019061070f9082611093565b5060608201516003820155608082015160048201805460ff191691151591909117905560a0820151600582015560c0909101516006909101556001805480820182556000919091527fb10e2d527612073b26eecdfd717e6a320cf44b4afac2b0732d9fcbe2b7fa0cf6018054336001600160a01b03199091168117909155604080518381524260208201527f47c8e83729a89f8b0c23b722e4c21f48295ddfcd683910c564e11e6b6037d01c910160405180910390a250505050505050565b600181815481106107de57600080fd5b6000918252602090912001546001600160a01b0316905081565b60006020819052908152604090208054819061081390610ff2565b80601f016020809104026020016040519081016040528092919081815260200182805461083f90610ff2565b801561088c5780601f106108615761010080835404028352916020019161088c565b820191906000526020600020905b81548152906001019060200180831161086f57829003601f168201915b5050505050908060010180546108a190610ff2565b80601f01602080910402602001604051908101604052809291908181526020018280546108cd90610ff2565b801561091a5780601f106108ef5761010080835404028352916020019161091a565b820191906000526020600020905b8154815290600101906020018083116108fd57829003601f168201915b50505050509080600201805461092f90610ff2565b80601f016020809104026020016040519081016040528092919081815260200182805461095b90610ff2565b80156109a85780601f1061097d576101008083540402835291602001916109a8565b820191906000526020600020905b81548152906001019060200180831161098b57829003601f168201915b505050506003830154600484015460058501546006909501549394919360ff909116925087565b6001600160a01b03811660009081526020819052604081206004015460ff1680156102515750506001600160a01b0316600090815260208190526040902060030154600216151590565b3360008181526020819052604090206004015460ff16610a6d5760405162461bcd60e51b815260206004820152600f60248201526e55736572206e6f742061637469766560881b6044820152606401610544565b81600003610abd5760405162461bcd60e51b815260206004820152601a60248201527f4174206c65617374206f6e6520726f6c652072657175697265640000000000006044820152606401610544565b6001821615610b135786610b135760405162461bcd60e51b815260206004820152601e60248201527f4d4c2d445341206b657920726571756972656420666f722069737375657200006044820152606401610544565b3360009081526020819052604090208715610b365780610b34898b83611153565b505b8515610b4d5760018101610b4b878983611153565b505b8315610b645760028101610b62858783611153565b505b60038101839055426006820181905560405133917f97ce9d7086176d6da45e4e7999788176e2629a7591ffe505b0c1b13fe8052cc691610bac91878252602082015260400190565b60405180910390a2505050505050505050565b60606001805480602002602001604051908101604052809291908181526020018280548015610c1757602002820191906000526020600020905b81546001600160a01b03168152600190910190602001808311610bf9575b5050505050905090565b80336001600160a01b0382161480610c3857503330145b610c755760405162461bcd60e51b815260206004820152600e60248201526d139bdd08185d5d1a1bdc9a5e995960921b6044820152606401610544565b6001600160a01b03821660009081526020819052604090206004015460ff16610cd75760405162461bcd60e51b8152602060048201526014602482015273155cd95c88185b1c9958591e481c995d9bdad95960621b6044820152606401610544565b6001600160a01b0382166000818152602081815260409182902060048101805460ff1916905542600690910181905591519182527f75af106136e6e9960067caef37ace95fde15a0ec63b419e1c949ea7a10c4d7ba910160405180910390a25050565b600060208284031215610d4c57600080fd5b81356001600160a01b0381168114610d6357600080fd5b9392505050565b6000815180845260005b81811015610d9057602081850181015186830182015201610d74565b506000602082860101526020601f19601f83011685010191505092915050565b602081526000825160e06020840152610dcd610100840182610d6a565b90506020840151601f1980858403016040860152610deb8383610d6a565b9250604086015191508085840301606086015250610e098282610d6a565b915050606084015160808401526080840151151560a084015260a084015160c084015260c084015160e08401528091505092915050565b60008083601f840112610e5257600080fd5b50813567ffffffffffffffff811115610e6a57600080fd5b602083019150836020828501011115610e8257600080fd5b9250929050565b60008060008060008060006080888a031215610ea457600080fd5b873567ffffffffffffffff80821115610ebc57600080fd5b610ec88b838c01610e40565b909950975060208a0135915080821115610ee157600080fd5b610eed8b838c01610e40565b909750955060408a0135915080821115610f0657600080fd5b50610f138a828b01610e40565b989b979a50959894979596606090950135949350505050565b600060208284031215610f3e57600080fd5b5035919050565b60e081526000610f5860e083018a610d6a565b8281036020840152610f6a818a610d6a565b90508281036040840152610f7e8189610d6a565b60608401979097525050921515608084015260a083019190915260c0909101529392505050565b6020808252825182820181905260009190848201906040850190845b81811015610fe65783516001600160a01b031683529284019291840191600101610fc1565b50909695505050505050565b600181811c9082168061100657607f821691505b60208210810361102657634e487b7160e01b600052602260045260246000fd5b50919050565b634e487b7160e01b600052604160045260246000fd5b601f82111561108e576000816000526020600020601f850160051c8101602086101561106b5750805b601f850160051c820191505b8181101561108a57828155600101611077565b5050505b505050565b815167ffffffffffffffff8111156110ad576110ad61102c565b6110c1816110bb8454610ff2565b84611042565b602080601f8311600181146110f657600084156110de5750858301515b600019600386901b1c1916600185901b17855561108a565b600085815260208120601f198616915b8281101561112557888601518255948401946001909101908401611106565b50858210156111435787850151600019600388901b60f8161c191681555b5050505050600190811b01905550565b67ffffffffffffffff83111561116b5761116b61102c565b61117f836111798354610ff2565b83611042565b6000601f8411600181146111b3576000851561119b5750838201355b600019600387901b1c1916600186901b17835561120d565b600083815260209020601f19861690835b828110156111e457868501358255602094850194600190920191016111c4565b50868210156112015760001960f88860031b161c19848701351681555b505060018560011b0183555b505050505056fea2646970667358221220078074505319dcb1726a20a576183ec8d8c841ff5cd1941ac5c48739e5181ce864736f6c63430008180033",
  "linkReferences": {},
  "deployedLinkReferences": {}
}