{
  "_format": "hh-sol-artifact-1",
  "contractName": "ZKPresentation",
  "sourceName": "contracts/ZKPresentation.sol",
  "abi": [
    {
      "inputs": [],
      "stateMutability": "nonpayable",
      "type": "constructor"
    },
    {
      "inputs": [],
      "name": "AccessControlBadConfirmation",
      "type": "error"
    },
    {
      "inputs": [
        {
          "internalType": "address",
          "name": "account",
          "type": "address"
        },
        {
          "internalType": "bytes32",
          "name": "neededRole",
          "type": "bytes32"
        }
      ],
      "name": "AccessControlUnauthorizedAccount",
      "type": "error"
    },
    {
      "inputs": [],
      "name": "InvalidInitialization",
      "type": "error"
    },
    {
      "inputs": [],
      "name": "NotInitializing",
      "type": "error"
    },
    {
      "anonymous": false,
      "inputs": [
        {
          "indexed": false,
          "internalType": "uint64",
          "name": "version",
          "type": "uint64"
        }
      ],
      "name": "Initialized",
      "type": "event"
    },
    {
      "anonymous": false,
      "inputs": [
        {
          "indexed": true,
          "internalType": "bytes32",
          "name": "presentationId",
          "type": "bytes32"
        },
        {
          "indexed": true,
          "internalType": "bytes32",
          "name": "credentialHash",
          "type": "bytes32"
        },
        {
          "indexed": true,
          "internalType": "address",
          "name": "prover",
          "type": "address"
        },
        {
          "indexed": false,
          "internalType": "bytes32",
          "name": "publicInputsHash",
          "type": "bytes32"
        },
        {
          "indexed": false,
          "internalType": "string",
          "name": "metadataCID",
          "type": "string"
        },
        {
          "indexed": false,
          "internalType": "uint256",
          "name": "timestamp",
          "type": "uint256"
        }
      ],
      "name": "PresentationCreated",
      "type": "event"
    },
    {
      "anonymous": false,
      "inputs": [
        {
          "indexed": true,
          "internalType": "bytes32",
          "name": "presentationId",
          "type": "bytes32"
        },
        {
          "indexed": false,
          "internalType": "address",
          "name": "revoker",
          "type": "address"
        },
        {
          "indexed": false,
          "internalType": "uint256",
          "name": "timestamp",
          "type": "uint256"
        }
      ],
      "name": "PresentationRevoked",
      "type": "event"
    },
    {
      "anonymous": false,
      "inputs": [
        {
          "indexed": true,
          "internalType": "bytes32",
          "name": "presentationId",
          "type": "bytes32"
        },
        {
          "indexed": true,
          "internalType": "bytes32",
          "name": "credentialHash",
          "type": "bytes32"
        },
        {
          "indexed": false,
          "internalType": "bool",
          "name": "success",
          "type": "bool"
        },
        {
          "indexed": false,
          "internalType": "address",
          "name": "verifier",
          "type": "address"
        },
        {
          "indexed": false,
          "internalType": "uint256",
          "name": "timestamp",
          "type": "uint256"
        }
      ],
      "name": "PresentationVerified",
      "type": "event"
    },
    {
      "anonymous": false,
      "inputs": [
        {
          "indexed": true,
          "internalType": "bytes32",
          "name": "role",
          "type": "bytes32"
        },
        {
          "indexed": true,
          "internalType": "bytes32",
          "name": "previousAdminRole",
          "type": "bytes32"
        },
        {
          "indexed": true,
          "internalType": "bytes32",
          "name": "newAdminRole",
          "type": "bytes32"
        }
      ],
      "name": "RoleAdminChanged",
      "type": "event"
    },
    {
      "anonymous": false,
      "inputs": [
        {
          "indexed": true,
          "internalType": "bytes32",
          "name": "role",
          "type": "bytes32"
        },
        {
          "indexed": true,
          "internalType": "address",
          "name": "account",
          "type": "address"
        },
        {
          "indexed": true,
          "internalType": "address",
          "name": "sender",
          "type": "address"
        }
      ],
      "name": "RoleGranted",
      "type": "event"
    },
    {
      "anonymous": false,
      "inputs": [
        {
          "indexed": true,
          "internalType": "bytes32",
          "name": "role",
          "type": "bytes32"
        },
        {
          "indexed": true,
          "internalType": "address",
          "name": "account",
          "type": "address"
        },
        {
          "indexed": true,
          "internalType": "address",
          "name": "sender",
          "type": "address"
        }
      ],
      "name": "RoleRevoked",
      "type": "event"
    },
    {
      "anonymous": false,
      "inputs": [
        {
          "indexed": true,
          "internalType": "address",
          "name": "oldVerifier",
          "type": "address"
        },
        {
          "indexed": true,
          "internalType": "address",
          "name": "newVerifier",
          "type": "address"
        }
      ],
      "name": "ZKVerifierUpdated",
      "type": "event"
    },
    {
      "inputs": [],
      "name": "DEFAULT_ADMIN_ROLE",
      "outputs": [
        {
          "internalType": "bytes32",
          "name": "",
          "type": "bytes32"
        }
      ],
      "stateMutability": "view",
      "type": "function"
    },
    {
      "inputs": [],
      "name": "VERIFIER_ROLE",
      "outputs": [
        {
          "internalType": "bytes32",
          "name": "",
          "type": "bytes32"
        }
      ],
      "stateMutability": "view",
      "type": "function"
    },
    {
      "inputs": [
        {
          "internalType": "uint256",
          "name": "",
          "type": "uint256"
        }
      ],
      "name": "allPresentationIds",
      "outputs": [
        {
          "internalType": "bytes32",
          "name": "",
          "type": "bytes32"
        }
      ],
      "stateMutability": "view",
      "type": "function"
    },
    {
      "inputs": [
        {
          "internalType": "bytes32",
          "name": "_credentialHash",
          "type": "bytes32"
        },
        {
          "internalType": "bytes32",
          "name": "_publicInputsHash",
          "type": "bytes32"
        },
        {
          "internalType": "string",
          "name": "_metadataCID",
          "type": "string"
        }
      ],
      "name": "createPresentation",
      "outputs": [
        {
          "internalType": "bytes32",
          "name": "",
          "type": "bytes32"
        }
      ],
      "stateMutability": "nonpayable",
      "type": "function"
    },
    {
      "inputs": [
        {
          "internalType": "bytes32",
          "name": "",
          "type": "bytes32"
        },
        {
          "internalType": "uint256",
          "name": "",
          "type": "uint256"
        }
      ],
      "name": "credentialPresentations",
      "outputs": [
        {
          "internalType": "bytes32",
          "name": "",
          "type": "bytes32"
        }
      ],
      "stateMutability": "view",
      "type": "function"
    },
    {
      "inputs": [
        {
          "internalType": "bytes32",
          "name": "_credentialHash",
          "type": "bytes32"
        }
      ],
      "name": "getCredentialPresentations",
      "outputs": [
        {
          "internalType": "bytes32[]",
          "name": "",
          "type": "bytes32[]"
        }
      ],
      "stateMutability": "view",
      "type": "function"
    },
    {
      "inputs": [
        {
          "internalType": "bytes32",
          "name": "_presentationId",
          "type": "bytes32"
        }
      ],
      "name": "getPresentation",
      "outputs": [
        {
          "components": [
            {
              "internalType": "bytes32",
              "name": "presentationId",
              "type": "bytes32"
            },
            {
              "internalType": "bytes32",
              "name": "credentialHash",
              "type": "bytes32"
            },
            {
              "internalType": "address",
              "name": "prover",
              "type": "address"
            },
            {
              "internalType": "address",
              "name": "verifier",
              "type": "address"
            },
            {
              "internalType": "bytes32",
              "name": "publicInputsHash",
              "type": "bytes32"
            },
            {
              "internalType": "bytes32",
              "name": "proofHash",
              "type": "bytes32"
            },
            {
              "internalType": "uint256",
              "name": "timestamp",
              "type": "uint256"
            },
            {
              "internalType": "bool",
              "name": "verified",
              "type": "bool"
            },
            {
              "internalType": "bool",
              "name": "revoked",
              "type": "bool"
            },
            {
              "internalType": "string",
              "name": "metadataCID",
              "type": "string"
            }
          ],
          "internalType": "struct ZKPresentation.Presentation",
          "name": "",
          "type": "tuple"
        }
      ],
      "stateMutability": "view",
      "type": "function"
    },
    {
      "inputs": [
        {
          "internalType": "address",
          "name": "_prover",
          "type": "address"
        }
      ],
      "name": "getProverPresentations",
      "outputs": [
        {
          "internalType": "bytes32[]",
          "name": "",
          "type": "bytes32[]"
        }
      ],
      "stateMutability": "view",
      "type": "function"
    },
    {
      "inputs": [
        {
          "internalType": "bytes32",
          "name": "role",
          "type": "bytes32"
        }
      ],
      "name": "getRoleAdmin",
      "outputs": [
        {
          "internalType": "bytes32",
          "name": "",
          "type": "bytes32"
        }
      ],
      "stateMutability": "view",
      "type": "function"
    },
    {
      "inputs": [
        {
          "internalType": "bytes32",
          "name": "role",
          "type": "bytes32"
        },
        {
          "internalType": "address",
          "name": "account",
          "type": "address"
        }
      ],
      "name": "grantRole",
      "outputs": [],
      "stateMutability": "nonpayable",
      "type": "function"
    },
    {
      "inputs": [
        {
          "internalType": "bytes32",
          "name": "role",
          "type": "bytes32"
        },
        {
          "internalType": "address",
          "name": "account",
          "type": "address"
        }
      ],
      "name": "hasRole",
      "outputs": [
        {
          "internalType": "bool",
          "name": "",
          "type": "bool"
        }
      ],
      "stateMutability": "view",
      "type": "function"
    },
    {
      "inputs": [
        {
          "internalType": "address",
          "name": "_zkVerifier",
          "type": "address"
        }
      ],
      "name": "initialize",
      "outputs": [],
      "stateMutability": "nonpayable",
      "type": "function"
    },
    {
      "inputs": [
        {
          "internalType": "bytes32",
          "name": "",
          "type": "bytes32"
        }
      ],
      "name": "presentations",
      "outputs": [
        {
          "internalType": "bytes32",
          "name": "presentationId",
          "type": "bytes32"
        },
        {
          "internalType": "bytes32",
          "name": "credentialHash",
          "type": "bytes32"
        },
        {
          "internalType": "address",
          "name": "prover",
          "type": "address"
        },
        {
          "internalType": "address",
          "name": "verifier",
          "type": "address"
        },
        {
          "internalType": "bytes32",
          "name": "publicInputsHash",
          "type": "bytes32"
        },
        {
          "internalType": "bytes32",
          "name": "proofHash",
          "type": "bytes32"
        },
        {
          "internalType": "uint256",
          "name": "timestamp",
          "type": "uint256"
        },
        {
          "internalType": "bool",
          "name": "verified",
          "type": "bool"
        },
        {
          "internalType": "bool",
          "name": "revoked",
          "type": "bool"
        },
        {
          "internalType": "string",
          "name": "metadataCID",
          "type": "string"
        }
      ],
      "stateMutability": "view",
      "type": "function"
    },
    {
      "inputs": [
        {
          "internalType": "address",
          "name": "",
          "type": "address"
        },
        {
          "internalType": "uint256",
          "name": "",
          "type": "uint256"
        }
      ],
      "name": "proverPresentations",
      "outputs": [
        {
          "internalType": "bytes32",
          "name": "",
          "type": "bytes32"
        }
      ],
      "stateMutability": "view",
      "type": "function"
    },
    {
      "inputs": [
        {
          "internalType": "bytes32",
          "name": "role",
          "type": "bytes32"
        },
        {
          "internalType": "address",
          "name": "callerConfirmation",
          "type": "address"
        }
      ],
      "name": "renounceRole",
      "outputs": [],
      "stateMutability": "nonpayable",
      "type": "function"
    },
    {
      "inputs": [
        {
          "internalType": "bytes32",
          "name": "_presentationId",
          "type": "bytes32"
        }
      ],
      "name": "revokePresentation",
      "outputs": [],
      "stateMutability": "nonpayable",
      "type": "function"
    },
    {
      "inputs": [
        {
          "internalType": "bytes32",
          "name": "role",
          "type": "bytes32"
        },
        {
          "internalType": "address",
          "name": "account",
          "type": "address"
        }
      ],
      "name": "revokeRole",
      "outputs": [],
      "stateMutability": "nonpayable",
      "type": "function"
    },
    {
      "inputs": [
        {
          "internalType": "address",
          "name": "_newVerifier",
          "type": "address"
        }
      ],
      "name": "setZKVerifier",
      "outputs": [],
      "stateMutability": "nonpayable",
      "type": "function"
    },
    {
      "inputs": [
        {
          "internalType": "bytes32",
          "name": "_presentationId",
          "type": "bytes32"
        },
        {
          "internalType": "bytes",
          "name": "_proof",
          "type": "bytes"
        },
        {
          "internalType": "uint256[]",
          "name": "_publicInputs",
          "type": "uint256[]"
        }
      ],
      "name": "submitProofAndVerify",
      "outputs": [
        {
          "internalType": "bool",
          "name": "",
          "type": "bool"
        }
      ],
      "stateMutability": "nonpayable",
      "type": "function"
    },
    {
      "inputs": [
        {
          "internalType": "bytes4",
          "name": "interfaceId",
          "type": "bytes4"
        }
      ],
      "name": "supportsInterface",
      "outputs": [
        {
          "internalType": "bool",
          "name": "",
          "type": "bool"
        }
      ],
      "stateMutability": "view",
      "type": "function"
    },
    {
      "inputs": [
        {
          "internalType": "bytes32",
          "name": "_presentationId",
          "type": "bytes32"
        },
        {
          "internalType": "bool",
          "name": "_isValid",
          "type": "bool"
        },
        {
          "internalType": "bytes32",
          "name": "_proofHash",
          "type": "bytes32"
        },
        {
          "internalType": "string",
          "name": "_proofCID",
          "type": "string"
        }
      ],
      "name": "verifyByOracle",
      "outputs": [],
      "stateMutability": "nonpayable",
      "type": "function"
    },
    {
      "inputs": [],
      "name": "zkVerifier",
      "outputs": [
        {
          "internalType": "address",
          "name": "",
          "type": "address"
        }
      ],
      "stateMutability": "view",
      "type": "function"
    }
  ],
  "bytecode": "0x608060405234801561001057600080fd5b5061001961001e565b6100d0565b7ff0c57e16840df040f15088dc2f81fe391c3923bec73e23a9662efc9c229c6a00805468010000000000000000900460ff161561006e5760405163f92ee8a960e01b815260040160405180910390fd5b80546001600160401b03908116146100cd5780546001600160401b0319166001600160401b0390811782556040519081527fc7f505b2f371ae2175ee4913f4499e1f2633a7b5936321eed1cdaeb6115181d29060200160405180910390a15b50565b611e55806100df6000396000f3fe608060405234801561001057600080fd5b50600436106101425760003560e01c806378ac11f2116100b8578063c4d66de81161007c578063c4d66de8146102c1578063c5090346146102d4578063d547741f146102e7578063d55266c2146102fa578063d6df096d1461030d578063e7705db61461033857600080fd5b806378ac11f21461024a57806391d148541461025d578063a217fddf14610270578063a30268ab14610278578063ad578ff71461029857600080fd5b80632b078f161161010a5780632b078f16146101cb5780632cefcb1e146101eb5780632f2ff15d146101fe57806336568abe146102115780633d32f2f414610224578063555d52a51461023757600080fd5b806301ffc9a7146101475780631f1cbf281461016f5780632225b28914610190578063248a9ca3146101a557806327ee3c02146101b8575b600080fd5b61015a610155366004611683565b61034d565b60405190151581526020015b60405180910390f35b61018261017d3660046116b4565b610384565b604051908152602001610166565b6101a361019e36600461177e565b6103a5565b005b6101826101b33660046116b4565b610564565b6101826101c63660046117fd565b610586565b6101de6101d9366004611827565b6105b7565b6040516101669190611842565b6101de6101f93660046116b4565b610623565b6101a361020c366004611886565b610683565b6101a361021f366004611886565b6106a5565b6101a36102323660046116b4565b6106dd565b6101826102453660046118b2565b610808565b6101826102583660046118d4565b610824565b61015a61026b366004611886565b610b9b565b610182600081565b61028b6102863660046116b4565b610bd3565b6040516101669190611974565b6102ab6102a63660046116b4565b610d53565b6040516101669a99989796959493929190611a25565b6101a36102cf366004611827565b610e43565b6101a36102e2366004611827565b610f93565b6101a36102f5366004611886565b611088565b61015a610308366004611a92565b6110a4565b600554610320906001600160a01b031681565b6040516001600160a01b039091168152602001610166565b610182600080516020611e0083398151915281565b60006001600160e01b03198216637965db0b60e01b148061037e57506301ffc9a760e01b6001600160e01b03198316145b92915050565b6004818154811061039457600080fd5b600091825260209091200154905081565b6103bd600080516020611e0083398151915233610b9b565b61040e5760405162461bcd60e51b815260206004820152601860248201527f43616c6c6572206973206e6f742061207665726966696572000000000000000060448201526064015b60405180910390fd5b600084815260016020526040812060068101549091036104405760405162461bcd60e51b815260040161040590611b67565b600781015460ff16156104885760405162461bcd60e51b815260206004820152601060248201526f105b1c9958591e481d995c9a599a595960821b6044820152606401610405565b6007810154610100900460ff16156104d95760405162461bcd60e51b8152602060048201526014602482015273141c995cd95b9d185d1a5bdb881c995d9bdad95960621b6044820152606401610405565b60078101805485151560ff199091161790556003810180546001600160a01b0319163317905560058101839055600881016105148382611c20565b5060018101546040805186151581523360208201524281830152905187917fe80f00085eac77431884ff6904852a1608b3afbbb279eab302900351ad588c6f919081900360600190a35050505050565b6000908152600080516020611de0833981519152602052604090206001015490565b600360205281600052604060002081815481106105a257600080fd5b90600052602060002001600091509150505481565b6001600160a01b03811660009081526003602090815260409182902080548351818402810184019094528084526060939283018282801561061757602002820191906000526020600020905b815481526020019060010190808311610603575b50505050509050919050565b60008181526002602090815260409182902080548351818402810184019094528084526060939283018282801561061757602002820191906000526020600020908154815260200190600101908083116106035750505050509050919050565b61068c82610564565b6106958161134d565b61069f838361135a565b50505050565b6001600160a01b03811633146106ce5760405163334bd91960e11b815260040160405180910390fd5b6106d882826113ff565b505050565b6000818152600160205260408120600681015490910361070f5760405162461bcd60e51b815260040161040590611b67565b6007810154610100900460ff161561075b5760405162461bcd60e51b815260206004820152600f60248201526e105b1c9958591e481c995d9bdad959608a1b6044820152606401610405565b60028101546001600160a01b031633148061077c575061077c600033610b9b565b6107b95760405162461bcd60e51b815260206004820152600e60248201526d139bdd08185d5d1a1bdc9a5e995960921b6044820152606401610405565b60078101805461ff0019166101001790556040805133815242602082015283917f6934ba215c5d79774679300deb3cb90d267610ddcd43f5f5db18465ef1e67d23910160405180910390a25050565b600260205281600052604060002081815481106105a257600080fd5b600080546002036108775760405162461bcd60e51b815260206004820152601f60248201527f5265656e7472616e637947756172643a207265656e7472616e742063616c6c006044820152606401610405565b6002600055836108c95760405162461bcd60e51b815260206004820152601760248201527f496e76616c69642063726564656e7469616c20686173680000000000000000006044820152606401610405565b60408051602081018690526bffffffffffffffffffffffff193360601b16918101919091526054810184905242607482015244609482015260009060b40160408051601f198184030181529181528151602092830120600081815260019093529120600601549091501561097f5760405162461bcd60e51b815260206004820152601b60248201527f50726573656e746174696f6e20616c72656164792065786973747300000000006044820152606401610405565b604051806101400160405280828152602001868152602001336001600160a01b0316815260200160006001600160a01b031681526020018581526020016000801b81526020014281526020016000151581526020016000151581526020018481525060016000838152602001908152602001600020600082015181600001556020820151816001015560408201518160020160006101000a8154816001600160a01b0302191690836001600160a01b0316021790555060608201518160030160006101000a8154816001600160a01b0302191690836001600160a01b031602179055506080820151816004015560a0820151816005015560c0820151816006015560e08201518160070160006101000a81548160ff0219169083151502179055506101008201518160070160016101000a81548160ff021916908315150217905550610120820151816008019081610ad79190611c20565b5050506000858152600260209081526040808320805460018181018355918552838520018590553380855260038452828520805480840182559086529385209093018590556004805491820181559093527f8a35acfbc15ff81a39ae7d344fd709f28e8600b4aa8c65c6b64bfe7fe36bd19b9092018390559051869083907f975f4781c8579affa1485467b5a6f2fe2f0c91ab350d11dc197a6eae70f6aad590610b8690899089904290611ce0565b60405180910390a46001600055949350505050565b6000918252600080516020611de0833981519152602090815260408084206001600160a01b0393909316845291905290205460ff1690565b604080516101408101825260008082526020820181905291810182905260608082018390526080820183905260a0820183905260c0820183905260e0820183905261010082019290925261012081019190915260008281526001602081815260409283902083516101408101855281548152928101549183019190915260028101546001600160a01b03908116938301939093526003810154909216606082015260048201546080820152600582015460a0820152600682015460c0820152600782015460ff808216151560e0840152610100918290041615159082015260088201805491929161012084019190610cca90611b9e565b80601f0160208091040260200160405190810160405280929190818152602001828054610cf690611b9e565b8015610d435780601f10610d1857610100808354040283529160200191610d43565b820191906000526020600020905b815481529060010190602001808311610d2657829003601f168201915b5050505050815250509050919050565b600160208190526000918252604090912080549181015460028201546003830154600484015460058501546006860154600787015460088801805497986001600160a01b0397881698969097169694959394929360ff8084169461010090940416929190610dc090611b9e565b80601f0160208091040260200160405190810160405280929190818152602001828054610dec90611b9e565b8015610e395780601f10610e0e57610100808354040283529160200191610e39565b820191906000526020600020905b815481529060010190602001808311610e1c57829003601f168201915b505050505090508a565b6000610e4d61147b565b805490915060ff600160401b820416159067ffffffffffffffff16600081158015610e755750825b905060008267ffffffffffffffff166001148015610e925750303b155b905081158015610ea0575080155b15610ebe5760405163f92ee8a960e01b815260040160405180910390fd5b845467ffffffffffffffff191660011785558315610ee857845460ff60401b1916600160401b1785555b610ef06114a4565b610efb60003361135a565b5060016000556001600160a01b03861615610f4557600580546001600160a01b0319166001600160a01b038816179055610f43600080516020611e008339815191528761135a565b505b8315610f8b57845460ff60401b19168555604051600181527fc7f505b2f371ae2175ee4913f4499e1f2633a7b5936321eed1cdaeb6115181d29060200160405180910390a15b505050505050565b6000610f9e8161134d565b6001600160a01b038216610fe65760405162461bcd60e51b815260206004820152600f60248201526e496e76616c6964206164647265737360881b6044820152606401610405565b6005546001600160a01b0316801561101057611010600080516020611e0083398151915282611088565b600580546001600160a01b0319166001600160a01b038516179055611043600080516020611e0083398151915284610683565b826001600160a01b0316816001600160a01b03167fa7912e737f35ce8dfa9cf451acb66d4dd1f672979c93fb522a89eb962132492660405160405180910390a3505050565b61109182610564565b61109a8161134d565b61069f83836113ff565b600080546002036110f75760405162461bcd60e51b815260206004820152601f60248201527f5265656e7472616e637947756172643a207265656e7472616e742063616c6c006044820152606401610405565b60026000908155868152600160205260408120600681015490910361112e5760405162461bcd60e51b815260040161040590611b67565b600781015460ff16156111765760405162461bcd60e51b815260206004820152601060248201526f105b1c9958591e481d995c9a599a595960821b6044820152606401610405565b6007810154610100900460ff16156111c75760405162461bcd60e51b8152602060048201526014602482015273141c995cd95b9d185d1a5bdb881c995d9bdad95960621b6044820152606401610405565b60028101546001600160a01b031633146112235760405162461bcd60e51b815260206004820152601c60248201527f4f6e6c792070726f7665722063616e207375626d69742070726f6f66000000006044820152606401610405565b60008484604051602001611238929190611d09565b6040516020818303038152906040528051906020012090508160040154811461129c5760405162461bcd60e51b81526020600482015260166024820152750a0eac4d8d2c640d2dce0eae8e640dad2e6dac2e8c6d60531b6044820152606401610405565b60006112aa888888886114ae565b905080156112f45760078301805460ff191660011790556003830180546001600160a01b031916301790556040516112e59089908990611d32565b60405190819003902060058401555b6001830154604080518315158152336020820152428183015290518b917fe80f00085eac77431884ff6904852a1608b3afbbb279eab302900351ad588c6f919081900360600190a3600160005598975050505050505050565b6113578133611607565b50565b6000600080516020611de08339815191526113758484610b9b565b6113f5576000848152602082815260408083206001600160a01b03871684529091529020805460ff191660011790556113ab3390565b6001600160a01b0316836001600160a01b0316857f2f8788117e7eff1d82e926ec794901d17c78024a50270940304540a733656f0d60405160405180910390a4600191505061037e565b600091505061037e565b6000600080516020611de083398151915261141a8484610b9b565b156113f5576000848152602082815260408083206001600160a01b0387168085529252808320805460ff1916905551339287917ff6391f5c32d9c69d2a47ea670b442974b53935d1edc7fd64eb21e047a839171b9190a4600191505061037e565b6000807ff0c57e16840df040f15088dc2f81fe391c3923bec73e23a9662efc9c229c6a0061037e565b6114ac611644565b565b6005546000906001600160a01b03166114ff5760405162461bcd60e51b81526020600482015260136024820152721692c81d995c9a599a595c881b9bdd081cd95d606a1b6044820152606401610405565b60055460405160009182916001600160a01b039091169061152a908990899089908990602401611d42565b60408051601f198184030181529181526020820180516001600160e01b0316631e8e1e1360e01b1790525161155f9190611da6565b600060405180830381855afa9150503d806000811461159a576040519150601f19603f3d011682016040523d82523d6000602084013e61159f565b606091505b5091509150816115e85760405162461bcd60e51b815260206004820152601460248201527315995c9a599a595c8818d85b1b0819985a5b195960621b6044820152606401610405565b808060200190518101906115fc9190611dc2565b979650505050505050565b6116118282610b9b565b6116405760405163e2517d3f60e01b81526001600160a01b038216600482015260248101839052604401610405565b5050565b61164c611669565b6114ac57604051631afcd79f60e31b815260040160405180910390fd5b600061167361147b565b54600160401b900460ff16919050565b60006020828403121561169557600080fd5b81356001600160e01b0319811681146116ad57600080fd5b9392505050565b6000602082840312156116c657600080fd5b5035919050565b801515811461135757600080fd5b634e487b7160e01b600052604160045260246000fd5b600082601f83011261170257600080fd5b813567ffffffffffffffff8082111561171d5761171d6116db565b604051601f8301601f19908116603f01168101908282118183101715611745576117456116db565b8160405283815286602085880101111561175e57600080fd5b836020870160208301376000602085830101528094505050505092915050565b6000806000806080858703121561179457600080fd5b8435935060208501356117a6816116cd565b925060408501359150606085013567ffffffffffffffff8111156117c957600080fd5b6117d5878288016116f1565b91505092959194509250565b80356001600160a01b03811681146117f857600080fd5b919050565b6000806040838503121561181057600080fd5b611819836117e1565b946020939093013593505050565b60006020828403121561183957600080fd5b6116ad826117e1565b6020808252825182820181905260009190848201906040850190845b8181101561187a5783518352928401929184019160010161185e565b50909695505050505050565b6000806040838503121561189957600080fd5b823591506118a9602084016117e1565b90509250929050565b600080604083850312156118c557600080fd5b50508035926020909101359150565b6000806000606084860312156118e957600080fd5b8335925060208401359150604084013567ffffffffffffffff81111561190e57600080fd5b61191a868287016116f1565b9150509250925092565b60005b8381101561193f578181015183820152602001611927565b50506000910152565b60008151808452611960816020860160208601611924565b601f01601f19169290920160200192915050565b602081528151602082015260208201516040820152600060408301516119a560608401826001600160a01b03169052565b5060608301516001600160a01b038116608084015250608083015160a083015260a083015160c083015260c083015160e083015260e08301516101006119ee8185018315159052565b8401519050610120611a038482018315159052565b840151610140848101529050611a1d610160840182611948565b949350505050565b60006101408c83528b602084015260018060a01b03808c166040850152808b166060850152508860808401528760a08401528660c084015285151560e084015284151561010084015280610120840152611a8181840185611948565b9d9c50505050505050505050505050565b600080600080600060608688031215611aaa57600080fd5b85359450602086013567ffffffffffffffff80821115611ac957600080fd5b818801915088601f830112611add57600080fd5b813581811115611aec57600080fd5b896020828501011115611afe57600080fd5b602083019650809550506040880135915080821115611b1c57600080fd5b818801915088601f830112611b3057600080fd5b813581811115611b3f57600080fd5b8960208260051b8501011115611b5457600080fd5b9699959850939650602001949392505050565b6020808252601b908201527f50726573656e746174696f6e20646f6573206e6f742065786973740000000000604082015260600190565b600181811c90821680611bb257607f821691505b602082108103611bd257634e487b7160e01b600052602260045260246000fd5b50919050565b601f8211156106d8576000816000526020600020601f850160051c81016020861015611c015750805b601f850160051c820191505b81811015610f8b57828155600101611c0d565b815167ffffffffffffffff811115611c3a57611c3a6116db565b611c4e81611c488454611b9e565b84611bd8565b602080601f831160018114611c835760008415611c6b5750858301515b600019600386901b1c1916600185901b178555610f8b565b600085815260208120601f198616915b82811015611cb257888601518255948401946001909101908401611c93565b5085821015611cd05787850151600019600388901b60f8161c191681555b5050505050600190811b01905550565b838152606060208201526000611cf96060830185611948565b9050826040830152949350505050565b60006001600160fb1b03831115611d1f57600080fd5b8260051b80858437919091019392505050565b8183823760009101908152919050565b6040815283604082015283856060830137600060608583018101829052601f19601f8701168301838103820160208501529081018490526001600160fb1b03841115611d8d57600080fd5b8360051b80866080840137016080019695505050505050565b60008251611db8818460208701611924565b9190910192915050565b600060208284031215611dd457600080fd5b81516116ad816116cd56fe02dd7bc7dec4dceedda775e58dd541e08a116c6c53815c0bd028192f7b6268000ce23c3e399818cfee81a7ab0880f714e53d7672b08df0fa62f2843416e1ea09a2646970667358221220594c640970c1c039777748c4bfe99e6d2be9e7b1d2a0e024e6a72730fbc0734264736f6c63430008180033",
  "linkReferences": {},
  "deployedLinkReferences": {}
}