{
  "_format": "hh-sol-artifact-1",
  "contractName": "CredentialStore",
  "sourceName": "contracts/CredentialStore.sol",
  "abi": [
    {
      "inputs": [],
      "name": "AccessControlBadConfirmation",
      "type": "error"
    },
    {
      "inputs": [
        {
          "internalType": "address",
          "name": "account",
          "type": "address"
        },
        {
          "internalType": "bytes32",
          "name": "neededRole",
          "type": "bytes32"
        }
      ],
      "name": "AccessControlUnauthorizedAccount",
      "type": "error"
    },
    {
      "inputs": [],
      "name": "InvalidInitialization",
      "type": "error"
    },
    {
      "inputs": [],
      "name": "NotInitializing",
      "type": "error"
    },
    {
      "anonymous": false,
      "inputs": [
        {
          "indexed": true,
          "internalType": "bytes32",
          "name": "docHash",
          "type": "bytes32"
        },
        {
          "indexed": false,
          "internalType": "string",
          "name": "cid",
          "type": "string"
        },
        {
          "indexed": false,
          "internalType": "address",
          "name": "issuer",
          "type": "address"
        },
        {
          "indexed": false,
          "internalType": "address",
          "name": "holder",
          "type": "address"
        }
      ],
      "name": "CredentialIssued",
      "type": "event"
    },
    {
      "anonymous": false,
      "inputs": [
        {
          "indexed": true,
          "internalType": "bytes32",
          "name": "docHash",
          "type": "bytes32"
        }
      ],
      "name": "CredentialRevoked",
      "type": "event"
    },
    {
      "anonymous": false,
      "inputs": [
        {
          "indexed": true,
          "internalType": "bytes32",
          "name": "docHash",
          "type": "bytes32"
        },
        {
          "indexed": false,
          "internalType": "bool",
          "name": "verified",
          "type": "bool"
        },
        {
          "indexed": false,
          "internalType": "uint256",
          "name": "timestamp",
          "type": "uint256"
        }
      ],
      "name": "CredentialVerified",
      "type": "event"
    },
    {
      "anonymous": false,
      "inputs": [
        {
          "indexed": false,
          "internalType": "uint64",
          "name": "version",
          "type": "uint64"
        }
      ],
      "name": "Initialized",
      "type": "event"
    },
    {
      "anonymous": false,
      "inputs": [
        {
          "indexed": true,
          "internalType": "bytes32",
          "name": "role",
          "type": "bytes32"
        },
        {
          "indexed": true,
          "internalType": "bytes32",
          "name": "previousAdminRole",
          "type": "bytes32"
        },
        {
          "indexed": true,
          "internalType": "bytes32",
          "name": "newAdminRole",
          "type": "bytes32"
        }
      ],
      "name": "RoleAdminChanged",
      "type": "event"
    },
    {
      "anonymous": false,
      "inputs": [
        {
          "indexed": true,
          "internalType": "bytes32",
          "name": "role",
          "type": "bytes32"
        },
        {
          "indexed": true,
          "internalType": "address",
          "name": "account",
          "type": "address"
        },
        {
          "indexed": true,
          "internalType": "address",
          "name": "sender",
          "type": "address"
        }
      ],
      "name": "RoleGranted",
      "type": "event"
    },
    {
      "anonymous": false,
      "inputs": [
        {
          "indexed": true,
          "internalType": "bytes32",
          "name": "role",
          "type": "bytes32"
        },
        {
          "indexed": true,
          "internalType": "address",
          "name": "account",
          "type": "address"
        },
        {
          "indexed": true,
          "internalType": "address",
          "name": "sender",
          "type": "address"
        }
      ],
      "name": "RoleRevoked",
      "type": "event"
    },
    {
      "inputs": [],
      "name": "DEFAULT_ADMIN_ROLE",
      "outputs": [
        {
          "internalType": "bytes32",
          "name": "",
          "type": "bytes32"
        }
      ],
      "stateMutability": "view",
      "type": "function"
    },
    {
      "inputs": [
        {
          "internalType": "uint256",
          "name": "",
          "type": "uint256"
        }
      ],
      "name": "allCredentialHashes",
      "outputs": [
        {
          "internalType": "bytes32",
          "name": "",
          "type": "bytes32"
        }
      ],
      "stateMutability": "view",
      "type": "function"
    },
    {
      "inputs": [
        {
          "internalType": "bytes32",
          "name": "",
          "type": "bytes32"
        }
      ],
      "name": "credentials",
      "outputs": [
        {
          "internalType": "bytes32",
          "name": "docHash",
          "type": "bytes32"
        },
        {
          "internalType": "string",
          "name": "cid",
          "type": "string"
        },
        {
          "internalType": "address",
          "name": "issuer",
          "type": "address"
        },
        {
          "internalType": "address",
          "name": "holder",
          "type": "address"
        },
        {
          "internalType": "uint256",
          "name": "issuedAt",
          "type": "uint256"
        },
        {
          "internalType": "bool",
          "name": "revoked",
          "type": "bool"
        },
        {
          "internalType": "bool",
          "name": "verified",
          "type": "bool"
        },
        {
          "internalType": "uint256",
          "name": "verifiedAt",
          "type": "uint256"
        }
      ],
      "stateMutability": "view",
      "type": "function"
    },
    {
      "inputs": [],
      "name": "didRegistry",
      "outputs": [
        {
          "internalType": "contract DIDRegistry",
          "name": "",
          "type": "address"
        }
      ],
      "stateMutability": "view",
      "type": "function"
    },
    {
      "inputs": [
        {
          "internalType": "bytes32",
          "name": "_docHash",
          "type": "bytes32"
        }
      ],
      "name": "getCredential",
      "outputs": [
        {
          "components": [
            {
              "internalType": "bytes32",
              "name": "docHash",
              "type": "bytes32"
            },
            {
              "internalType": "string",
              "name": "cid",
              "type": "string"
            },
            {
              "internalType": "address",
              "name": "issuer",
              "type": "address"
            },
            {
              "internalType": "address",
              "name": "holder",
              "type": "address"
            },
            {
              "internalType": "uint256",
              "name": "issuedAt",
              "type": "uint256"
            },
            {
              "internalType": "bool",
              "name": "revoked",
              "type": "bool"
            },
            {
              "internalType": "bool",
              "name": "verified",
              "type": "bool"
            },
            {
              "internalType": "uint256",
              "name": "verifiedAt",
              "type": "uint256"
            }
          ],
          "internalType": "struct CredentialStore.Credential",
          "name": "",
          "type": "tuple"
        }
      ],
      "stateMutability": "view",
      "type": "function"
    },
    {
      "inputs": [
        {
          "internalType": "bytes32",
          "name": "role",
          "type": "bytes32"
        }
      ],
      "name": "getRoleAdmin",
      "outputs": [
        {
          "internalType": "bytes32",
          "name": "",
          "type": "bytes32"
        }
      ],
      "stateMutability": "view",
      "type": "function"
    },
    {
      "inputs": [
        {
          "internalType": "bytes32",
          "name": "role",
          "type": "bytes32"
        },
        {
          "internalType": "address",
          "name": "account",
          "type": "address"
        }
      ],
      "name": "grantRole",
      "outputs": [],
      "stateMutability": "nonpayable",
      "type": "function"
    },
    {
      "inputs": [
        {
          "internalType": "bytes32",
          "name": "role",
          "type": "bytes32"
        },
        {
          "internalType": "address",
          "name": "account",
          "type": "address"
        }
      ],
      "name": "hasRole",
      "outputs": [
        {
          "internalType": "bool",
          "name": "",
          "type": "bool"
        }
      ],
      "stateMutability": "view",
      "type": "function"
    },
    {
      "inputs": [
        {
          "internalType": "address",
          "name": "_didRegistry",
          "type": "address"
        }
      ],
      "name": "initialize",
      "outputs": [],
      "stateMutability": "nonpayable",
      "type": "function"
    },
    {
      "inputs": [
        {
          "internalType": "bytes32",
          "name": "_docHash",
          "type": "bytes32"
        },
        {
          "internalType": "string",
          "name": "_cid",
          "type": "string"
        },
        {
          "internalType": "address",
          "name": "_holder",
          "type": "address"
        }
      ],
      "name": "issueCredential",
      "outputs": [],
      "stateMutability": "nonpayable",
      "type": "function"
    },
    {
      "inputs": [
        {
          "internalType": "bytes32",
          "name": "role",
          "type": "bytes32"
        },
        {
          "internalType": "address",
          "name": "callerConfirmation",
          "type": "address"
        }
      ],
      "name": "renounceRole",
      "outputs": [],
      "stateMutability": "nonpayable",
      "type": "function"
    },
    {
      "inputs": [
        {
          "internalType": "bytes32",
          "name": "_docHash",
          "type": "bytes32"
        }
      ],
      "name": "revokeCredential",
      "outputs": [],
      "stateMutability": "nonpayable",
      "type": "function"
    },
    {
      "inputs": [
        {
          "internalType": "bytes32",
          "name": "role",
          "type": "bytes32"
        },
        {
          "internalType": "address",
          "name": "account",
          "type": "address"
        }
      ],
      "name": "revokeRole",
      "outputs": [],
      "stateMutability": "nonpayable",
      "type": "function"
    },
    {
      "inputs": [
        {
          "internalType": "bytes32",
          "name": "_docHash",
          "type": "bytes32"
        },
        {
          "internalType": "bool",
          "name": "_verified",
          "type": "bool"
        }
      ],
      "name": "setVerificationStatus",
      "outputs": [],
      "stateMutability": "nonpayable",
      "type": "function"
    },
    {
      "inputs": [
        {
          "internalType": "bytes4",
          "name": "interfaceId",
          "type": "bytes4"
        }
      ],
      "name": "supportsInterface",
      "outputs": [
        {
          "internalType": "bool",
          "name": "",
          "type": "bool"
        }
      ],
      "stateMutability": "view",
      "type": "function"
    }
  ],
  "bytecode": "0x608060405234801561001057600080fd5b50611194806100206000396000f3fe608060405234801561001057600080fd5b50600436106100f55760003560e01c80636045703411610097578063c4d66de811610066578063c4d66de814610211578063ca6eec7814610224578063d1be488314610237578063d547741f1461025757600080fd5b806360457034146101d057806391d14854146101e3578063a217fddf146101f6578063baf96d45146101fe57600080fd5b80632f2ff15d116100d35780632f2ff15d1461016a57806336568abe1461017f578063396dc08d14610192578063577f9fb1146101a557600080fd5b806301ffc9a7146100fa578063248a9ca314610122578063299d034814610143575b600080fd5b61010d610108366004610cb6565b61026a565b60405190151581526020015b60405180910390f35b610135610130366004610ce7565b6102a1565b604051908152602001610119565b610156610151366004610ce7565b6102c3565b604051610119989796959493929190610d46565b61017d610178366004610dba565b6103a0565b005b61017d61018d366004610dba565b6103c2565b6101356101a0366004610ce7565b6103fa565b6000546101b8906001600160a01b031681565b6040516001600160a01b039091168152602001610119565b61017d6101de366004610df4565b61041b565b61010d6101f1366004610dba565b61049d565b610135600081565b61017d61020c366004610e3a565b6104d5565b61017d61021f366004610f05565b610744565b61017d610232366004610ce7565b610865565b61024a610245366004610ce7565b61096d565b6040516101199190610f20565b61017d610265366004610dba565b610abd565b60006001600160e01b03198216637965db0b60e01b148061029b57506301ffc9a760e01b6001600160e01b03198316145b92915050565b600090815260008051602061113f833981519152602052604090206001015490565b6001602081905260009182526040909120805491810180546102e490610fac565b80601f016020809104026020016040519081016040528092919081815260200182805461031090610fac565b801561035d5780601f106103325761010080835404028352916020019161035d565b820191906000526020600020905b81548152906001019060200180831161034057829003601f168201915b505050600284015460038501546004860154600587015460069097015495966001600160a01b0393841696929093169450925060ff808316926101009004169088565b6103a9826102a1565b6103b281610ad9565b6103bc8383610ae6565b50505050565b6001600160a01b03811633146103eb5760405163334bd91960e11b815260040160405180910390fd5b6103f58282610b8b565b505050565b6002818154811061040a57600080fd5b600091825260209091200154905081565b600061042681610ad9565b600083815260016020526040908190206005810180548515156101000261ff0019909116179055426006909101819055905184917faa3b966071ad1115438416206c70ea3830bbc48f6ff61525a872b811c50495fb91610490918615158252602082015260400190565b60405180910390a2505050565b600091825260008051602061113f833981519152602090815260408084206001600160a01b0393909316845291905290205460ff1690565b60005460405163877b9a6760e01b81523360048201526001600160a01b039091169063877b9a6790602401602060405180830381865afa15801561051d573d6000803e3d6000fd5b505050506040513d601f19601f820116820180604052508101906105419190610fe6565b6105825760405162461bcd60e51b815260206004820152600d60248201526c2737ba1030b71034b9b9bab2b960991b60448201526064015b60405180910390fd5b6000838152600160205260409020600201546001600160a01b0316156105ea5760405162461bcd60e51b815260206004820152601960248201527f43726564656e7469616c20616c726561647920657869737473000000000000006044820152606401610579565b6040805161010081018252848152602080820185815233838501526001600160a01b0385166060840152426080840152600060a0840181905260c0840181905260e084018190528781526001928390529390932082518155925191929190820190610655908261104b565b50604082810151600280840180546001600160a01b039384166001600160a01b0319918216179091556060860151600386018054919094169116179091556080840151600484015560a084015160058401805460c087015115156101000261ff00199315159390931661ffff199091161791909117905560e09093015160069092019190915581546001810183556000929092527f405787fa12a823e0f2b7631cc41b3ba8828b3321ca811111fa75cd3aa3bb5ace9091018490555183907f28bbcd290e0668c1c04c3e05deaf004979031dd675f91768694b84dab7355377906104909085903390869061110b565b600061074e610c07565b805490915060ff600160401b820416159067ffffffffffffffff166000811580156107765750825b905060008267ffffffffffffffff1660011480156107935750303b155b9050811580156107a1575080155b156107bf5760405163f92ee8a960e01b815260040160405180910390fd5b845467ffffffffffffffff1916600117855583156107e957845460ff60401b1916600160401b1785555b6107f1610c30565b600080546001600160a01b0319166001600160a01b0388161781556108169033610ae6565b50831561085d57845460ff60401b19168555604051600181527fc7f505b2f371ae2175ee4913f4499e1f2633a7b5936321eed1cdaeb6115181d29060200160405180910390a15b505050505050565b6000818152600160205260409020600201546001600160a01b0316331480610893575061089360003361049d565b6108d05760405162461bcd60e51b815260206004820152600e60248201526d139bdd08185d5d1a1bdc9a5e995960921b6044820152606401610579565b60008181526001602052604090206005015460ff16156109245760405162461bcd60e51b815260206004820152600f60248201526e105b1c9958591e481c995d9bdad959608a1b6044820152606401610579565b6000818152600160208190526040808320600501805460ff19169092179091555182917f3cc2375f3fc7711ba27361cde93880f578742f9f050acee766bed662d117ba7291a250565b604080516101008101825260008082526060602083018190529282018190529181018290526080810182905260a0810182905260c0810182905260e081019190915260008281526001602081815260409283902083516101008101909452805484529182018054918401916109e190610fac565b80601f0160208091040260200160405190810160405280929190818152602001828054610a0d90610fac565b8015610a5a5780601f10610a2f57610100808354040283529160200191610a5a565b820191906000526020600020905b815481529060010190602001808311610a3d57829003601f168201915b505050918352505060028201546001600160a01b039081166020830152600383015416604082015260048201546060820152600582015460ff8082161515608084015261010090910416151560a082015260069091015460c09091015292915050565b610ac6826102a1565b610acf81610ad9565b6103bc8383610b8b565b610ae38133610c3a565b50565b600060008051602061113f833981519152610b01848461049d565b610b81576000848152602082815260408083206001600160a01b03871684529091529020805460ff19166001179055610b373390565b6001600160a01b0316836001600160a01b0316857f2f8788117e7eff1d82e926ec794901d17c78024a50270940304540a733656f0d60405160405180910390a4600191505061029b565b600091505061029b565b600060008051602061113f833981519152610ba6848461049d565b15610b81576000848152602082815260408083206001600160a01b0387168085529252808320805460ff1916905551339287917ff6391f5c32d9c69d2a47ea670b442974b53935d1edc7fd64eb21e047a839171b9190a4600191505061029b565b6000807ff0c57e16840df040f15088dc2f81fe391c3923bec73e23a9662efc9c229c6a0061029b565b610c38610c77565b565b610c44828261049d565b610c735760405163e2517d3f60e01b81526001600160a01b038216600482015260248101839052604401610579565b5050565b610c7f610c9c565b610c3857604051631afcd79f60e31b815260040160405180910390fd5b6000610ca6610c07565b54600160401b900460ff16919050565b600060208284031215610cc857600080fd5b81356001600160e01b031981168114610ce057600080fd5b9392505050565b600060208284031215610cf957600080fd5b5035919050565b6000815180845260005b81811015610d2657602081850181015186830182015201610d0a565b506000602082860101526020601f19601f83011685010191505092915050565b60006101008a8352806020840152610d608184018b610d00565b6001600160a01b03998a16604085015297909816606083015250608081019490945291151560a0840152151560c083015260e0909101529392505050565b80356001600160a01b0381168114610db557600080fd5b919050565b60008060408385031215610dcd57600080fd5b82359150610ddd60208401610d9e565b90509250929050565b8015158114610ae357600080fd5b60008060408385031215610e0757600080fd5b823591506020830135610e1981610de6565b809150509250929050565b634e487b7160e01b600052604160045260246000fd5b600080600060608486031215610e4f57600080fd5b83359250602084013567ffffffffffffffff80821115610e6e57600080fd5b818601915086601f830112610e8257600080fd5b813581811115610e9457610e94610e24565b604051601f8201601f19908116603f01168101908382118183101715610ebc57610ebc610e24565b81604052828152896020848701011115610ed557600080fd5b826020860160208301376000602084830101528096505050505050610efc60408501610d9e565b90509250925092565b600060208284031215610f1757600080fd5b610ce082610d9e565b602081528151602082015260006020830151610100806040850152610f49610120850183610d00565b9150604085015160018060a01b0380821660608701528060608801511660808701525050608085015160a085015260a0850151610f8a60c086018215159052565b5060c085015180151560e08601525060e0949094015192909301919091525090565b600181811c90821680610fc057607f821691505b602082108103610fe057634e487b7160e01b600052602260045260246000fd5b50919050565b600060208284031215610ff857600080fd5b8151610ce081610de6565b601f8211156103f5576000816000526020600020601f850160051c8101602086101561102c5750805b601f850160051c820191505b8181101561085d57828155600101611038565b815167ffffffffffffffff81111561106557611065610e24565b611079816110738454610fac565b84611003565b602080601f8311600181146110ae57600084156110965750858301515b600019600386901b1c1916600185901b17855561085d565b600085815260208120601f198616915b828110156110dd578886015182559484019460019091019084016110be565b50858210156110fb5787850151600019600388901b60f8161c191681555b5050505050600190811b01905550565b60608152600061111e6060830186610d00565b6001600160a01b039485166020840152929093166040909101529291505056fe02dd7bc7dec4dceedda775e58dd541e08a116c6c53815c0bd028192f7b626800a2646970667358221220c3b800e4918791fc15274c36db8dabbbdde0d94641af9ce9964932231ec7bcaf64736f6c63430008180033",
  "linkReferences": {},
  "deployedLinkReferences": {}
}